{
	"lottery/Lottery.sol": {
		"Lottery": {
			"abi": [
				{
					"inputs": [
						{
							"internalType": "uint64",
							"name": "subscriptionId",
							"type": "uint64"
						}
					],
					"stateMutability": "nonpayable",
					"type": "constructor"
				},
				{
					"inputs": [
						{
							"internalType": "address",
							"name": "have",
							"type": "address"
						},
						{
							"internalType": "address",
							"name": "want",
							"type": "address"
						}
					],
					"name": "OnlyCoordinatorCanFulfill",
					"type": "error"
				},
				{
					"anonymous": false,
					"inputs": [
						{
							"indexed": true,
							"internalType": "address",
							"name": "from",
							"type": "address"
						},
						{
							"indexed": true,
							"internalType": "address",
							"name": "to",
							"type": "address"
						}
					],
					"name": "OwnershipTransferRequested",
					"type": "event"
				},
				{
					"anonymous": false,
					"inputs": [
						{
							"indexed": true,
							"internalType": "address",
							"name": "from",
							"type": "address"
						},
						{
							"indexed": true,
							"internalType": "address",
							"name": "to",
							"type": "address"
						}
					],
					"name": "OwnershipTransferred",
					"type": "event"
				},
				{
					"anonymous": false,
					"inputs": [
						{
							"indexed": false,
							"internalType": "uint256",
							"name": "requestId",
							"type": "uint256"
						},
						{
							"indexed": false,
							"internalType": "uint256[]",
							"name": "randomWords",
							"type": "uint256[]"
						}
					],
					"name": "RequestFulfilled",
					"type": "event"
				},
				{
					"anonymous": false,
					"inputs": [
						{
							"indexed": false,
							"internalType": "uint256",
							"name": "requestId",
							"type": "uint256"
						},
						{
							"indexed": false,
							"internalType": "uint32",
							"name": "numWords",
							"type": "uint32"
						}
					],
					"name": "RequestSent",
					"type": "event"
				},
				{
					"inputs": [],
					"name": "acceptOwnership",
					"outputs": [],
					"stateMutability": "nonpayable",
					"type": "function"
				},
				{
					"inputs": [],
					"name": "callbackGasLimit",
					"outputs": [
						{
							"internalType": "uint32",
							"name": "",
							"type": "uint32"
						}
					],
					"stateMutability": "view",
					"type": "function"
				},
				{
					"inputs": [],
					"name": "getWinner",
					"outputs": [
						{
							"internalType": "address",
							"name": "",
							"type": "address"
						}
					],
					"stateMutability": "view",
					"type": "function"
				},
				{
					"inputs": [],
					"name": "lastRequestId",
					"outputs": [
						{
							"internalType": "uint256",
							"name": "",
							"type": "uint256"
						}
					],
					"stateMutability": "view",
					"type": "function"
				},
				{
					"inputs": [],
					"name": "manager",
					"outputs": [
						{
							"internalType": "address",
							"name": "",
							"type": "address"
						}
					],
					"stateMutability": "view",
					"type": "function"
				},
				{
					"inputs": [],
					"name": "numWords",
					"outputs": [
						{
							"internalType": "uint32",
							"name": "",
							"type": "uint32"
						}
					],
					"stateMutability": "view",
					"type": "function"
				},
				{
					"inputs": [],
					"name": "owner",
					"outputs": [
						{
							"internalType": "address",
							"name": "",
							"type": "address"
						}
					],
					"stateMutability": "view",
					"type": "function"
				},
				{
					"inputs": [
						{
							"internalType": "uint256",
							"name": "",
							"type": "uint256"
						}
					],
					"name": "participants",
					"outputs": [
						{
							"internalType": "address payable",
							"name": "",
							"type": "address"
						}
					],
					"stateMutability": "view",
					"type": "function"
				},
				{
					"inputs": [],
					"name": "randomResult",
					"outputs": [
						{
							"internalType": "uint256",
							"name": "",
							"type": "uint256"
						}
					],
					"stateMutability": "view",
					"type": "function"
				},
				{
					"inputs": [
						{
							"internalType": "uint256",
							"name": "requestId",
							"type": "uint256"
						},
						{
							"internalType": "uint256[]",
							"name": "randomWords",
							"type": "uint256[]"
						}
					],
					"name": "rawFulfillRandomWords",
					"outputs": [],
					"stateMutability": "nonpayable",
					"type": "function"
				},
				{
					"inputs": [],
					"name": "requestConfirmations",
					"outputs": [
						{
							"internalType": "uint16",
							"name": "",
							"type": "uint16"
						}
					],
					"stateMutability": "view",
					"type": "function"
				},
				{
					"inputs": [
						{
							"internalType": "uint256",
							"name": "",
							"type": "uint256"
						}
					],
					"name": "requestIds",
					"outputs": [
						{
							"internalType": "uint256",
							"name": "",
							"type": "uint256"
						}
					],
					"stateMutability": "view",
					"type": "function"
				},
				{
					"inputs": [],
					"name": "requestRandomWinner",
					"outputs": [
						{
							"internalType": "uint256",
							"name": "requestId",
							"type": "uint256"
						}
					],
					"stateMutability": "nonpayable",
					"type": "function"
				},
				{
					"inputs": [],
					"name": "reset",
					"outputs": [],
					"stateMutability": "nonpayable",
					"type": "function"
				},
				{
					"inputs": [
						{
							"internalType": "uint256",
							"name": "",
							"type": "uint256"
						}
					],
					"name": "s_requests",
					"outputs": [
						{
							"internalType": "bool",
							"name": "fulfilled",
							"type": "bool"
						},
						{
							"internalType": "bool",
							"name": "exists",
							"type": "bool"
						}
					],
					"stateMutability": "view",
					"type": "function"
				},
				{
					"inputs": [],
					"name": "s_subscriptionId",
					"outputs": [
						{
							"internalType": "uint64",
							"name": "",
							"type": "uint64"
						}
					],
					"stateMutability": "view",
					"type": "function"
				},
				{
					"inputs": [
						{
							"internalType": "address",
							"name": "to",
							"type": "address"
						}
					],
					"name": "transferOwnership",
					"outputs": [],
					"stateMutability": "nonpayable",
					"type": "function"
				},
				{
					"inputs": [],
					"name": "vrfKeyHash",
					"outputs": [
						{
							"internalType": "bytes32",
							"name": "",
							"type": "bytes32"
						}
					],
					"stateMutability": "view",
					"type": "function"
				},
				{
					"inputs": [],
					"name": "winner",
					"outputs": [
						{
							"internalType": "address payable",
							"name": "",
							"type": "address"
						}
					],
					"stateMutability": "view",
					"type": "function"
				},
				{
					"stateMutability": "payable",
					"type": "receive"
				}
			],
			"devdoc": {
				"kind": "dev",
				"methods": {},
				"version": 1
			},
			"evm": {
				"assembly": "    /* \"lottery/Lottery.sol\":285:3277  contract Lottery is VRFConsumerBaseV2, ConfirmedOwner {... */\n  mstore(0x40, 0xa0)\n    /* \"lottery/Lottery.sol\":940:946  100000 */\n  0x0186a0\n    /* \"lottery/Lottery.sol\":907:946  uint32 public callbackGasLimit = 100000 */\n  0x0e\n  exp(0x0100, 0x00)\n  dup2\n  sload\n  dup2\n  0xffffffff\n  mul\n  not\n  and\n  swap1\n  dup4\n  0xffffffff\n  and\n  mul\n  or\n  swap1\n  sstore\n  pop\n    /* \"lottery/Lottery.sol\":990:991  3 */\n  0x03\n    /* \"lottery/Lottery.sol\":953:991  uint16 public requestConfirmations = 3 */\n  0x0e\n  exp(0x0100, 0x04)\n  dup2\n  sload\n  dup2\n  0xffff\n  mul\n  not\n  and\n  swap1\n  dup4\n  0xffff\n  and\n  mul\n  or\n  swap1\n  sstore\n  pop\n    /* \"lottery/Lottery.sol\":1023:1024  1 */\n  0x01\n    /* \"lottery/Lottery.sol\":998:1024  uint32 public numWords = 1 */\n  0x0e\n  exp(0x0100, 0x06)\n  dup2\n  sload\n  dup2\n  0xffffffff\n  mul\n  not\n  and\n  swap1\n  dup4\n  0xffffffff\n  and\n  mul\n  or\n  swap1\n  sstore\n  pop\n    /* \"lottery/Lottery.sol\":1166:1604  constructor(uint64 subscriptionId)... */\n  callvalue\n  dup1\n  iszero\n  tag_1\n  jumpi\n  0x00\n  dup1\n  revert\ntag_1:\n  pop\n  mload(0x40)\n  sub(codesize, bytecodeSize)\n  dup1\n  bytecodeSize\n  dup4\n  codecopy\n  dup2\n  dup2\n  add\n  0x40\n  mstore\n  dup2\n  add\n  swap1\n  tag_2\n  swap2\n  swap1\n  tag_3\n  jump\t// in\ntag_2:\n    /* \"lottery/Lottery.sol\":1296:1306  msg.sender */\n  caller\n    /* \"@chainlink/contracts/src/v0.8/shared/access/ConfirmedOwner.sol\":327:335  newOwner */\n  dup1\n    /* \"@chainlink/contracts/src/v0.8/shared/access/ConfirmedOwner.sol\":345:346  0 */\n  0x00\n    /* \"lottery/Lottery.sol\":1228:1270  0x8103B0A8A00be2DDC778e6e7eaa21791Cd364625 */\n  0x8103b0a8a00be2ddc778e6e7eaa21791cd364625\n    /* \"@chainlink/contracts/src/v0.8/vrf/VRFConsumerBaseV2.sol\":5616:5631  _vrfCoordinator */\n  dup1\n    /* \"@chainlink/contracts/src/v0.8/vrf/VRFConsumerBaseV2.sol\":5599:5631  vrfCoordinator = _vrfCoordinator */\n  0xffffffffffffffffffffffffffffffffffffffff\n  and\n  0x80\n  dup2\n  0xffffffffffffffffffffffffffffffffffffffff\n  and\n  dup2\n  mstore\n  pop\n  pop\n    /* \"@chainlink/contracts/src/v0.8/vrf/VRFConsumerBaseV2.sol\":5556:5636  constructor(address _vrfCoordinator) {... */\n  pop\n    /* \"@chainlink/contracts/src/v0.8/shared/access/ConfirmedOwnerWithProposal.sol\":557:558  0 */\n  0x00\n    /* \"@chainlink/contracts/src/v0.8/shared/access/ConfirmedOwnerWithProposal.sol\":537:559  newOwner != address(0) */\n  0xffffffffffffffffffffffffffffffffffffffff\n  and\n    /* \"@chainlink/contracts/src/v0.8/shared/access/ConfirmedOwnerWithProposal.sol\":537:545  newOwner */\n  dup3\n    /* \"@chainlink/contracts/src/v0.8/shared/access/ConfirmedOwnerWithProposal.sol\":537:559  newOwner != address(0) */\n  0xffffffffffffffffffffffffffffffffffffffff\n  and\n  sub\n    /* \"@chainlink/contracts/src/v0.8/shared/access/ConfirmedOwnerWithProposal.sol\":529:588  require(newOwner != address(0), \"Cannot set owner to zero\") */\n  tag_10\n  jumpi\n  mload(0x40)\n  0x08c379a000000000000000000000000000000000000000000000000000000000\n  dup2\n  mstore\n  0x04\n  add\n  tag_11\n  swap1\n  tag_12\n  jump\t// in\ntag_11:\n  mload(0x40)\n  dup1\n  swap2\n  sub\n  swap1\n  revert\ntag_10:\n    /* \"@chainlink/contracts/src/v0.8/shared/access/ConfirmedOwnerWithProposal.sol\":605:613  newOwner */\n  dup2\n    /* \"@chainlink/contracts/src/v0.8/shared/access/ConfirmedOwnerWithProposal.sol\":595:602  s_owner */\n  0x00\n  dup1\n    /* \"@chainlink/contracts/src/v0.8/shared/access/ConfirmedOwnerWithProposal.sol\":595:613  s_owner = newOwner */\n  0x0100\n  exp\n  dup2\n  sload\n  dup2\n  0xffffffffffffffffffffffffffffffffffffffff\n  mul\n  not\n  and\n  swap1\n  dup4\n  0xffffffffffffffffffffffffffffffffffffffff\n  and\n  mul\n  or\n  swap1\n  sstore\n  pop\n    /* \"@chainlink/contracts/src/v0.8/shared/access/ConfirmedOwnerWithProposal.sol\":647:648  0 */\n  0x00\n    /* \"@chainlink/contracts/src/v0.8/shared/access/ConfirmedOwnerWithProposal.sol\":623:649  pendingOwner != address(0) */\n  0xffffffffffffffffffffffffffffffffffffffff\n  and\n    /* \"@chainlink/contracts/src/v0.8/shared/access/ConfirmedOwnerWithProposal.sol\":623:635  pendingOwner */\n  dup2\n    /* \"@chainlink/contracts/src/v0.8/shared/access/ConfirmedOwnerWithProposal.sol\":623:649  pendingOwner != address(0) */\n  0xffffffffffffffffffffffffffffffffffffffff\n  and\n  eq\n    /* \"@chainlink/contracts/src/v0.8/shared/access/ConfirmedOwnerWithProposal.sol\":619:698  if (pendingOwner != address(0)) {... */\n  tag_13\n  jumpi\n    /* \"@chainlink/contracts/src/v0.8/shared/access/ConfirmedOwnerWithProposal.sol\":659:691  _transferOwnership(pendingOwner) */\n  tag_14\n    /* \"@chainlink/contracts/src/v0.8/shared/access/ConfirmedOwnerWithProposal.sol\":678:690  pendingOwner */\n  dup2\n    /* \"@chainlink/contracts/src/v0.8/shared/access/ConfirmedOwnerWithProposal.sol\":659:677  _transferOwnership */\n  shl(0x20, tag_15)\n    /* \"@chainlink/contracts/src/v0.8/shared/access/ConfirmedOwnerWithProposal.sol\":659:691  _transferOwnership(pendingOwner) */\n  0x20\n  shr\n  jump\t// in\ntag_14:\n    /* \"@chainlink/contracts/src/v0.8/shared/access/ConfirmedOwnerWithProposal.sol\":619:698  if (pendingOwner != address(0)) {... */\ntag_13:\n    /* \"@chainlink/contracts/src/v0.8/shared/access/ConfirmedOwnerWithProposal.sol\":471:702  constructor(address newOwner, address pendingOwner) {... */\n  pop\n  pop\n    /* \"@chainlink/contracts/src/v0.8/shared/access/ConfirmedOwner.sol\":270:351  constructor(address newOwner) ConfirmedOwnerWithProposal(newOwner, address(0)) {} */\n  pop\n    /* \"lottery/Lottery.sol\":1334:1344  msg.sender */\n  caller\n    /* \"lottery/Lottery.sol\":1324:1331  manager */\n  0x02\n  0x00\n    /* \"lottery/Lottery.sol\":1324:1344  manager = msg.sender */\n  0x0100\n  exp\n  dup2\n  sload\n  dup2\n  0xffffffffffffffffffffffffffffffffffffffff\n  mul\n  not\n  and\n  swap1\n  dup4\n  0xffffffffffffffffffffffffffffffffffffffff\n  and\n  mul\n  or\n  swap1\n  sstore\n  pop\n    /* \"lottery/Lottery.sol\":1409:1451  0x8103B0A8A00be2DDC778e6e7eaa21791Cd364625 */\n  0x8103b0a8a00be2ddc778e6e7eaa21791cd364625\n    /* \"lottery/Lottery.sol\":1355:1366  COORDINATOR */\n  0x0a\n  0x00\n    /* \"lottery/Lottery.sol\":1355:1462  COORDINATOR = VRFCoordinatorV2Interface(... */\n  0x0100\n  exp\n  dup2\n  sload\n  dup2\n  0xffffffffffffffffffffffffffffffffffffffff\n  mul\n  not\n  and\n  swap1\n  dup4\n  0xffffffffffffffffffffffffffffffffffffffff\n  and\n  mul\n  or\n  swap1\n  sstore\n  pop\n    /* \"lottery/Lottery.sol\":1492:1506  subscriptionId */\n  dup1\n    /* \"lottery/Lottery.sol\":1473:1489  s_subscriptionId */\n  0x08\n  0x00\n    /* \"lottery/Lottery.sol\":1473:1506  s_subscriptionId = subscriptionId */\n  0x0100\n  exp\n  dup2\n  sload\n  dup2\n  0xffffffffffffffff\n  mul\n  not\n  and\n  swap1\n  dup4\n  0xffffffffffffffff\n  and\n  mul\n  or\n  swap1\n  sstore\n  pop\n    /* \"lottery/Lottery.sol\":1530:1596  0x474e34a077df58807dbe9c96d3c009b23b3c6d0cce433e59bbf5b34f823bc56c */\n  0x474e34a077df58807dbe9c96d3c009b23b3c6d0cce433e59bbf5b34f823bc56c\n    /* \"lottery/Lottery.sol\":1517:1596  vrfKeyHash = 0x474e34a077df58807dbe9c96d3c009b23b3c6d0cce433e59bbf5b34f823bc56c */\n  0x00\n  shl\n    /* \"lottery/Lottery.sol\":1517:1527  vrfKeyHash */\n  0x0d\n    /* \"lottery/Lottery.sol\":1517:1596  vrfKeyHash = 0x474e34a077df58807dbe9c96d3c009b23b3c6d0cce433e59bbf5b34f823bc56c */\n  dup2\n  swap1\n  sstore\n  pop\n    /* \"lottery/Lottery.sol\":1166:1604  constructor(uint64 subscriptionId)... */\n  pop\n    /* \"lottery/Lottery.sol\":285:3277  contract Lottery is VRFConsumerBaseV2, ConfirmedOwner {... */\n  jump(tag_18)\n    /* \"@chainlink/contracts/src/v0.8/shared/access/ConfirmedOwnerWithProposal.sol\":1482:1670  function _transferOwnership(address to) private {... */\ntag_15:\n    /* \"@chainlink/contracts/src/v0.8/shared/access/ConfirmedOwnerWithProposal.sol\":1550:1560  msg.sender */\n  caller\n    /* \"@chainlink/contracts/src/v0.8/shared/access/ConfirmedOwnerWithProposal.sol\":1544:1560  to != msg.sender */\n  0xffffffffffffffffffffffffffffffffffffffff\n  and\n    /* \"@chainlink/contracts/src/v0.8/shared/access/ConfirmedOwnerWithProposal.sol\":1544:1546  to */\n  dup2\n    /* \"@chainlink/contracts/src/v0.8/shared/access/ConfirmedOwnerWithProposal.sol\":1544:1560  to != msg.sender */\n  0xffffffffffffffffffffffffffffffffffffffff\n  and\n  sub\n    /* \"@chainlink/contracts/src/v0.8/shared/access/ConfirmedOwnerWithProposal.sol\":1536:1588  require(to != msg.sender, \"Cannot transfer to self\") */\n  tag_20\n  jumpi\n  mload(0x40)\n  0x08c379a000000000000000000000000000000000000000000000000000000000\n  dup2\n  mstore\n  0x04\n  add\n  tag_21\n  swap1\n  tag_22\n  jump\t// in\ntag_21:\n  mload(0x40)\n  dup1\n  swap2\n  sub\n  swap1\n  revert\ntag_20:\n    /* \"@chainlink/contracts/src/v0.8/shared/access/ConfirmedOwnerWithProposal.sol\":1612:1614  to */\n  dup1\n    /* \"@chainlink/contracts/src/v0.8/shared/access/ConfirmedOwnerWithProposal.sol\":1595:1609  s_pendingOwner */\n  0x01\n  0x00\n    /* \"@chainlink/contracts/src/v0.8/shared/access/ConfirmedOwnerWithProposal.sol\":1595:1614  s_pendingOwner = to */\n  0x0100\n  exp\n  dup2\n  sload\n  dup2\n  0xffffffffffffffffffffffffffffffffffffffff\n  mul\n  not\n  and\n  swap1\n  dup4\n  0xffffffffffffffffffffffffffffffffffffffff\n  and\n  mul\n  or\n  swap1\n  sstore\n  pop\n    /* \"@chainlink/contracts/src/v0.8/shared/access/ConfirmedOwnerWithProposal.sol\":1662:1664  to */\n  dup1\n    /* \"@chainlink/contracts/src/v0.8/shared/access/ConfirmedOwnerWithProposal.sol\":1626:1665  OwnershipTransferRequested(s_owner, to) */\n  0xffffffffffffffffffffffffffffffffffffffff\n  and\n    /* \"@chainlink/contracts/src/v0.8/shared/access/ConfirmedOwnerWithProposal.sol\":1653:1660  s_owner */\n  0x00\n  dup1\n  sload\n  swap1\n  0x0100\n  exp\n  swap1\n  div\n  0xffffffffffffffffffffffffffffffffffffffff\n  and\n    /* \"@chainlink/contracts/src/v0.8/shared/access/ConfirmedOwnerWithProposal.sol\":1626:1665  OwnershipTransferRequested(s_owner, to) */\n  0xffffffffffffffffffffffffffffffffffffffff\n  and\n  0xed8889f560326eb138920d842192f0eb3dd22b4f139c87a2c57538e05bae1278\n  mload(0x40)\n  mload(0x40)\n  dup1\n  swap2\n  sub\n  swap1\n  log3\n    /* \"@chainlink/contracts/src/v0.8/shared/access/ConfirmedOwnerWithProposal.sol\":1482:1670  function _transferOwnership(address to) private {... */\n  pop\n  jump\t// out\n    /* \"#utility.yul\":88:205   */\ntag_24:\n    /* \"#utility.yul\":197:198   */\n  0x00\n    /* \"#utility.yul\":194:195   */\n  dup1\n    /* \"#utility.yul\":187:199   */\n  revert\n    /* \"#utility.yul\":334:435   */\ntag_26:\n    /* \"#utility.yul\":370:377   */\n  0x00\n    /* \"#utility.yul\":410:428   */\n  0xffffffffffffffff\n    /* \"#utility.yul\":403:408   */\n  dup3\n    /* \"#utility.yul\":399:429   */\n  and\n    /* \"#utility.yul\":388:429   */\n  swap1\n  pop\n    /* \"#utility.yul\":334:435   */\n  swap2\n  swap1\n  pop\n  jump\t// out\n    /* \"#utility.yul\":441:561   */\ntag_27:\n    /* \"#utility.yul\":513:536   */\n  tag_40\n    /* \"#utility.yul\":530:535   */\n  dup2\n    /* \"#utility.yul\":513:536   */\n  tag_26\n  jump\t// in\ntag_40:\n    /* \"#utility.yul\":506:511   */\n  dup2\n    /* \"#utility.yul\":503:537   */\n  eq\n    /* \"#utility.yul\":493:555   */\n  tag_41\n  jumpi\n    /* \"#utility.yul\":551:552   */\n  0x00\n    /* \"#utility.yul\":548:549   */\n  dup1\n    /* \"#utility.yul\":541:553   */\n  revert\n    /* \"#utility.yul\":493:555   */\ntag_41:\n    /* \"#utility.yul\":441:561   */\n  pop\n  jump\t// out\n    /* \"#utility.yul\":567:708   */\ntag_28:\n    /* \"#utility.yul\":623:628   */\n  0x00\n    /* \"#utility.yul\":654:660   */\n  dup2\n    /* \"#utility.yul\":648:661   */\n  mload\n    /* \"#utility.yul\":639:661   */\n  swap1\n  pop\n    /* \"#utility.yul\":670:702   */\n  tag_43\n    /* \"#utility.yul\":696:701   */\n  dup2\n    /* \"#utility.yul\":670:702   */\n  tag_27\n  jump\t// in\ntag_43:\n    /* \"#utility.yul\":567:708   */\n  swap3\n  swap2\n  pop\n  pop\n  jump\t// out\n    /* \"#utility.yul\":714:1063   */\ntag_3:\n    /* \"#utility.yul\":783:789   */\n  0x00\n    /* \"#utility.yul\":832:834   */\n  0x20\n    /* \"#utility.yul\":820:829   */\n  dup3\n    /* \"#utility.yul\":811:818   */\n  dup5\n    /* \"#utility.yul\":807:830   */\n  sub\n    /* \"#utility.yul\":803:835   */\n  slt\n    /* \"#utility.yul\":800:919   */\n  iszero\n  tag_45\n  jumpi\n    /* \"#utility.yul\":838:917   */\n  tag_46\n  tag_24\n  jump\t// in\ntag_46:\n    /* \"#utility.yul\":800:919   */\ntag_45:\n    /* \"#utility.yul\":958:959   */\n  0x00\n    /* \"#utility.yul\":983:1046   */\n  tag_47\n    /* \"#utility.yul\":1038:1045   */\n  dup5\n    /* \"#utility.yul\":1029:1035   */\n  dup3\n    /* \"#utility.yul\":1018:1027   */\n  dup6\n    /* \"#utility.yul\":1014:1036   */\n  add\n    /* \"#utility.yul\":983:1046   */\n  tag_28\n  jump\t// in\ntag_47:\n    /* \"#utility.yul\":973:1046   */\n  swap2\n  pop\n    /* \"#utility.yul\":929:1056   */\n  pop\n    /* \"#utility.yul\":714:1063   */\n  swap3\n  swap2\n  pop\n  pop\n  jump\t// out\n    /* \"#utility.yul\":1069:1238   */\ntag_29:\n    /* \"#utility.yul\":1153:1164   */\n  0x00\n    /* \"#utility.yul\":1187:1193   */\n  dup3\n    /* \"#utility.yul\":1182:1185   */\n  dup3\n    /* \"#utility.yul\":1175:1194   */\n  mstore\n    /* \"#utility.yul\":1227:1231   */\n  0x20\n    /* \"#utility.yul\":1222:1225   */\n  dup3\n    /* \"#utility.yul\":1218:1232   */\n  add\n    /* \"#utility.yul\":1203:1232   */\n  swap1\n  pop\n    /* \"#utility.yul\":1069:1238   */\n  swap3\n  swap2\n  pop\n  pop\n  jump\t// out\n    /* \"#utility.yul\":1244:1418   */\ntag_30:\n    /* \"#utility.yul\":1384:1410   */\n  0x43616e6e6f7420736574206f776e657220746f207a65726f0000000000000000\n    /* \"#utility.yul\":1380:1381   */\n  0x00\n    /* \"#utility.yul\":1372:1378   */\n  dup3\n    /* \"#utility.yul\":1368:1382   */\n  add\n    /* \"#utility.yul\":1361:1411   */\n  mstore\n    /* \"#utility.yul\":1244:1418   */\n  pop\n  jump\t// out\n    /* \"#utility.yul\":1424:1790   */\ntag_31:\n    /* \"#utility.yul\":1566:1569   */\n  0x00\n    /* \"#utility.yul\":1587:1654   */\n  tag_51\n    /* \"#utility.yul\":1651:1653   */\n  0x18\n    /* \"#utility.yul\":1646:1649   */\n  dup4\n    /* \"#utility.yul\":1587:1654   */\n  tag_29\n  jump\t// in\ntag_51:\n    /* \"#utility.yul\":1580:1654   */\n  swap2\n  pop\n    /* \"#utility.yul\":1663:1756   */\n  tag_52\n    /* \"#utility.yul\":1752:1755   */\n  dup3\n    /* \"#utility.yul\":1663:1756   */\n  tag_30\n  jump\t// in\ntag_52:\n    /* \"#utility.yul\":1781:1783   */\n  0x20\n    /* \"#utility.yul\":1776:1779   */\n  dup3\n    /* \"#utility.yul\":1772:1784   */\n  add\n    /* \"#utility.yul\":1765:1784   */\n  swap1\n  pop\n    /* \"#utility.yul\":1424:1790   */\n  swap2\n  swap1\n  pop\n  jump\t// out\n    /* \"#utility.yul\":1796:2215   */\ntag_12:\n    /* \"#utility.yul\":1962:1966   */\n  0x00\n    /* \"#utility.yul\":2000:2002   */\n  0x20\n    /* \"#utility.yul\":1989:1998   */\n  dup3\n    /* \"#utility.yul\":1985:2003   */\n  add\n    /* \"#utility.yul\":1977:2003   */\n  swap1\n  pop\n    /* \"#utility.yul\":2049:2058   */\n  dup2\n    /* \"#utility.yul\":2043:2047   */\n  dup2\n    /* \"#utility.yul\":2039:2059   */\n  sub\n    /* \"#utility.yul\":2035:2036   */\n  0x00\n    /* \"#utility.yul\":2024:2033   */\n  dup4\n    /* \"#utility.yul\":2020:2037   */\n  add\n    /* \"#utility.yul\":2013:2060   */\n  mstore\n    /* \"#utility.yul\":2077:2208   */\n  tag_54\n    /* \"#utility.yul\":2203:2207   */\n  dup2\n    /* \"#utility.yul\":2077:2208   */\n  tag_31\n  jump\t// in\ntag_54:\n    /* \"#utility.yul\":2069:2208   */\n  swap1\n  pop\n    /* \"#utility.yul\":1796:2215   */\n  swap2\n  swap1\n  pop\n  jump\t// out\n    /* \"#utility.yul\":2221:2394   */\ntag_32:\n    /* \"#utility.yul\":2361:2386   */\n  0x43616e6e6f74207472616e7366657220746f2073656c66000000000000000000\n    /* \"#utility.yul\":2357:2358   */\n  0x00\n    /* \"#utility.yul\":2349:2355   */\n  dup3\n    /* \"#utility.yul\":2345:2359   */\n  add\n    /* \"#utility.yul\":2338:2387   */\n  mstore\n    /* \"#utility.yul\":2221:2394   */\n  pop\n  jump\t// out\n    /* \"#utility.yul\":2400:2766   */\ntag_33:\n    /* \"#utility.yul\":2542:2545   */\n  0x00\n    /* \"#utility.yul\":2563:2630   */\n  tag_57\n    /* \"#utility.yul\":2627:2629   */\n  0x17\n    /* \"#utility.yul\":2622:2625   */\n  dup4\n    /* \"#utility.yul\":2563:2630   */\n  tag_29\n  jump\t// in\ntag_57:\n    /* \"#utility.yul\":2556:2630   */\n  swap2\n  pop\n    /* \"#utility.yul\":2639:2732   */\n  tag_58\n    /* \"#utility.yul\":2728:2731   */\n  dup3\n    /* \"#utility.yul\":2639:2732   */\n  tag_32\n  jump\t// in\ntag_58:\n    /* \"#utility.yul\":2757:2759   */\n  0x20\n    /* \"#utility.yul\":2752:2755   */\n  dup3\n    /* \"#utility.yul\":2748:2760   */\n  add\n    /* \"#utility.yul\":2741:2760   */\n  swap1\n  pop\n    /* \"#utility.yul\":2400:2766   */\n  swap2\n  swap1\n  pop\n  jump\t// out\n    /* \"#utility.yul\":2772:3191   */\ntag_22:\n    /* \"#utility.yul\":2938:2942   */\n  0x00\n    /* \"#utility.yul\":2976:2978   */\n  0x20\n    /* \"#utility.yul\":2965:2974   */\n  dup3\n    /* \"#utility.yul\":2961:2979   */\n  add\n    /* \"#utility.yul\":2953:2979   */\n  swap1\n  pop\n    /* \"#utility.yul\":3025:3034   */\n  dup2\n    /* \"#utility.yul\":3019:3023   */\n  dup2\n    /* \"#utility.yul\":3015:3035   */\n  sub\n    /* \"#utility.yul\":3011:3012   */\n  0x00\n    /* \"#utility.yul\":3000:3009   */\n  dup4\n    /* \"#utility.yul\":2996:3013   */\n  add\n    /* \"#utility.yul\":2989:3036   */\n  mstore\n    /* \"#utility.yul\":3053:3184   */\n  tag_60\n    /* \"#utility.yul\":3179:3183   */\n  dup2\n    /* \"#utility.yul\":3053:3184   */\n  tag_33\n  jump\t// in\ntag_60:\n    /* \"#utility.yul\":3045:3184   */\n  swap1\n  pop\n    /* \"#utility.yul\":2772:3191   */\n  swap2\n  swap1\n  pop\n  jump\t// out\n    /* \"lottery/Lottery.sol\":285:3277  contract Lottery is VRFConsumerBaseV2, ConfirmedOwner {... */\ntag_18:\n  mload(0x80)\n  codecopy(0x00, dataOffset(sub_0), dataSize(sub_0))\n  0x00\n  assignImmutable(\"0x064aab4cf973af3102587bae83caeab28cf75517d40727c9b952f0d14fb521fa\")\n  return(0x00, dataSize(sub_0))\nstop\n\nsub_0: assembly {\n        /* \"lottery/Lottery.sol\":285:3277  contract Lottery is VRFConsumerBaseV2, ConfirmedOwner {... */\n      mstore(0x40, 0x80)\n      jumpi(tag_1, lt(calldatasize, 0x04))\n      shr(0xe0, calldataload(0x00))\n      dup1\n      0x8796ba8c\n      gt\n      tag_22\n      jumpi\n      dup1\n      0xb0fb162f\n      gt\n      tag_23\n      jumpi\n      dup1\n      0xb0fb162f\n      eq\n      tag_17\n      jumpi\n      dup1\n      0xd826f88f\n      eq\n      tag_18\n      jumpi\n      dup1\n      0xdfbf53ae\n      eq\n      tag_19\n      jumpi\n      dup1\n      0xf2fde38b\n      eq\n      tag_20\n      jumpi\n      dup1\n      0xfc2a88c3\n      eq\n      tag_21\n      jumpi\n      jump(tag_2)\n    tag_23:\n      dup1\n      0x8796ba8c\n      eq\n      tag_12\n      jumpi\n      dup1\n      0x8ac00021\n      eq\n      tag_13\n      jumpi\n      dup1\n      0x8da5cb5b\n      eq\n      tag_14\n      jumpi\n      dup1\n      0x8e7ea5b2\n      eq\n      tag_15\n      jumpi\n      dup1\n      0xa168fa89\n      eq\n      tag_16\n      jumpi\n      jump(tag_2)\n    tag_22:\n      dup1\n      0x42619f66\n      gt\n      tag_24\n      jumpi\n      dup1\n      0x42619f66\n      eq\n      tag_7\n      jumpi\n      dup1\n      0x481c6a75\n      eq\n      tag_8\n      jumpi\n      dup1\n      0x522a1f0b\n      eq\n      tag_9\n      jumpi\n      dup1\n      0x79ba5097\n      eq\n      tag_10\n      jumpi\n      dup1\n      0x7ccfd7fc\n      eq\n      tag_11\n      jumpi\n      jump(tag_2)\n    tag_24:\n      dup1\n      0x041d443e\n      eq\n      tag_3\n      jumpi\n      dup1\n      0x1fe543e3\n      eq\n      tag_4\n      jumpi\n      dup1\n      0x24f74697\n      eq\n      tag_5\n      jumpi\n      dup1\n      0x35c1d349\n      eq\n      tag_6\n      jumpi\n      jump(tag_2)\n    tag_1:\n      jumpi(tag_2, calldatasize)\n        /* \"lottery/Lottery.sol\":1671:1678  1 ether */\n      0x0de0b6b3a7640000\n        /* \"lottery/Lottery.sol\":1658:1667  msg.value */\n      callvalue\n        /* \"lottery/Lottery.sol\":1658:1678  msg.value == 1 ether */\n      eq\n        /* \"lottery/Lottery.sol\":1650:1724  require(msg.value == 1 ether, \"Contribute exactly 1 ether to participate\") */\n      tag_27\n      jumpi\n      mload(0x40)\n      0x08c379a000000000000000000000000000000000000000000000000000000000\n      dup2\n      mstore\n      0x04\n      add\n      tag_28\n      swap1\n      tag_29\n      jump\t// in\n    tag_28:\n      mload(0x40)\n      dup1\n      swap2\n      sub\n      swap1\n      revert\n    tag_27:\n        /* \"lottery/Lottery.sol\":1735:1747  participants */\n      0x03\n        /* \"lottery/Lottery.sol\":1761:1771  msg.sender */\n      caller\n        /* \"lottery/Lottery.sol\":1735:1773  participants.push(payable(msg.sender)) */\n      swap1\n      dup1\n      0x01\n      dup2\n      sload\n      add\n      dup1\n      dup3\n      sstore\n      dup1\n      swap2\n      pop\n      pop\n      0x01\n      swap1\n      sub\n      swap1\n      0x00\n      mstore\n      keccak256(0x00, 0x20)\n      add\n      0x00\n      swap1\n      swap2\n      swap1\n      swap2\n      swap1\n      swap2\n      0x0100\n      exp\n      dup2\n      sload\n      dup2\n      0xffffffffffffffffffffffffffffffffffffffff\n      mul\n      not\n      and\n      swap1\n      dup4\n      0xffffffffffffffffffffffffffffffffffffffff\n      and\n      mul\n      or\n      swap1\n      sstore\n      stop\n        /* \"lottery/Lottery.sol\":285:3277  contract Lottery is VRFConsumerBaseV2, ConfirmedOwner {... */\n    tag_2:\n      0x00\n      dup1\n      revert\n        /* \"lottery/Lottery.sol\":875:900  bytes32 public vrfKeyHash */\n    tag_3:\n      callvalue\n      dup1\n      iszero\n      tag_31\n      jumpi\n      0x00\n      dup1\n      revert\n    tag_31:\n      pop\n      tag_32\n      tag_33\n      jump\t// in\n    tag_32:\n      mload(0x40)\n      tag_34\n      swap2\n      swap1\n      tag_35\n      jump\t// in\n    tag_34:\n      mload(0x40)\n      dup1\n      swap2\n      sub\n      swap1\n      return\n        /* \"@chainlink/contracts/src/v0.8/vrf/VRFConsumerBaseV2.sol\":6618:6874  function rawFulfillRandomWords(uint256 requestId, uint256[] memory randomWords) external {... */\n    tag_4:\n      callvalue\n      dup1\n      iszero\n      tag_36\n      jumpi\n      0x00\n      dup1\n      revert\n    tag_36:\n      pop\n      tag_37\n      0x04\n      dup1\n      calldatasize\n      sub\n      dup2\n      add\n      swap1\n      tag_38\n      swap2\n      swap1\n      tag_39\n      jump\t// in\n    tag_38:\n      tag_40\n      jump\t// in\n    tag_37:\n      stop\n        /* \"lottery/Lottery.sol\":907:946  uint32 public callbackGasLimit = 100000 */\n    tag_5:\n      callvalue\n      dup1\n      iszero\n      tag_41\n      jumpi\n      0x00\n      dup1\n      revert\n    tag_41:\n      pop\n      tag_42\n      tag_43\n      jump\t// in\n    tag_42:\n      mload(0x40)\n      tag_44\n      swap2\n      swap1\n      tag_45\n      jump\t// in\n    tag_44:\n      mload(0x40)\n      dup1\n      swap2\n      sub\n      swap1\n      return\n        /* \"lottery/Lottery.sol\":375:412  address payable[] public participants */\n    tag_6:\n      callvalue\n      dup1\n      iszero\n      tag_46\n      jumpi\n      0x00\n      dup1\n      revert\n    tag_46:\n      pop\n      tag_47\n      0x04\n      dup1\n      calldatasize\n      sub\n      dup2\n      add\n      swap1\n      tag_48\n      swap2\n      swap1\n      tag_49\n      jump\t// in\n    tag_48:\n      tag_50\n      jump\t// in\n    tag_47:\n      mload(0x40)\n      tag_51\n      swap2\n      swap1\n      tag_52\n      jump\t// in\n    tag_51:\n      mload(0x40)\n      dup1\n      swap2\n      sub\n      swap1\n      return\n        /* \"lottery/Lottery.sol\":455:482  uint256 public randomResult */\n    tag_7:\n      callvalue\n      dup1\n      iszero\n      tag_53\n      jumpi\n      0x00\n      dup1\n      revert\n    tag_53:\n      pop\n      tag_54\n      tag_55\n      jump\t// in\n    tag_54:\n      mload(0x40)\n      tag_56\n      swap2\n      swap1\n      tag_57\n      jump\t// in\n    tag_56:\n      mload(0x40)\n      dup1\n      swap2\n      sub\n      swap1\n      return\n        /* \"lottery/Lottery.sol\":346:368  address public manager */\n    tag_8:\n      callvalue\n      dup1\n      iszero\n      tag_58\n      jumpi\n      0x00\n      dup1\n      revert\n    tag_58:\n      pop\n      tag_59\n      tag_60\n      jump\t// in\n    tag_59:\n      mload(0x40)\n      tag_61\n      swap2\n      swap1\n      tag_62\n      jump\t// in\n    tag_61:\n      mload(0x40)\n      dup1\n      swap2\n      sub\n      swap1\n      return\n        /* \"lottery/Lottery.sol\":1789:2395  function requestRandomWinner() external onlyOwner returns (uint256 requestId) {... */\n    tag_9:\n      callvalue\n      dup1\n      iszero\n      tag_63\n      jumpi\n      0x00\n      dup1\n      revert\n    tag_63:\n      pop\n      tag_64\n      tag_65\n      jump\t// in\n    tag_64:\n      mload(0x40)\n      tag_66\n      swap2\n      swap1\n      tag_57\n      jump\t// in\n    tag_66:\n      mload(0x40)\n      dup1\n      swap2\n      sub\n      swap1\n      return\n        /* \"@chainlink/contracts/src/v0.8/shared/access/ConfirmedOwnerWithProposal.sol\":1001:1266  function acceptOwnership() external override {... */\n    tag_10:\n      callvalue\n      dup1\n      iszero\n      tag_67\n      jumpi\n      0x00\n      dup1\n      revert\n    tag_67:\n      pop\n      tag_68\n      tag_69\n      jump\t// in\n    tag_68:\n      stop\n        /* \"lottery/Lottery.sol\":998:1024  uint32 public numWords = 1 */\n    tag_11:\n      callvalue\n      dup1\n      iszero\n      tag_70\n      jumpi\n      0x00\n      dup1\n      revert\n    tag_70:\n      pop\n      tag_71\n      tag_72\n      jump\t// in\n    tag_71:\n      mload(0x40)\n      tag_73\n      swap2\n      swap1\n      tag_45\n      jump\t// in\n    tag_73:\n      mload(0x40)\n      dup1\n      swap2\n      sub\n      swap1\n      return\n        /* \"lottery/Lottery.sol\":804:831  uint256[] public requestIds */\n    tag_12:\n      callvalue\n      dup1\n      iszero\n      tag_74\n      jumpi\n      0x00\n      dup1\n      revert\n    tag_74:\n      pop\n      tag_75\n      0x04\n      dup1\n      calldatasize\n      sub\n      dup2\n      add\n      swap1\n      tag_76\n      swap2\n      swap1\n      tag_49\n      jump\t// in\n    tag_76:\n      tag_77\n      jump\t// in\n    tag_75:\n      mload(0x40)\n      tag_78\n      swap2\n      swap1\n      tag_57\n      jump\t// in\n    tag_78:\n      mload(0x40)\n      dup1\n      swap2\n      sub\n      swap1\n      return\n        /* \"lottery/Lottery.sol\":547:577  uint64 public s_subscriptionId */\n    tag_13:\n      callvalue\n      dup1\n      iszero\n      tag_79\n      jumpi\n      0x00\n      dup1\n      revert\n    tag_79:\n      pop\n      tag_80\n      tag_81\n      jump\t// in\n    tag_80:\n      mload(0x40)\n      tag_82\n      swap2\n      swap1\n      tag_83\n      jump\t// in\n    tag_82:\n      mload(0x40)\n      dup1\n      swap2\n      sub\n      swap1\n      return\n        /* \"@chainlink/contracts/src/v0.8/shared/access/ConfirmedOwnerWithProposal.sol\":1317:1398  function owner() public view override returns (address) {... */\n    tag_14:\n      callvalue\n      dup1\n      iszero\n      tag_84\n      jumpi\n      0x00\n      dup1\n      revert\n    tag_84:\n      pop\n      tag_85\n      tag_86\n      jump\t// in\n    tag_85:\n      mload(0x40)\n      tag_87\n      swap2\n      swap1\n      tag_62\n      jump\t// in\n    tag_87:\n      mload(0x40)\n      dup1\n      swap2\n      sub\n      swap1\n      return\n        /* \"lottery/Lottery.sol\":3021:3106  function getWinner() external view returns (address) {... */\n    tag_15:\n      callvalue\n      dup1\n      iszero\n      tag_88\n      jumpi\n      0x00\n      dup1\n      revert\n    tag_88:\n      pop\n      tag_89\n      tag_90\n      jump\t// in\n    tag_89:\n      mload(0x40)\n      tag_91\n      swap2\n      swap1\n      tag_62\n      jump\t// in\n    tag_91:\n      mload(0x40)\n      dup1\n      swap2\n      sub\n      swap1\n      return\n        /* \"lottery/Lottery.sol\":700:751  mapping(uint256 => RequestStatus) public s_requests */\n    tag_16:\n      callvalue\n      dup1\n      iszero\n      tag_92\n      jumpi\n      0x00\n      dup1\n      revert\n    tag_92:\n      pop\n      tag_93\n      0x04\n      dup1\n      calldatasize\n      sub\n      dup2\n      add\n      swap1\n      tag_94\n      swap2\n      swap1\n      tag_49\n      jump\t// in\n    tag_94:\n      tag_95\n      jump\t// in\n    tag_93:\n      mload(0x40)\n      tag_96\n      swap3\n      swap2\n      swap1\n      tag_97\n      jump\t// in\n    tag_96:\n      mload(0x40)\n      dup1\n      swap2\n      sub\n      swap1\n      return\n        /* \"lottery/Lottery.sol\":953:991  uint16 public requestConfirmations = 3 */\n    tag_17:\n      callvalue\n      dup1\n      iszero\n      tag_98\n      jumpi\n      0x00\n      dup1\n      revert\n    tag_98:\n      pop\n      tag_99\n      tag_100\n      jump\t// in\n    tag_99:\n      mload(0x40)\n      tag_101\n      swap2\n      swap1\n      tag_102\n      jump\t// in\n    tag_101:\n      mload(0x40)\n      dup1\n      swap2\n      sub\n      swap1\n      return\n        /* \"lottery/Lottery.sol\":3114:3274  function reset() external onlyOwner {... */\n    tag_18:\n      callvalue\n      dup1\n      iszero\n      tag_103\n      jumpi\n      0x00\n      dup1\n      revert\n    tag_103:\n      pop\n      tag_104\n      tag_105\n      jump\t// in\n    tag_104:\n      stop\n        /* \"lottery/Lottery.sol\":419:448  address payable public winner */\n    tag_19:\n      callvalue\n      dup1\n      iszero\n      tag_106\n      jumpi\n      0x00\n      dup1\n      revert\n    tag_106:\n      pop\n      tag_107\n      tag_108\n      jump\t// in\n    tag_107:\n      mload(0x40)\n      tag_109\n      swap2\n      swap1\n      tag_52\n      jump\t// in\n    tag_109:\n      mload(0x40)\n      dup1\n      swap2\n      sub\n      swap1\n      return\n        /* \"@chainlink/contracts/src/v0.8/shared/access/ConfirmedOwnerWithProposal.sol\":811:909  function transferOwnership(address to) public override onlyOwner {... */\n    tag_20:\n      callvalue\n      dup1\n      iszero\n      tag_110\n      jumpi\n      0x00\n      dup1\n      revert\n    tag_110:\n      pop\n      tag_111\n      0x04\n      dup1\n      calldatasize\n      sub\n      dup2\n      add\n      swap1\n      tag_112\n      swap2\n      swap1\n      tag_113\n      jump\t// in\n    tag_112:\n      tag_114\n      jump\t// in\n    tag_111:\n      stop\n        /* \"lottery/Lottery.sol\":838:866  uint256 public lastRequestId */\n    tag_21:\n      callvalue\n      dup1\n      iszero\n      tag_115\n      jumpi\n      0x00\n      dup1\n      revert\n    tag_115:\n      pop\n      tag_116\n      tag_117\n      jump\t// in\n    tag_116:\n      mload(0x40)\n      tag_118\n      swap2\n      swap1\n      tag_57\n      jump\t// in\n    tag_118:\n      mload(0x40)\n      dup1\n      swap2\n      sub\n      swap1\n      return\n        /* \"lottery/Lottery.sol\":875:900  bytes32 public vrfKeyHash */\n    tag_33:\n      sload(0x0d)\n      dup2\n      jump\t// out\n        /* \"@chainlink/contracts/src/v0.8/vrf/VRFConsumerBaseV2.sol\":6618:6874  function rawFulfillRandomWords(uint256 requestId, uint256[] memory randomWords) external {... */\n    tag_40:\n        /* \"@chainlink/contracts/src/v0.8/vrf/VRFConsumerBaseV2.sol\":6731:6745  vrfCoordinator */\n      immutable(\"0x064aab4cf973af3102587bae83caeab28cf75517d40727c9b952f0d14fb521fa\")\n        /* \"@chainlink/contracts/src/v0.8/vrf/VRFConsumerBaseV2.sol\":6717:6745  msg.sender != vrfCoordinator */\n      0xffffffffffffffffffffffffffffffffffffffff\n      and\n        /* \"@chainlink/contracts/src/v0.8/vrf/VRFConsumerBaseV2.sol\":6717:6727  msg.sender */\n      caller\n        /* \"@chainlink/contracts/src/v0.8/vrf/VRFConsumerBaseV2.sol\":6717:6745  msg.sender != vrfCoordinator */\n      0xffffffffffffffffffffffffffffffffffffffff\n      and\n      eq\n        /* \"@chainlink/contracts/src/v0.8/vrf/VRFConsumerBaseV2.sol\":6713:6822  if (msg.sender != vrfCoordinator) {... */\n      tag_120\n      jumpi\n        /* \"@chainlink/contracts/src/v0.8/vrf/VRFConsumerBaseV2.sol\":6788:6798  msg.sender */\n      caller\n        /* \"@chainlink/contracts/src/v0.8/vrf/VRFConsumerBaseV2.sol\":6800:6814  vrfCoordinator */\n      immutable(\"0x064aab4cf973af3102587bae83caeab28cf75517d40727c9b952f0d14fb521fa\")\n        /* \"@chainlink/contracts/src/v0.8/vrf/VRFConsumerBaseV2.sol\":6762:6815  OnlyCoordinatorCanFulfill(msg.sender, vrfCoordinator) */\n      mload(0x40)\n      0x1cf993f400000000000000000000000000000000000000000000000000000000\n      dup2\n      mstore\n      0x04\n      add\n      tag_121\n      swap3\n      swap2\n      swap1\n      tag_122\n      jump\t// in\n    tag_121:\n      mload(0x40)\n      dup1\n      swap2\n      sub\n      swap1\n      revert\n        /* \"@chainlink/contracts/src/v0.8/vrf/VRFConsumerBaseV2.sol\":6713:6822  if (msg.sender != vrfCoordinator) {... */\n    tag_120:\n        /* \"@chainlink/contracts/src/v0.8/vrf/VRFConsumerBaseV2.sol\":6827:6869  fulfillRandomWords(requestId, randomWords) */\n      tag_123\n        /* \"@chainlink/contracts/src/v0.8/vrf/VRFConsumerBaseV2.sol\":6846:6855  requestId */\n      dup3\n        /* \"@chainlink/contracts/src/v0.8/vrf/VRFConsumerBaseV2.sol\":6857:6868  randomWords */\n      dup3\n        /* \"@chainlink/contracts/src/v0.8/vrf/VRFConsumerBaseV2.sol\":6827:6845  fulfillRandomWords */\n      tag_124\n        /* \"@chainlink/contracts/src/v0.8/vrf/VRFConsumerBaseV2.sol\":6827:6869  fulfillRandomWords(requestId, randomWords) */\n      jump\t// in\n    tag_123:\n        /* \"@chainlink/contracts/src/v0.8/vrf/VRFConsumerBaseV2.sol\":6618:6874  function rawFulfillRandomWords(uint256 requestId, uint256[] memory randomWords) external {... */\n      pop\n      pop\n      jump\t// out\n        /* \"lottery/Lottery.sol\":907:946  uint32 public callbackGasLimit = 100000 */\n    tag_43:\n      0x0e\n      0x00\n      swap1\n      sload\n      swap1\n      0x0100\n      exp\n      swap1\n      div\n      0xffffffff\n      and\n      dup2\n      jump\t// out\n        /* \"lottery/Lottery.sol\":375:412  address payable[] public participants */\n    tag_50:\n      0x03\n      dup2\n      dup2\n      sload\n      dup2\n      lt\n      tag_125\n      jumpi\n      0x00\n      dup1\n      revert\n    tag_125:\n      swap1\n      0x00\n      mstore\n      keccak256(0x00, 0x20)\n      add\n      0x00\n      swap2\n      pop\n      sload\n      swap1\n      0x0100\n      exp\n      swap1\n      div\n      0xffffffffffffffffffffffffffffffffffffffff\n      and\n      dup2\n      jump\t// out\n        /* \"lottery/Lottery.sol\":455:482  uint256 public randomResult */\n    tag_55:\n      sload(0x05)\n      dup2\n      jump\t// out\n        /* \"lottery/Lottery.sol\":346:368  address public manager */\n    tag_60:\n      0x02\n      0x00\n      swap1\n      sload\n      swap1\n      0x0100\n      exp\n      swap1\n      div\n      0xffffffffffffffffffffffffffffffffffffffff\n      and\n      dup2\n      jump\t// out\n        /* \"lottery/Lottery.sol\":1789:2395  function requestRandomWinner() external onlyOwner returns (uint256 requestId) {... */\n    tag_65:\n        /* \"lottery/Lottery.sol\":1848:1865  uint256 requestId */\n      0x00\n        /* \"@chainlink/contracts/src/v0.8/shared/access/ConfirmedOwnerWithProposal.sol\":1941:1961  _validateOwnership() */\n      tag_128\n        /* \"@chainlink/contracts/src/v0.8/shared/access/ConfirmedOwnerWithProposal.sol\":1941:1959  _validateOwnership */\n      tag_129\n        /* \"@chainlink/contracts/src/v0.8/shared/access/ConfirmedOwnerWithProposal.sol\":1941:1961  _validateOwnership() */\n      jump\t// in\n    tag_128:\n        /* \"lottery/Lottery.sol\":1890:1901  COORDINATOR */\n      0x0a\n      0x00\n      swap1\n      sload\n      swap1\n      0x0100\n      exp\n      swap1\n      div\n      0xffffffffffffffffffffffffffffffffffffffff\n      and\n        /* \"lottery/Lottery.sol\":1890:1920  COORDINATOR.requestRandomWords */\n      0xffffffffffffffffffffffffffffffffffffffff\n      and\n      0x5d3b1d30\n        /* \"lottery/Lottery.sol\":1935:1945  vrfKeyHash */\n      sload(0x0d)\n        /* \"lottery/Lottery.sol\":1960:1976  s_subscriptionId */\n      0x08\n      0x00\n      swap1\n      sload\n      swap1\n      0x0100\n      exp\n      swap1\n      div\n      0xffffffffffffffff\n      and\n        /* \"lottery/Lottery.sol\":1991:2011  requestConfirmations */\n      0x0e\n      0x04\n      swap1\n      sload\n      swap1\n      0x0100\n      exp\n      swap1\n      div\n      0xffff\n      and\n        /* \"lottery/Lottery.sol\":2026:2042  callbackGasLimit */\n      0x0e\n      0x00\n      swap1\n      sload\n      swap1\n      0x0100\n      exp\n      swap1\n      div\n      0xffffffff\n      and\n        /* \"lottery/Lottery.sol\":2057:2065  numWords */\n      0x0e\n      0x06\n      swap1\n      sload\n      swap1\n      0x0100\n      exp\n      swap1\n      div\n      0xffffffff\n      and\n        /* \"lottery/Lottery.sol\":1890:2076  COORDINATOR.requestRandomWords(... */\n      mload(0x40)\n      dup7\n      0xffffffff\n      and\n      0xe0\n      shl\n      dup2\n      mstore\n      0x04\n      add\n      tag_131\n      swap6\n      swap5\n      swap4\n      swap3\n      swap2\n      swap1\n      tag_132\n      jump\t// in\n    tag_131:\n      0x20\n      mload(0x40)\n      dup1\n      dup4\n      sub\n      dup2\n      0x00\n      dup8\n      gas\n      call\n      iszero\n      dup1\n      iszero\n      tag_134\n      jumpi\n      returndatasize\n      0x00\n      dup1\n      returndatacopy\n      revert(0x00, returndatasize)\n    tag_134:\n      pop\n      pop\n      pop\n      pop\n      mload(0x40)\n      returndatasize\n      not(0x1f)\n      0x1f\n      dup3\n      add\n      and\n      dup3\n      add\n      dup1\n      0x40\n      mstore\n      pop\n      dup2\n      add\n      swap1\n      tag_135\n      swap2\n      swap1\n      tag_136\n      jump\t// in\n    tag_135:\n        /* \"lottery/Lottery.sol\":1878:2076  requestId = COORDINATOR.requestRandomWords(... */\n      swap1\n      pop\n        /* \"lottery/Lottery.sol\":2111:2239  RequestStatus({... */\n      mload(0x40)\n      dup1\n      0x60\n      add\n      0x40\n      mstore\n      dup1\n        /* \"lottery/Lottery.sol\":2222:2227  false */\n      0x00\n        /* \"lottery/Lottery.sol\":2111:2239  RequestStatus({... */\n      iszero\n      iszero\n      dup2\n      mstore\n      0x20\n      add\n        /* \"lottery/Lottery.sol\":2192:2196  true */\n      0x01\n        /* \"lottery/Lottery.sol\":2111:2239  RequestStatus({... */\n      iszero\n      iszero\n      dup2\n      mstore\n      0x20\n      add\n        /* \"lottery/Lottery.sol\":2167:2168  0 */\n      0x00\n        /* \"lottery/Lottery.sol\":2153:2169  new uint256[](0) */\n      0xffffffffffffffff\n      dup2\n      gt\n      iszero\n      tag_137\n      jumpi\n      tag_138\n      tag_139\n      jump\t// in\n    tag_138:\n    tag_137:\n      mload(0x40)\n      swap1\n      dup1\n      dup3\n      mstore\n      dup1\n      0x20\n      mul\n      0x20\n      add\n      dup3\n      add\n      0x40\n      mstore\n      dup1\n      iszero\n      tag_140\n      jumpi\n      dup2\n      0x20\n      add\n      0x20\n      dup3\n      mul\n      dup1\n      calldatasize\n      dup4\n      calldatacopy\n      dup1\n      dup3\n      add\n      swap2\n      pop\n      pop\n      swap1\n      pop\n    tag_140:\n      pop\n        /* \"lottery/Lottery.sol\":2111:2239  RequestStatus({... */\n      dup2\n      mstore\n      pop\n        /* \"lottery/Lottery.sol\":2087:2097  s_requests */\n      0x09\n        /* \"lottery/Lottery.sol\":2087:2108  s_requests[requestId] */\n      0x00\n        /* \"lottery/Lottery.sol\":2098:2107  requestId */\n      dup4\n        /* \"lottery/Lottery.sol\":2087:2108  s_requests[requestId] */\n      dup2\n      mstore\n      0x20\n      add\n      swap1\n      dup2\n      mstore\n      0x20\n      add\n      0x00\n      keccak256\n        /* \"lottery/Lottery.sol\":2087:2239  s_requests[requestId] = RequestStatus({... */\n      0x00\n      dup3\n      add\n      mload\n      dup2\n      0x00\n      add\n      exp(0x0100, 0x00)\n      dup2\n      sload\n      dup2\n      0xff\n      mul\n      not\n      and\n      swap1\n      dup4\n      iszero\n      iszero\n      mul\n      or\n      swap1\n      sstore\n      pop\n      0x20\n      dup3\n      add\n      mload\n      dup2\n      0x00\n      add\n      exp(0x0100, 0x01)\n      dup2\n      sload\n      dup2\n      0xff\n      mul\n      not\n      and\n      swap1\n      dup4\n      iszero\n      iszero\n      mul\n      or\n      swap1\n      sstore\n      pop\n      0x40\n      dup3\n      add\n      mload\n      dup2\n      0x01\n      add\n      swap1\n      dup1\n      mload\n      swap1\n      0x20\n      add\n      swap1\n      tag_141\n      swap3\n      swap2\n      swap1\n      tag_142\n      jump\t// in\n    tag_141:\n      pop\n      swap1\n      pop\n      pop\n        /* \"lottery/Lottery.sol\":2250:2260  requestIds */\n      0x0b\n        /* \"lottery/Lottery.sol\":2266:2275  requestId */\n      dup2\n        /* \"lottery/Lottery.sol\":2250:2276  requestIds.push(requestId) */\n      swap1\n      dup1\n      0x01\n      dup2\n      sload\n      add\n      dup1\n      dup3\n      sstore\n      dup1\n      swap2\n      pop\n      pop\n      0x01\n      swap1\n      sub\n      swap1\n      0x00\n      mstore\n      keccak256(0x00, 0x20)\n      add\n      0x00\n      swap1\n      swap2\n      swap1\n      swap2\n      swap1\n      swap2\n      pop\n      sstore\n        /* \"lottery/Lottery.sol\":2303:2312  requestId */\n      dup1\n        /* \"lottery/Lottery.sol\":2287:2300  lastRequestId */\n      0x0c\n        /* \"lottery/Lottery.sol\":2287:2312  lastRequestId = requestId */\n      dup2\n      swap1\n      sstore\n      pop\n        /* \"lottery/Lottery.sol\":2328:2360  RequestSent(requestId, numWords) */\n      0xcc58b13ad3eab50626c6a6300b1d139cd6ebb1688a7cced9461c2f7e762665ee\n        /* \"lottery/Lottery.sol\":2340:2349  requestId */\n      dup2\n        /* \"lottery/Lottery.sol\":2351:2359  numWords */\n      0x0e\n      0x06\n      swap1\n      sload\n      swap1\n      0x0100\n      exp\n      swap1\n      div\n      0xffffffff\n      and\n        /* \"lottery/Lottery.sol\":2328:2360  RequestSent(requestId, numWords) */\n      mload(0x40)\n      tag_144\n      swap3\n      swap2\n      swap1\n      tag_145\n      jump\t// in\n    tag_144:\n      mload(0x40)\n      dup1\n      swap2\n      sub\n      swap1\n      log1\n        /* \"lottery/Lottery.sol\":1789:2395  function requestRandomWinner() external onlyOwner returns (uint256 requestId) {... */\n      swap1\n      jump\t// out\n        /* \"@chainlink/contracts/src/v0.8/shared/access/ConfirmedOwnerWithProposal.sol\":1001:1266  function acceptOwnership() external override {... */\n    tag_69:\n        /* \"@chainlink/contracts/src/v0.8/shared/access/ConfirmedOwnerWithProposal.sol\":1074:1088  s_pendingOwner */\n      0x01\n      0x00\n      swap1\n      sload\n      swap1\n      0x0100\n      exp\n      swap1\n      div\n      0xffffffffffffffffffffffffffffffffffffffff\n      and\n        /* \"@chainlink/contracts/src/v0.8/shared/access/ConfirmedOwnerWithProposal.sol\":1060:1088  msg.sender == s_pendingOwner */\n      0xffffffffffffffffffffffffffffffffffffffff\n      and\n        /* \"@chainlink/contracts/src/v0.8/shared/access/ConfirmedOwnerWithProposal.sol\":1060:1070  msg.sender */\n      caller\n        /* \"@chainlink/contracts/src/v0.8/shared/access/ConfirmedOwnerWithProposal.sol\":1060:1088  msg.sender == s_pendingOwner */\n      0xffffffffffffffffffffffffffffffffffffffff\n      and\n      eq\n        /* \"@chainlink/contracts/src/v0.8/shared/access/ConfirmedOwnerWithProposal.sol\":1052:1115  require(msg.sender == s_pendingOwner, \"Must be proposed owner\") */\n      tag_147\n      jumpi\n      mload(0x40)\n      0x08c379a000000000000000000000000000000000000000000000000000000000\n      dup2\n      mstore\n      0x04\n      add\n      tag_148\n      swap1\n      tag_149\n      jump\t// in\n    tag_148:\n      mload(0x40)\n      dup1\n      swap2\n      sub\n      swap1\n      revert\n    tag_147:\n        /* \"@chainlink/contracts/src/v0.8/shared/access/ConfirmedOwnerWithProposal.sol\":1122:1138  address oldOwner */\n      0x00\n        /* \"@chainlink/contracts/src/v0.8/shared/access/ConfirmedOwnerWithProposal.sol\":1141:1148  s_owner */\n      dup1\n      0x00\n      swap1\n      sload\n      swap1\n      0x0100\n      exp\n      swap1\n      div\n      0xffffffffffffffffffffffffffffffffffffffff\n      and\n        /* \"@chainlink/contracts/src/v0.8/shared/access/ConfirmedOwnerWithProposal.sol\":1122:1148  address oldOwner = s_owner */\n      swap1\n      pop\n        /* \"@chainlink/contracts/src/v0.8/shared/access/ConfirmedOwnerWithProposal.sol\":1164:1174  msg.sender */\n      caller\n        /* \"@chainlink/contracts/src/v0.8/shared/access/ConfirmedOwnerWithProposal.sol\":1154:1161  s_owner */\n      0x00\n      dup1\n        /* \"@chainlink/contracts/src/v0.8/shared/access/ConfirmedOwnerWithProposal.sol\":1154:1174  s_owner = msg.sender */\n      0x0100\n      exp\n      dup2\n      sload\n      dup2\n      0xffffffffffffffffffffffffffffffffffffffff\n      mul\n      not\n      and\n      swap1\n      dup4\n      0xffffffffffffffffffffffffffffffffffffffff\n      and\n      mul\n      or\n      swap1\n      sstore\n      pop\n        /* \"@chainlink/contracts/src/v0.8/shared/access/ConfirmedOwnerWithProposal.sol\":1205:1206  0 */\n      0x00\n        /* \"@chainlink/contracts/src/v0.8/shared/access/ConfirmedOwnerWithProposal.sol\":1180:1194  s_pendingOwner */\n      0x01\n      0x00\n        /* \"@chainlink/contracts/src/v0.8/shared/access/ConfirmedOwnerWithProposal.sol\":1180:1207  s_pendingOwner = address(0) */\n      0x0100\n      exp\n      dup2\n      sload\n      dup2\n      0xffffffffffffffffffffffffffffffffffffffff\n      mul\n      not\n      and\n      swap1\n      dup4\n      0xffffffffffffffffffffffffffffffffffffffff\n      and\n      mul\n      or\n      swap1\n      sstore\n      pop\n        /* \"@chainlink/contracts/src/v0.8/shared/access/ConfirmedOwnerWithProposal.sol\":1250:1260  msg.sender */\n      caller\n        /* \"@chainlink/contracts/src/v0.8/shared/access/ConfirmedOwnerWithProposal.sol\":1219:1261  OwnershipTransferred(oldOwner, msg.sender) */\n      0xffffffffffffffffffffffffffffffffffffffff\n      and\n        /* \"@chainlink/contracts/src/v0.8/shared/access/ConfirmedOwnerWithProposal.sol\":1240:1248  oldOwner */\n      dup2\n        /* \"@chainlink/contracts/src/v0.8/shared/access/ConfirmedOwnerWithProposal.sol\":1219:1261  OwnershipTransferred(oldOwner, msg.sender) */\n      0xffffffffffffffffffffffffffffffffffffffff\n      and\n      0x8be0079c531659141344cd1fd0a4f28419497f9722a3daafe3b4186f6b6457e0\n      mload(0x40)\n      mload(0x40)\n      dup1\n      swap2\n      sub\n      swap1\n      log3\n        /* \"@chainlink/contracts/src/v0.8/shared/access/ConfirmedOwnerWithProposal.sol\":1046:1266  {... */\n      pop\n        /* \"@chainlink/contracts/src/v0.8/shared/access/ConfirmedOwnerWithProposal.sol\":1001:1266  function acceptOwnership() external override {... */\n      jump\t// out\n        /* \"lottery/Lottery.sol\":998:1024  uint32 public numWords = 1 */\n    tag_72:\n      0x0e\n      0x06\n      swap1\n      sload\n      swap1\n      0x0100\n      exp\n      swap1\n      div\n      0xffffffff\n      and\n      dup2\n      jump\t// out\n        /* \"lottery/Lottery.sol\":804:831  uint256[] public requestIds */\n    tag_77:\n      0x0b\n      dup2\n      dup2\n      sload\n      dup2\n      lt\n      tag_150\n      jumpi\n      0x00\n      dup1\n      revert\n    tag_150:\n      swap1\n      0x00\n      mstore\n      keccak256(0x00, 0x20)\n      add\n      0x00\n      swap2\n      pop\n      swap1\n      pop\n      sload\n      dup2\n      jump\t// out\n        /* \"lottery/Lottery.sol\":547:577  uint64 public s_subscriptionId */\n    tag_81:\n      0x08\n      0x00\n      swap1\n      sload\n      swap1\n      0x0100\n      exp\n      swap1\n      div\n      0xffffffffffffffff\n      and\n      dup2\n      jump\t// out\n        /* \"@chainlink/contracts/src/v0.8/shared/access/ConfirmedOwnerWithProposal.sol\":1317:1398  function owner() public view override returns (address) {... */\n    tag_86:\n        /* \"@chainlink/contracts/src/v0.8/shared/access/ConfirmedOwnerWithProposal.sol\":1364:1371  address */\n      0x00\n        /* \"@chainlink/contracts/src/v0.8/shared/access/ConfirmedOwnerWithProposal.sol\":1386:1393  s_owner */\n      dup1\n      0x00\n      swap1\n      sload\n      swap1\n      0x0100\n      exp\n      swap1\n      div\n      0xffffffffffffffffffffffffffffffffffffffff\n      and\n        /* \"@chainlink/contracts/src/v0.8/shared/access/ConfirmedOwnerWithProposal.sol\":1379:1393  return s_owner */\n      swap1\n      pop\n        /* \"@chainlink/contracts/src/v0.8/shared/access/ConfirmedOwnerWithProposal.sol\":1317:1398  function owner() public view override returns (address) {... */\n      swap1\n      jump\t// out\n        /* \"lottery/Lottery.sol\":3021:3106  function getWinner() external view returns (address) {... */\n    tag_90:\n        /* \"lottery/Lottery.sol\":3065:3072  address */\n      0x00\n        /* \"lottery/Lottery.sol\":3092:3098  winner */\n      0x04\n      0x00\n      swap1\n      sload\n      swap1\n      0x0100\n      exp\n      swap1\n      div\n      0xffffffffffffffffffffffffffffffffffffffff\n      and\n        /* \"lottery/Lottery.sol\":3085:3098  return winner */\n      swap1\n      pop\n        /* \"lottery/Lottery.sol\":3021:3106  function getWinner() external view returns (address) {... */\n      swap1\n      jump\t// out\n        /* \"lottery/Lottery.sol\":700:751  mapping(uint256 => RequestStatus) public s_requests */\n    tag_95:\n      mstore(0x20, 0x09)\n      dup1\n      0x00\n      mstore\n      keccak256(0x00, 0x40)\n      0x00\n      swap2\n      pop\n      swap1\n      pop\n      dup1\n      0x00\n      add\n      0x00\n      swap1\n      sload\n      swap1\n      0x0100\n      exp\n      swap1\n      div\n      0xff\n      and\n      swap1\n      dup1\n      0x00\n      add\n      0x01\n      swap1\n      sload\n      swap1\n      0x0100\n      exp\n      swap1\n      div\n      0xff\n      and\n      swap1\n      pop\n      dup3\n      jump\t// out\n        /* \"lottery/Lottery.sol\":953:991  uint16 public requestConfirmations = 3 */\n    tag_100:\n      0x0e\n      0x04\n      swap1\n      sload\n      swap1\n      0x0100\n      exp\n      swap1\n      div\n      0xffff\n      and\n      dup2\n      jump\t// out\n        /* \"lottery/Lottery.sol\":3114:3274  function reset() external onlyOwner {... */\n    tag_105:\n        /* \"@chainlink/contracts/src/v0.8/shared/access/ConfirmedOwnerWithProposal.sol\":1941:1961  _validateOwnership() */\n      tag_155\n        /* \"@chainlink/contracts/src/v0.8/shared/access/ConfirmedOwnerWithProposal.sol\":1941:1959  _validateOwnership */\n      tag_129\n        /* \"@chainlink/contracts/src/v0.8/shared/access/ConfirmedOwnerWithProposal.sol\":1941:1961  _validateOwnership() */\n      jump\t// in\n    tag_155:\n        /* \"lottery/Lottery.sol\":3198:3199  0 */\n      0x00\n        /* \"lottery/Lottery.sol\":3176:3200  new address payable[](0) */\n      0xffffffffffffffff\n      dup2\n      gt\n      iszero\n      tag_157\n      jumpi\n      tag_158\n      tag_139\n      jump\t// in\n    tag_158:\n    tag_157:\n      mload(0x40)\n      swap1\n      dup1\n      dup3\n      mstore\n      dup1\n      0x20\n      mul\n      0x20\n      add\n      dup3\n      add\n      0x40\n      mstore\n      dup1\n      iszero\n      tag_159\n      jumpi\n      dup2\n      0x20\n      add\n      0x20\n      dup3\n      mul\n      dup1\n      calldatasize\n      dup4\n      calldatacopy\n      dup1\n      dup3\n      add\n      swap2\n      pop\n      pop\n      swap1\n      pop\n    tag_159:\n      pop\n        /* \"lottery/Lottery.sol\":3161:3173  participants */\n      0x03\n        /* \"lottery/Lottery.sol\":3161:3200  participants = new address payable[](0) */\n      swap1\n      dup1\n      mload\n      swap1\n      0x20\n      add\n      swap1\n      tag_160\n      swap3\n      swap2\n      swap1\n      tag_161\n      jump\t// in\n    tag_160:\n      pop\n        /* \"lottery/Lottery.sol\":3236:3237  0 */\n      0x00\n        /* \"lottery/Lottery.sol\":3211:3217  winner */\n      0x04\n      0x00\n        /* \"lottery/Lottery.sol\":3211:3239  winner = payable(address(0)) */\n      0x0100\n      exp\n      dup2\n      sload\n      dup2\n      0xffffffffffffffffffffffffffffffffffffffff\n      mul\n      not\n      and\n      swap1\n      dup4\n      0xffffffffffffffffffffffffffffffffffffffff\n      and\n      mul\n      or\n      swap1\n      sstore\n      pop\n        /* \"lottery/Lottery.sol\":3265:3266  0 */\n      0x00\n        /* \"lottery/Lottery.sol\":3250:3262  randomResult */\n      0x05\n        /* \"lottery/Lottery.sol\":3250:3266  randomResult = 0 */\n      dup2\n      swap1\n      sstore\n      pop\n        /* \"lottery/Lottery.sol\":3114:3274  function reset() external onlyOwner {... */\n      jump\t// out\n        /* \"lottery/Lottery.sol\":419:448  address payable public winner */\n    tag_108:\n      0x04\n      0x00\n      swap1\n      sload\n      swap1\n      0x0100\n      exp\n      swap1\n      div\n      0xffffffffffffffffffffffffffffffffffffffff\n      and\n      dup2\n      jump\t// out\n        /* \"@chainlink/contracts/src/v0.8/shared/access/ConfirmedOwnerWithProposal.sol\":811:909  function transferOwnership(address to) public override onlyOwner {... */\n    tag_114:\n        /* \"@chainlink/contracts/src/v0.8/shared/access/ConfirmedOwnerWithProposal.sol\":1941:1961  _validateOwnership() */\n      tag_163\n        /* \"@chainlink/contracts/src/v0.8/shared/access/ConfirmedOwnerWithProposal.sol\":1941:1959  _validateOwnership */\n      tag_129\n        /* \"@chainlink/contracts/src/v0.8/shared/access/ConfirmedOwnerWithProposal.sol\":1941:1961  _validateOwnership() */\n      jump\t// in\n    tag_163:\n        /* \"@chainlink/contracts/src/v0.8/shared/access/ConfirmedOwnerWithProposal.sol\":882:904  _transferOwnership(to) */\n      tag_165\n        /* \"@chainlink/contracts/src/v0.8/shared/access/ConfirmedOwnerWithProposal.sol\":901:903  to */\n      dup2\n        /* \"@chainlink/contracts/src/v0.8/shared/access/ConfirmedOwnerWithProposal.sol\":882:900  _transferOwnership */\n      tag_166\n        /* \"@chainlink/contracts/src/v0.8/shared/access/ConfirmedOwnerWithProposal.sol\":882:904  _transferOwnership(to) */\n      jump\t// in\n    tag_165:\n        /* \"@chainlink/contracts/src/v0.8/shared/access/ConfirmedOwnerWithProposal.sol\":811:909  function transferOwnership(address to) public override onlyOwner {... */\n      pop\n      jump\t// out\n        /* \"lottery/Lottery.sol\":838:866  uint256 public lastRequestId */\n    tag_117:\n      sload(0x0c)\n      dup2\n      jump\t// out\n        /* \"lottery/Lottery.sol\":2403:2783  function fulfillRandomWords(uint256 _requestId, uint256[] memory _randomWords) internal override {... */\n    tag_124:\n        /* \"lottery/Lottery.sol\":2519:2529  s_requests */\n      0x09\n        /* \"lottery/Lottery.sol\":2519:2541  s_requests[_requestId] */\n      0x00\n        /* \"lottery/Lottery.sol\":2530:2540  _requestId */\n      dup4\n        /* \"lottery/Lottery.sol\":2519:2541  s_requests[_requestId] */\n      dup2\n      mstore\n      0x20\n      add\n      swap1\n      dup2\n      mstore\n      0x20\n      add\n      0x00\n      keccak256\n        /* \"lottery/Lottery.sol\":2519:2548  s_requests[_requestId].exists */\n      0x00\n      add\n      0x01\n      swap1\n      sload\n      swap1\n      0x0100\n      exp\n      swap1\n      div\n      0xff\n      and\n        /* \"lottery/Lottery.sol\":2511:2570  require(s_requests[_requestId].exists, \"request not found\") */\n      tag_168\n      jumpi\n      mload(0x40)\n      0x08c379a000000000000000000000000000000000000000000000000000000000\n      dup2\n      mstore\n      0x04\n      add\n      tag_169\n      swap1\n      tag_170\n      jump\t// in\n    tag_169:\n      mload(0x40)\n      dup1\n      swap2\n      sub\n      swap1\n      revert\n    tag_168:\n        /* \"lottery/Lottery.sol\":2616:2620  true */\n      0x01\n        /* \"lottery/Lottery.sol\":2581:2591  s_requests */\n      0x09\n        /* \"lottery/Lottery.sol\":2581:2603  s_requests[_requestId] */\n      0x00\n        /* \"lottery/Lottery.sol\":2592:2602  _requestId */\n      dup5\n        /* \"lottery/Lottery.sol\":2581:2603  s_requests[_requestId] */\n      dup2\n      mstore\n      0x20\n      add\n      swap1\n      dup2\n      mstore\n      0x20\n      add\n      0x00\n      keccak256\n        /* \"lottery/Lottery.sol\":2581:2613  s_requests[_requestId].fulfilled */\n      0x00\n      add\n      0x00\n        /* \"lottery/Lottery.sol\":2581:2620  s_requests[_requestId].fulfilled = true */\n      0x0100\n      exp\n      dup2\n      sload\n      dup2\n      0xff\n      mul\n      not\n      and\n      swap1\n      dup4\n      iszero\n      iszero\n      mul\n      or\n      swap1\n      sstore\n      pop\n        /* \"lottery/Lottery.sol\":2668:2680  _randomWords */\n      dup1\n        /* \"lottery/Lottery.sol\":2631:2641  s_requests */\n      0x09\n        /* \"lottery/Lottery.sol\":2631:2653  s_requests[_requestId] */\n      0x00\n        /* \"lottery/Lottery.sol\":2642:2652  _requestId */\n      dup5\n        /* \"lottery/Lottery.sol\":2631:2653  s_requests[_requestId] */\n      dup2\n      mstore\n      0x20\n      add\n      swap1\n      dup2\n      mstore\n      0x20\n      add\n      0x00\n      keccak256\n        /* \"lottery/Lottery.sol\":2631:2665  s_requests[_requestId].randomWords */\n      0x01\n      add\n        /* \"lottery/Lottery.sol\":2631:2680  s_requests[_requestId].randomWords = _randomWords */\n      swap1\n      dup1\n      mload\n      swap1\n      0x20\n      add\n      swap1\n      tag_171\n      swap3\n      swap2\n      swap1\n      tag_142\n      jump\t// in\n    tag_171:\n      pop\n        /* \"lottery/Lottery.sol\":2691:2717  selectWinner(_randomWords) */\n      tag_172\n        /* \"lottery/Lottery.sol\":2704:2716  _randomWords */\n      dup2\n        /* \"lottery/Lottery.sol\":2691:2703  selectWinner */\n      tag_173\n        /* \"lottery/Lottery.sol\":2691:2717  selectWinner(_randomWords) */\n      jump\t// in\n    tag_172:\n        /* \"lottery/Lottery.sol\":2733:2775  RequestFulfilled(_requestId, _randomWords) */\n      0xfe2e2d779dba245964d4e3ef9b994be63856fd568bf7d3ca9e224755cb1bd54d\n        /* \"lottery/Lottery.sol\":2750:2760  _requestId */\n      dup3\n        /* \"lottery/Lottery.sol\":2762:2774  _randomWords */\n      dup3\n        /* \"lottery/Lottery.sol\":2733:2775  RequestFulfilled(_requestId, _randomWords) */\n      mload(0x40)\n      tag_174\n      swap3\n      swap2\n      swap1\n      tag_175\n      jump\t// in\n    tag_174:\n      mload(0x40)\n      dup1\n      swap2\n      sub\n      swap1\n      log1\n        /* \"lottery/Lottery.sol\":2403:2783  function fulfillRandomWords(uint256 _requestId, uint256[] memory _randomWords) internal override {... */\n      pop\n      pop\n      jump\t// out\n        /* \"@chainlink/contracts/src/v0.8/shared/access/ConfirmedOwnerWithProposal.sol\":1715:1826  function _validateOwnership() internal view {... */\n    tag_129:\n        /* \"@chainlink/contracts/src/v0.8/shared/access/ConfirmedOwnerWithProposal.sol\":1787:1794  s_owner */\n      0x00\n      dup1\n      sload\n      swap1\n      0x0100\n      exp\n      swap1\n      div\n      0xffffffffffffffffffffffffffffffffffffffff\n      and\n        /* \"@chainlink/contracts/src/v0.8/shared/access/ConfirmedOwnerWithProposal.sol\":1773:1794  msg.sender == s_owner */\n      0xffffffffffffffffffffffffffffffffffffffff\n      and\n        /* \"@chainlink/contracts/src/v0.8/shared/access/ConfirmedOwnerWithProposal.sol\":1773:1783  msg.sender */\n      caller\n        /* \"@chainlink/contracts/src/v0.8/shared/access/ConfirmedOwnerWithProposal.sol\":1773:1794  msg.sender == s_owner */\n      0xffffffffffffffffffffffffffffffffffffffff\n      and\n      eq\n        /* \"@chainlink/contracts/src/v0.8/shared/access/ConfirmedOwnerWithProposal.sol\":1765:1821  require(msg.sender == s_owner, \"Only callable by owner\") */\n      tag_177\n      jumpi\n      mload(0x40)\n      0x08c379a000000000000000000000000000000000000000000000000000000000\n      dup2\n      mstore\n      0x04\n      add\n      tag_178\n      swap1\n      tag_179\n      jump\t// in\n    tag_178:\n      mload(0x40)\n      dup1\n      swap2\n      sub\n      swap1\n      revert\n    tag_177:\n        /* \"@chainlink/contracts/src/v0.8/shared/access/ConfirmedOwnerWithProposal.sol\":1715:1826  function _validateOwnership() internal view {... */\n      jump\t// out\n        /* \"@chainlink/contracts/src/v0.8/shared/access/ConfirmedOwnerWithProposal.sol\":1482:1670  function _transferOwnership(address to) private {... */\n    tag_166:\n        /* \"@chainlink/contracts/src/v0.8/shared/access/ConfirmedOwnerWithProposal.sol\":1550:1560  msg.sender */\n      caller\n        /* \"@chainlink/contracts/src/v0.8/shared/access/ConfirmedOwnerWithProposal.sol\":1544:1560  to != msg.sender */\n      0xffffffffffffffffffffffffffffffffffffffff\n      and\n        /* \"@chainlink/contracts/src/v0.8/shared/access/ConfirmedOwnerWithProposal.sol\":1544:1546  to */\n      dup2\n        /* \"@chainlink/contracts/src/v0.8/shared/access/ConfirmedOwnerWithProposal.sol\":1544:1560  to != msg.sender */\n      0xffffffffffffffffffffffffffffffffffffffff\n      and\n      sub\n        /* \"@chainlink/contracts/src/v0.8/shared/access/ConfirmedOwnerWithProposal.sol\":1536:1588  require(to != msg.sender, \"Cannot transfer to self\") */\n      tag_181\n      jumpi\n      mload(0x40)\n      0x08c379a000000000000000000000000000000000000000000000000000000000\n      dup2\n      mstore\n      0x04\n      add\n      tag_182\n      swap1\n      tag_183\n      jump\t// in\n    tag_182:\n      mload(0x40)\n      dup1\n      swap2\n      sub\n      swap1\n      revert\n    tag_181:\n        /* \"@chainlink/contracts/src/v0.8/shared/access/ConfirmedOwnerWithProposal.sol\":1612:1614  to */\n      dup1\n        /* \"@chainlink/contracts/src/v0.8/shared/access/ConfirmedOwnerWithProposal.sol\":1595:1609  s_pendingOwner */\n      0x01\n      0x00\n        /* \"@chainlink/contracts/src/v0.8/shared/access/ConfirmedOwnerWithProposal.sol\":1595:1614  s_pendingOwner = to */\n      0x0100\n      exp\n      dup2\n      sload\n      dup2\n      0xffffffffffffffffffffffffffffffffffffffff\n      mul\n      not\n      and\n      swap1\n      dup4\n      0xffffffffffffffffffffffffffffffffffffffff\n      and\n      mul\n      or\n      swap1\n      sstore\n      pop\n        /* \"@chainlink/contracts/src/v0.8/shared/access/ConfirmedOwnerWithProposal.sol\":1662:1664  to */\n      dup1\n        /* \"@chainlink/contracts/src/v0.8/shared/access/ConfirmedOwnerWithProposal.sol\":1626:1665  OwnershipTransferRequested(s_owner, to) */\n      0xffffffffffffffffffffffffffffffffffffffff\n      and\n        /* \"@chainlink/contracts/src/v0.8/shared/access/ConfirmedOwnerWithProposal.sol\":1653:1660  s_owner */\n      0x00\n      dup1\n      sload\n      swap1\n      0x0100\n      exp\n      swap1\n      div\n      0xffffffffffffffffffffffffffffffffffffffff\n      and\n        /* \"@chainlink/contracts/src/v0.8/shared/access/ConfirmedOwnerWithProposal.sol\":1626:1665  OwnershipTransferRequested(s_owner, to) */\n      0xffffffffffffffffffffffffffffffffffffffff\n      and\n      0xed8889f560326eb138920d842192f0eb3dd22b4f139c87a2c57538e05bae1278\n      mload(0x40)\n      mload(0x40)\n      dup1\n      swap2\n      sub\n      swap1\n      log3\n        /* \"@chainlink/contracts/src/v0.8/shared/access/ConfirmedOwnerWithProposal.sol\":1482:1670  function _transferOwnership(address to) private {... */\n      pop\n      jump\t// out\n        /* \"lottery/Lottery.sol\":2791:3013  function selectWinner(uint256[] memory _randomWords) internal {... */\n    tag_173:\n        /* \"lottery/Lottery.sol\":2864:2877  uint256 index */\n      0x00\n        /* \"lottery/Lottery.sol\":2898:2910  participants */\n      0x03\n        /* \"lottery/Lottery.sol\":2898:2917  participants.length */\n      dup1\n      sload\n      swap1\n      pop\n        /* \"lottery/Lottery.sol\":2880:2892  _randomWords */\n      dup3\n        /* \"lottery/Lottery.sol\":2893:2894  0 */\n      0x00\n        /* \"lottery/Lottery.sol\":2880:2895  _randomWords[0] */\n      dup2\n      mload\n      dup2\n      lt\n      tag_185\n      jumpi\n      tag_186\n      tag_187\n      jump\t// in\n    tag_186:\n    tag_185:\n      0x20\n      mul\n      0x20\n      add\n      add\n      mload\n        /* \"lottery/Lottery.sol\":2880:2917  _randomWords[0] % participants.length */\n      tag_188\n      swap2\n      swap1\n      tag_189\n      jump\t// in\n    tag_188:\n        /* \"lottery/Lottery.sol\":2864:2917  uint256 index = _randomWords[0] % participants.length */\n      swap1\n      pop\n        /* \"lottery/Lottery.sol\":2937:2949  participants */\n      0x03\n        /* \"lottery/Lottery.sol\":2950:2955  index */\n      dup2\n        /* \"lottery/Lottery.sol\":2937:2956  participants[index] */\n      dup2\n      sload\n      dup2\n      lt\n      tag_190\n      jumpi\n      tag_191\n      tag_187\n      jump\t// in\n    tag_191:\n    tag_190:\n      swap1\n      0x00\n      mstore\n      keccak256(0x00, 0x20)\n      add\n      0x00\n      swap1\n      sload\n      swap1\n      0x0100\n      exp\n      swap1\n      div\n      0xffffffffffffffffffffffffffffffffffffffff\n      and\n        /* \"lottery/Lottery.sol\":2928:2934  winner */\n      0x04\n      0x00\n        /* \"lottery/Lottery.sol\":2928:2956  winner = participants[index] */\n      0x0100\n      exp\n      dup2\n      sload\n      dup2\n      0xffffffffffffffffffffffffffffffffffffffff\n      mul\n      not\n      and\n      swap1\n      dup4\n      0xffffffffffffffffffffffffffffffffffffffff\n      and\n      mul\n      or\n      swap1\n      sstore\n      pop\n        /* \"lottery/Lottery.sol\":2967:2973  winner */\n      0x04\n      0x00\n      swap1\n      sload\n      swap1\n      0x0100\n      exp\n      swap1\n      div\n      0xffffffffffffffffffffffffffffffffffffffff\n      and\n        /* \"lottery/Lottery.sol\":2967:2982  winner.transfer */\n      0xffffffffffffffffffffffffffffffffffffffff\n      and\n        /* \"lottery/Lottery.sol\":2967:3005  winner.transfer(address(this).balance) */\n      0x08fc\n        /* \"lottery/Lottery.sol\":2983:3004  address(this).balance */\n      selfbalance\n        /* \"lottery/Lottery.sol\":2967:3005  winner.transfer(address(this).balance) */\n      swap1\n      dup2\n      iszero\n      mul\n      swap1\n      mload(0x40)\n      0x00\n      mload(0x40)\n      dup1\n      dup4\n      sub\n      dup2\n      dup6\n      dup9\n      dup9\n      call\n      swap4\n      pop\n      pop\n      pop\n      pop\n      iszero\n      dup1\n      iszero\n      tag_194\n      jumpi\n      returndatasize\n      0x00\n      dup1\n      returndatacopy\n      revert(0x00, returndatasize)\n    tag_194:\n      pop\n        /* \"lottery/Lottery.sol\":2853:3013  {... */\n      pop\n        /* \"lottery/Lottery.sol\":2791:3013  function selectWinner(uint256[] memory _randomWords) internal {... */\n      pop\n      jump\t// out\n    tag_142:\n      dup3\n      dup1\n      sload\n      dup3\n      dup3\n      sstore\n      swap1\n      0x00\n      mstore\n      keccak256(0x00, 0x20)\n      swap1\n      dup2\n      add\n      swap3\n      dup3\n      iszero\n      tag_195\n      jumpi\n      swap2\n      0x20\n      mul\n      dup3\n      add\n    tag_196:\n      dup3\n      dup2\n      gt\n      iszero\n      tag_197\n      jumpi\n      dup3\n      mload\n      dup3\n      sstore\n      swap2\n      0x20\n      add\n      swap2\n      swap1\n      0x01\n      add\n      swap1\n      jump(tag_196)\n    tag_197:\n    tag_195:\n      pop\n      swap1\n      pop\n      tag_198\n      swap2\n      swap1\n      tag_199\n      jump\t// in\n    tag_198:\n      pop\n      swap1\n      jump\t// out\n    tag_161:\n      dup3\n      dup1\n      sload\n      dup3\n      dup3\n      sstore\n      swap1\n      0x00\n      mstore\n      keccak256(0x00, 0x20)\n      swap1\n      dup2\n      add\n      swap3\n      dup3\n      iszero\n      tag_200\n      jumpi\n      swap2\n      0x20\n      mul\n      dup3\n      add\n    tag_201:\n      dup3\n      dup2\n      gt\n      iszero\n      tag_202\n      jumpi\n      dup3\n      mload\n      dup3\n      exp(0x0100, 0x00)\n      dup2\n      sload\n      dup2\n      0xffffffffffffffffffffffffffffffffffffffff\n      mul\n      not\n      and\n      swap1\n      dup4\n      0xffffffffffffffffffffffffffffffffffffffff\n      and\n      mul\n      or\n      swap1\n      sstore\n      pop\n      swap2\n      0x20\n      add\n      swap2\n      swap1\n      0x01\n      add\n      swap1\n      jump(tag_201)\n    tag_202:\n    tag_200:\n      pop\n      swap1\n      pop\n      tag_203\n      swap2\n      swap1\n      tag_199\n      jump\t// in\n    tag_203:\n      pop\n      swap1\n      jump\t// out\n    tag_199:\n    tag_204:\n      dup1\n      dup3\n      gt\n      iszero\n      tag_205\n      jumpi\n      0x00\n      dup2\n      0x00\n      swap1\n      sstore\n      pop\n      0x01\n      add\n      jump(tag_204)\n    tag_205:\n      pop\n      swap1\n      jump\t// out\n        /* \"#utility.yul\":7:176   */\n    tag_206:\n        /* \"#utility.yul\":91:102   */\n      0x00\n        /* \"#utility.yul\":125:131   */\n      dup3\n        /* \"#utility.yul\":120:123   */\n      dup3\n        /* \"#utility.yul\":113:132   */\n      mstore\n        /* \"#utility.yul\":165:169   */\n      0x20\n        /* \"#utility.yul\":160:163   */\n      dup3\n        /* \"#utility.yul\":156:170   */\n      add\n        /* \"#utility.yul\":141:170   */\n      swap1\n      pop\n        /* \"#utility.yul\":7:176   */\n      swap3\n      swap2\n      pop\n      pop\n      jump\t// out\n        /* \"#utility.yul\":182:410   */\n    tag_207:\n        /* \"#utility.yul\":322:356   */\n      0x436f6e747269627574652065786163746c79203120657468657220746f207061\n        /* \"#utility.yul\":318:319   */\n      0x00\n        /* \"#utility.yul\":310:316   */\n      dup3\n        /* \"#utility.yul\":306:320   */\n      add\n        /* \"#utility.yul\":299:357   */\n      mstore\n        /* \"#utility.yul\":391:402   */\n      0x7274696369706174650000000000000000000000000000000000000000000000\n        /* \"#utility.yul\":386:388   */\n      0x20\n        /* \"#utility.yul\":378:384   */\n      dup3\n        /* \"#utility.yul\":374:389   */\n      add\n        /* \"#utility.yul\":367:403   */\n      mstore\n        /* \"#utility.yul\":182:410   */\n      pop\n      jump\t// out\n        /* \"#utility.yul\":416:782   */\n    tag_208:\n        /* \"#utility.yul\":558:561   */\n      0x00\n        /* \"#utility.yul\":579:646   */\n      tag_262\n        /* \"#utility.yul\":643:645   */\n      0x29\n        /* \"#utility.yul\":638:641   */\n      dup4\n        /* \"#utility.yul\":579:646   */\n      tag_206\n      jump\t// in\n    tag_262:\n        /* \"#utility.yul\":572:646   */\n      swap2\n      pop\n        /* \"#utility.yul\":655:748   */\n      tag_263\n        /* \"#utility.yul\":744:747   */\n      dup3\n        /* \"#utility.yul\":655:748   */\n      tag_207\n      jump\t// in\n    tag_263:\n        /* \"#utility.yul\":773:775   */\n      0x40\n        /* \"#utility.yul\":768:771   */\n      dup3\n        /* \"#utility.yul\":764:776   */\n      add\n        /* \"#utility.yul\":757:776   */\n      swap1\n      pop\n        /* \"#utility.yul\":416:782   */\n      swap2\n      swap1\n      pop\n      jump\t// out\n        /* \"#utility.yul\":788:1207   */\n    tag_29:\n        /* \"#utility.yul\":954:958   */\n      0x00\n        /* \"#utility.yul\":992:994   */\n      0x20\n        /* \"#utility.yul\":981:990   */\n      dup3\n        /* \"#utility.yul\":977:995   */\n      add\n        /* \"#utility.yul\":969:995   */\n      swap1\n      pop\n        /* \"#utility.yul\":1041:1050   */\n      dup2\n        /* \"#utility.yul\":1035:1039   */\n      dup2\n        /* \"#utility.yul\":1031:1051   */\n      sub\n        /* \"#utility.yul\":1027:1028   */\n      0x00\n        /* \"#utility.yul\":1016:1025   */\n      dup4\n        /* \"#utility.yul\":1012:1029   */\n      add\n        /* \"#utility.yul\":1005:1052   */\n      mstore\n        /* \"#utility.yul\":1069:1200   */\n      tag_265\n        /* \"#utility.yul\":1195:1199   */\n      dup2\n        /* \"#utility.yul\":1069:1200   */\n      tag_208\n      jump\t// in\n    tag_265:\n        /* \"#utility.yul\":1061:1200   */\n      swap1\n      pop\n        /* \"#utility.yul\":788:1207   */\n      swap2\n      swap1\n      pop\n      jump\t// out\n        /* \"#utility.yul\":1213:1290   */\n    tag_209:\n        /* \"#utility.yul\":1250:1257   */\n      0x00\n        /* \"#utility.yul\":1279:1284   */\n      dup2\n        /* \"#utility.yul\":1268:1284   */\n      swap1\n      pop\n        /* \"#utility.yul\":1213:1290   */\n      swap2\n      swap1\n      pop\n      jump\t// out\n        /* \"#utility.yul\":1296:1414   */\n    tag_210:\n        /* \"#utility.yul\":1383:1407   */\n      tag_268\n        /* \"#utility.yul\":1401:1406   */\n      dup2\n        /* \"#utility.yul\":1383:1407   */\n      tag_209\n      jump\t// in\n    tag_268:\n        /* \"#utility.yul\":1378:1381   */\n      dup3\n        /* \"#utility.yul\":1371:1408   */\n      mstore\n        /* \"#utility.yul\":1296:1414   */\n      pop\n      pop\n      jump\t// out\n        /* \"#utility.yul\":1420:1642   */\n    tag_35:\n        /* \"#utility.yul\":1513:1517   */\n      0x00\n        /* \"#utility.yul\":1551:1553   */\n      0x20\n        /* \"#utility.yul\":1540:1549   */\n      dup3\n        /* \"#utility.yul\":1536:1554   */\n      add\n        /* \"#utility.yul\":1528:1554   */\n      swap1\n      pop\n        /* \"#utility.yul\":1564:1635   */\n      tag_270\n        /* \"#utility.yul\":1632:1633   */\n      0x00\n        /* \"#utility.yul\":1621:1630   */\n      dup4\n        /* \"#utility.yul\":1617:1634   */\n      add\n        /* \"#utility.yul\":1608:1614   */\n      dup5\n        /* \"#utility.yul\":1564:1635   */\n      tag_210\n      jump\t// in\n    tag_270:\n        /* \"#utility.yul\":1420:1642   */\n      swap3\n      swap2\n      pop\n      pop\n      jump\t// out\n        /* \"#utility.yul\":1648:1723   */\n    tag_211:\n        /* \"#utility.yul\":1681:1687   */\n      0x00\n        /* \"#utility.yul\":1714:1716   */\n      0x40\n        /* \"#utility.yul\":1708:1717   */\n      mload\n        /* \"#utility.yul\":1698:1717   */\n      swap1\n      pop\n        /* \"#utility.yul\":1648:1723   */\n      swap1\n      jump\t// out\n        /* \"#utility.yul\":1729:1846   */\n    tag_212:\n        /* \"#utility.yul\":1838:1839   */\n      0x00\n        /* \"#utility.yul\":1835:1836   */\n      dup1\n        /* \"#utility.yul\":1828:1840   */\n      revert\n        /* \"#utility.yul\":1852:1969   */\n    tag_213:\n        /* \"#utility.yul\":1961:1962   */\n      0x00\n        /* \"#utility.yul\":1958:1959   */\n      dup1\n        /* \"#utility.yul\":1951:1963   */\n      revert\n        /* \"#utility.yul\":1975:2052   */\n    tag_214:\n        /* \"#utility.yul\":2012:2019   */\n      0x00\n        /* \"#utility.yul\":2041:2046   */\n      dup2\n        /* \"#utility.yul\":2030:2046   */\n      swap1\n      pop\n        /* \"#utility.yul\":1975:2052   */\n      swap2\n      swap1\n      pop\n      jump\t// out\n        /* \"#utility.yul\":2058:2180   */\n    tag_215:\n        /* \"#utility.yul\":2131:2155   */\n      tag_276\n        /* \"#utility.yul\":2149:2154   */\n      dup2\n        /* \"#utility.yul\":2131:2155   */\n      tag_214\n      jump\t// in\n    tag_276:\n        /* \"#utility.yul\":2124:2129   */\n      dup2\n        /* \"#utility.yul\":2121:2156   */\n      eq\n        /* \"#utility.yul\":2111:2174   */\n      tag_277\n      jumpi\n        /* \"#utility.yul\":2170:2171   */\n      0x00\n        /* \"#utility.yul\":2167:2168   */\n      dup1\n        /* \"#utility.yul\":2160:2172   */\n      revert\n        /* \"#utility.yul\":2111:2174   */\n    tag_277:\n        /* \"#utility.yul\":2058:2180   */\n      pop\n      jump\t// out\n        /* \"#utility.yul\":2186:2325   */\n    tag_216:\n        /* \"#utility.yul\":2232:2237   */\n      0x00\n        /* \"#utility.yul\":2270:2276   */\n      dup2\n        /* \"#utility.yul\":2257:2277   */\n      calldataload\n        /* \"#utility.yul\":2248:2277   */\n      swap1\n      pop\n        /* \"#utility.yul\":2286:2319   */\n      tag_279\n        /* \"#utility.yul\":2313:2318   */\n      dup2\n        /* \"#utility.yul\":2286:2319   */\n      tag_215\n      jump\t// in\n    tag_279:\n        /* \"#utility.yul\":2186:2325   */\n      swap3\n      swap2\n      pop\n      pop\n      jump\t// out\n        /* \"#utility.yul\":2331:2448   */\n    tag_217:\n        /* \"#utility.yul\":2440:2441   */\n      0x00\n        /* \"#utility.yul\":2437:2438   */\n      dup1\n        /* \"#utility.yul\":2430:2442   */\n      revert\n        /* \"#utility.yul\":2454:2556   */\n    tag_218:\n        /* \"#utility.yul\":2495:2501   */\n      0x00\n        /* \"#utility.yul\":2546:2548   */\n      0x1f\n        /* \"#utility.yul\":2542:2549   */\n      not\n        /* \"#utility.yul\":2537:2539   */\n      0x1f\n        /* \"#utility.yul\":2530:2535   */\n      dup4\n        /* \"#utility.yul\":2526:2540   */\n      add\n        /* \"#utility.yul\":2522:2550   */\n      and\n        /* \"#utility.yul\":2512:2550   */\n      swap1\n      pop\n        /* \"#utility.yul\":2454:2556   */\n      swap2\n      swap1\n      pop\n      jump\t// out\n        /* \"#utility.yul\":2562:2742   */\n    tag_139:\n        /* \"#utility.yul\":2610:2687   */\n      0x4e487b7100000000000000000000000000000000000000000000000000000000\n        /* \"#utility.yul\":2607:2608   */\n      0x00\n        /* \"#utility.yul\":2600:2688   */\n      mstore\n        /* \"#utility.yul\":2707:2711   */\n      0x41\n        /* \"#utility.yul\":2704:2705   */\n      0x04\n        /* \"#utility.yul\":2697:2712   */\n      mstore\n        /* \"#utility.yul\":2731:2735   */\n      0x24\n        /* \"#utility.yul\":2728:2729   */\n      0x00\n        /* \"#utility.yul\":2721:2736   */\n      revert\n        /* \"#utility.yul\":2748:3029   */\n    tag_219:\n        /* \"#utility.yul\":2831:2858   */\n      tag_284\n        /* \"#utility.yul\":2853:2857   */\n      dup3\n        /* \"#utility.yul\":2831:2858   */\n      tag_218\n      jump\t// in\n    tag_284:\n        /* \"#utility.yul\":2823:2829   */\n      dup2\n        /* \"#utility.yul\":2819:2859   */\n      add\n        /* \"#utility.yul\":2961:2967   */\n      dup2\n        /* \"#utility.yul\":2949:2959   */\n      dup2\n        /* \"#utility.yul\":2946:2968   */\n      lt\n        /* \"#utility.yul\":2925:2943   */\n      0xffffffffffffffff\n        /* \"#utility.yul\":2913:2923   */\n      dup3\n        /* \"#utility.yul\":2910:2944   */\n      gt\n        /* \"#utility.yul\":2907:2969   */\n      or\n        /* \"#utility.yul\":2904:2992   */\n      iszero\n      tag_285\n      jumpi\n        /* \"#utility.yul\":2972:2990   */\n      tag_286\n      tag_139\n      jump\t// in\n    tag_286:\n        /* \"#utility.yul\":2904:2992   */\n    tag_285:\n        /* \"#utility.yul\":3012:3022   */\n      dup1\n        /* \"#utility.yul\":3008:3010   */\n      0x40\n        /* \"#utility.yul\":3001:3023   */\n      mstore\n        /* \"#utility.yul\":2791:3029   */\n      pop\n        /* \"#utility.yul\":2748:3029   */\n      pop\n      pop\n      jump\t// out\n        /* \"#utility.yul\":3035:3164   */\n    tag_220:\n        /* \"#utility.yul\":3069:3075   */\n      0x00\n        /* \"#utility.yul\":3096:3116   */\n      tag_288\n      tag_211\n      jump\t// in\n    tag_288:\n        /* \"#utility.yul\":3086:3116   */\n      swap1\n      pop\n        /* \"#utility.yul\":3125:3158   */\n      tag_289\n        /* \"#utility.yul\":3153:3157   */\n      dup3\n        /* \"#utility.yul\":3145:3151   */\n      dup3\n        /* \"#utility.yul\":3125:3158   */\n      tag_219\n      jump\t// in\n    tag_289:\n        /* \"#utility.yul\":3035:3164   */\n      swap2\n      swap1\n      pop\n      jump\t// out\n        /* \"#utility.yul\":3170:3481   */\n    tag_221:\n        /* \"#utility.yul\":3247:3251   */\n      0x00\n        /* \"#utility.yul\":3337:3355   */\n      0xffffffffffffffff\n        /* \"#utility.yul\":3329:3335   */\n      dup3\n        /* \"#utility.yul\":3326:3356   */\n      gt\n        /* \"#utility.yul\":3323:3379   */\n      iszero\n      tag_291\n      jumpi\n        /* \"#utility.yul\":3359:3377   */\n      tag_292\n      tag_139\n      jump\t// in\n    tag_292:\n        /* \"#utility.yul\":3323:3379   */\n    tag_291:\n        /* \"#utility.yul\":3409:3413   */\n      0x20\n        /* \"#utility.yul\":3401:3407   */\n      dup3\n        /* \"#utility.yul\":3397:3414   */\n      mul\n        /* \"#utility.yul\":3389:3414   */\n      swap1\n      pop\n        /* \"#utility.yul\":3469:3473   */\n      0x20\n        /* \"#utility.yul\":3463:3467   */\n      dup2\n        /* \"#utility.yul\":3459:3474   */\n      add\n        /* \"#utility.yul\":3451:3474   */\n      swap1\n      pop\n        /* \"#utility.yul\":3170:3481   */\n      swap2\n      swap1\n      pop\n      jump\t// out\n        /* \"#utility.yul\":3487:3604   */\n    tag_222:\n        /* \"#utility.yul\":3596:3597   */\n      0x00\n        /* \"#utility.yul\":3593:3594   */\n      dup1\n        /* \"#utility.yul\":3586:3598   */\n      revert\n        /* \"#utility.yul\":3627:4337   */\n    tag_223:\n        /* \"#utility.yul\":3723:3728   */\n      0x00\n        /* \"#utility.yul\":3748:3829   */\n      tag_295\n        /* \"#utility.yul\":3764:3828   */\n      tag_296\n        /* \"#utility.yul\":3821:3827   */\n      dup5\n        /* \"#utility.yul\":3764:3828   */\n      tag_221\n      jump\t// in\n    tag_296:\n        /* \"#utility.yul\":3748:3829   */\n      tag_220\n      jump\t// in\n    tag_295:\n        /* \"#utility.yul\":3739:3829   */\n      swap1\n      pop\n        /* \"#utility.yul\":3849:3854   */\n      dup1\n        /* \"#utility.yul\":3878:3884   */\n      dup4\n        /* \"#utility.yul\":3871:3876   */\n      dup3\n        /* \"#utility.yul\":3864:3885   */\n      mstore\n        /* \"#utility.yul\":3912:3916   */\n      0x20\n        /* \"#utility.yul\":3905:3910   */\n      dup3\n        /* \"#utility.yul\":3901:3917   */\n      add\n        /* \"#utility.yul\":3894:3917   */\n      swap1\n      pop\n        /* \"#utility.yul\":3965:3969   */\n      0x20\n        /* \"#utility.yul\":3957:3963   */\n      dup5\n        /* \"#utility.yul\":3953:3970   */\n      mul\n        /* \"#utility.yul\":3945:3951   */\n      dup4\n        /* \"#utility.yul\":3941:3971   */\n      add\n        /* \"#utility.yul\":3994:3997   */\n      dup6\n        /* \"#utility.yul\":3986:3992   */\n      dup2\n        /* \"#utility.yul\":3983:3998   */\n      gt\n        /* \"#utility.yul\":3980:4102   */\n      iszero\n      tag_297\n      jumpi\n        /* \"#utility.yul\":4013:4092   */\n      tag_298\n      tag_222\n      jump\t// in\n    tag_298:\n        /* \"#utility.yul\":3980:4102   */\n    tag_297:\n        /* \"#utility.yul\":4128:4134   */\n      dup4\n        /* \"#utility.yul\":4111:4331   */\n    tag_299:\n        /* \"#utility.yul\":4145:4151   */\n      dup2\n        /* \"#utility.yul\":4140:4143   */\n      dup2\n        /* \"#utility.yul\":4137:4152   */\n      lt\n        /* \"#utility.yul\":4111:4331   */\n      iszero\n      tag_301\n      jumpi\n        /* \"#utility.yul\":4220:4223   */\n      dup1\n        /* \"#utility.yul\":4249:4286   */\n      tag_302\n        /* \"#utility.yul\":4282:4285   */\n      dup9\n        /* \"#utility.yul\":4270:4280   */\n      dup3\n        /* \"#utility.yul\":4249:4286   */\n      tag_216\n      jump\t// in\n    tag_302:\n        /* \"#utility.yul\":4244:4247   */\n      dup5\n        /* \"#utility.yul\":4237:4287   */\n      mstore\n        /* \"#utility.yul\":4316:4320   */\n      0x20\n        /* \"#utility.yul\":4311:4314   */\n      dup5\n        /* \"#utility.yul\":4307:4321   */\n      add\n        /* \"#utility.yul\":4300:4321   */\n      swap4\n      pop\n        /* \"#utility.yul\":4187:4331   */\n      pop\n        /* \"#utility.yul\":4171:4175   */\n      0x20\n        /* \"#utility.yul\":4166:4169   */\n      dup2\n        /* \"#utility.yul\":4162:4176   */\n      add\n        /* \"#utility.yul\":4155:4176   */\n      swap1\n      pop\n        /* \"#utility.yul\":4111:4331   */\n      jump(tag_299)\n    tag_301:\n        /* \"#utility.yul\":4115:4136   */\n      pop\n        /* \"#utility.yul\":3729:4337   */\n      pop\n      pop\n        /* \"#utility.yul\":3627:4337   */\n      swap4\n      swap3\n      pop\n      pop\n      pop\n      jump\t// out\n        /* \"#utility.yul\":4360:4730   */\n    tag_224:\n        /* \"#utility.yul\":4431:4436   */\n      0x00\n        /* \"#utility.yul\":4480:4483   */\n      dup3\n        /* \"#utility.yul\":4473:4477   */\n      0x1f\n        /* \"#utility.yul\":4465:4471   */\n      dup4\n        /* \"#utility.yul\":4461:4478   */\n      add\n        /* \"#utility.yul\":4457:4484   */\n      slt\n        /* \"#utility.yul\":4447:4569   */\n      tag_304\n      jumpi\n        /* \"#utility.yul\":4488:4567   */\n      tag_305\n      tag_217\n      jump\t// in\n    tag_305:\n        /* \"#utility.yul\":4447:4569   */\n    tag_304:\n        /* \"#utility.yul\":4605:4611   */\n      dup2\n        /* \"#utility.yul\":4592:4612   */\n      calldataload\n        /* \"#utility.yul\":4630:4724   */\n      tag_306\n        /* \"#utility.yul\":4720:4723   */\n      dup5\n        /* \"#utility.yul\":4712:4718   */\n      dup3\n        /* \"#utility.yul\":4705:4709   */\n      0x20\n        /* \"#utility.yul\":4697:4703   */\n      dup7\n        /* \"#utility.yul\":4693:4710   */\n      add\n        /* \"#utility.yul\":4630:4724   */\n      tag_223\n      jump\t// in\n    tag_306:\n        /* \"#utility.yul\":4621:4724   */\n      swap2\n      pop\n        /* \"#utility.yul\":4437:4730   */\n      pop\n        /* \"#utility.yul\":4360:4730   */\n      swap3\n      swap2\n      pop\n      pop\n      jump\t// out\n        /* \"#utility.yul\":4736:5420   */\n    tag_39:\n        /* \"#utility.yul\":4829:4835   */\n      0x00\n        /* \"#utility.yul\":4837:4843   */\n      dup1\n        /* \"#utility.yul\":4886:4888   */\n      0x40\n        /* \"#utility.yul\":4874:4883   */\n      dup4\n        /* \"#utility.yul\":4865:4872   */\n      dup6\n        /* \"#utility.yul\":4861:4884   */\n      sub\n        /* \"#utility.yul\":4857:4889   */\n      slt\n        /* \"#utility.yul\":4854:4973   */\n      iszero\n      tag_308\n      jumpi\n        /* \"#utility.yul\":4892:4971   */\n      tag_309\n      tag_212\n      jump\t// in\n    tag_309:\n        /* \"#utility.yul\":4854:4973   */\n    tag_308:\n        /* \"#utility.yul\":5012:5013   */\n      0x00\n        /* \"#utility.yul\":5037:5090   */\n      tag_310\n        /* \"#utility.yul\":5082:5089   */\n      dup6\n        /* \"#utility.yul\":5073:5079   */\n      dup3\n        /* \"#utility.yul\":5062:5071   */\n      dup7\n        /* \"#utility.yul\":5058:5080   */\n      add\n        /* \"#utility.yul\":5037:5090   */\n      tag_216\n      jump\t// in\n    tag_310:\n        /* \"#utility.yul\":5027:5090   */\n      swap3\n      pop\n        /* \"#utility.yul\":4983:5100   */\n      pop\n        /* \"#utility.yul\":5167:5169   */\n      0x20\n        /* \"#utility.yul\":5156:5165   */\n      dup4\n        /* \"#utility.yul\":5152:5170   */\n      add\n        /* \"#utility.yul\":5139:5171   */\n      calldataload\n        /* \"#utility.yul\":5198:5216   */\n      0xffffffffffffffff\n        /* \"#utility.yul\":5190:5196   */\n      dup2\n        /* \"#utility.yul\":5187:5217   */\n      gt\n        /* \"#utility.yul\":5184:5301   */\n      iszero\n      tag_311\n      jumpi\n        /* \"#utility.yul\":5220:5299   */\n      tag_312\n      tag_213\n      jump\t// in\n    tag_312:\n        /* \"#utility.yul\":5184:5301   */\n    tag_311:\n        /* \"#utility.yul\":5325:5403   */\n      tag_313\n        /* \"#utility.yul\":5395:5402   */\n      dup6\n        /* \"#utility.yul\":5386:5392   */\n      dup3\n        /* \"#utility.yul\":5375:5384   */\n      dup7\n        /* \"#utility.yul\":5371:5393   */\n      add\n        /* \"#utility.yul\":5325:5403   */\n      tag_224\n      jump\t// in\n    tag_313:\n        /* \"#utility.yul\":5315:5403   */\n      swap2\n      pop\n        /* \"#utility.yul\":5110:5413   */\n      pop\n        /* \"#utility.yul\":4736:5420   */\n      swap3\n      pop\n      swap3\n      swap1\n      pop\n      jump\t// out\n        /* \"#utility.yul\":5426:5519   */\n    tag_225:\n        /* \"#utility.yul\":5462:5469   */\n      0x00\n        /* \"#utility.yul\":5502:5512   */\n      0xffffffff\n        /* \"#utility.yul\":5495:5500   */\n      dup3\n        /* \"#utility.yul\":5491:5513   */\n      and\n        /* \"#utility.yul\":5480:5513   */\n      swap1\n      pop\n        /* \"#utility.yul\":5426:5519   */\n      swap2\n      swap1\n      pop\n      jump\t// out\n        /* \"#utility.yul\":5525:5640   */\n    tag_226:\n        /* \"#utility.yul\":5610:5633   */\n      tag_316\n        /* \"#utility.yul\":5627:5632   */\n      dup2\n        /* \"#utility.yul\":5610:5633   */\n      tag_225\n      jump\t// in\n    tag_316:\n        /* \"#utility.yul\":5605:5608   */\n      dup3\n        /* \"#utility.yul\":5598:5634   */\n      mstore\n        /* \"#utility.yul\":5525:5640   */\n      pop\n      pop\n      jump\t// out\n        /* \"#utility.yul\":5646:5864   */\n    tag_45:\n        /* \"#utility.yul\":5737:5741   */\n      0x00\n        /* \"#utility.yul\":5775:5777   */\n      0x20\n        /* \"#utility.yul\":5764:5773   */\n      dup3\n        /* \"#utility.yul\":5760:5778   */\n      add\n        /* \"#utility.yul\":5752:5778   */\n      swap1\n      pop\n        /* \"#utility.yul\":5788:5857   */\n      tag_318\n        /* \"#utility.yul\":5854:5855   */\n      0x00\n        /* \"#utility.yul\":5843:5852   */\n      dup4\n        /* \"#utility.yul\":5839:5856   */\n      add\n        /* \"#utility.yul\":5830:5836   */\n      dup5\n        /* \"#utility.yul\":5788:5857   */\n      tag_226\n      jump\t// in\n    tag_318:\n        /* \"#utility.yul\":5646:5864   */\n      swap3\n      swap2\n      pop\n      pop\n      jump\t// out\n        /* \"#utility.yul\":5870:6199   */\n    tag_49:\n        /* \"#utility.yul\":5929:5935   */\n      0x00\n        /* \"#utility.yul\":5978:5980   */\n      0x20\n        /* \"#utility.yul\":5966:5975   */\n      dup3\n        /* \"#utility.yul\":5957:5964   */\n      dup5\n        /* \"#utility.yul\":5953:5976   */\n      sub\n        /* \"#utility.yul\":5949:5981   */\n      slt\n        /* \"#utility.yul\":5946:6065   */\n      iszero\n      tag_320\n      jumpi\n        /* \"#utility.yul\":5984:6063   */\n      tag_321\n      tag_212\n      jump\t// in\n    tag_321:\n        /* \"#utility.yul\":5946:6065   */\n    tag_320:\n        /* \"#utility.yul\":6104:6105   */\n      0x00\n        /* \"#utility.yul\":6129:6182   */\n      tag_322\n        /* \"#utility.yul\":6174:6181   */\n      dup5\n        /* \"#utility.yul\":6165:6171   */\n      dup3\n        /* \"#utility.yul\":6154:6163   */\n      dup6\n        /* \"#utility.yul\":6150:6172   */\n      add\n        /* \"#utility.yul\":6129:6182   */\n      tag_216\n      jump\t// in\n    tag_322:\n        /* \"#utility.yul\":6119:6182   */\n      swap2\n      pop\n        /* \"#utility.yul\":6075:6192   */\n      pop\n        /* \"#utility.yul\":5870:6199   */\n      swap3\n      swap2\n      pop\n      pop\n      jump\t// out\n        /* \"#utility.yul\":6205:6331   */\n    tag_227:\n        /* \"#utility.yul\":6242:6249   */\n      0x00\n        /* \"#utility.yul\":6282:6324   */\n      0xffffffffffffffffffffffffffffffffffffffff\n        /* \"#utility.yul\":6275:6280   */\n      dup3\n        /* \"#utility.yul\":6271:6325   */\n      and\n        /* \"#utility.yul\":6260:6325   */\n      swap1\n      pop\n        /* \"#utility.yul\":6205:6331   */\n      swap2\n      swap1\n      pop\n      jump\t// out\n        /* \"#utility.yul\":6337:6441   */\n    tag_228:\n        /* \"#utility.yul\":6382:6389   */\n      0x00\n        /* \"#utility.yul\":6411:6435   */\n      tag_325\n        /* \"#utility.yul\":6429:6434   */\n      dup3\n        /* \"#utility.yul\":6411:6435   */\n      tag_227\n      jump\t// in\n    tag_325:\n        /* \"#utility.yul\":6400:6435   */\n      swap1\n      pop\n        /* \"#utility.yul\":6337:6441   */\n      swap2\n      swap1\n      pop\n      jump\t// out\n        /* \"#utility.yul\":6447:6589   */\n    tag_229:\n        /* \"#utility.yul\":6550:6582   */\n      tag_327\n        /* \"#utility.yul\":6576:6581   */\n      dup2\n        /* \"#utility.yul\":6550:6582   */\n      tag_228\n      jump\t// in\n    tag_327:\n        /* \"#utility.yul\":6545:6548   */\n      dup3\n        /* \"#utility.yul\":6538:6583   */\n      mstore\n        /* \"#utility.yul\":6447:6589   */\n      pop\n      pop\n      jump\t// out\n        /* \"#utility.yul\":6595:6849   */\n    tag_52:\n        /* \"#utility.yul\":6704:6708   */\n      0x00\n        /* \"#utility.yul\":6742:6744   */\n      0x20\n        /* \"#utility.yul\":6731:6740   */\n      dup3\n        /* \"#utility.yul\":6727:6745   */\n      add\n        /* \"#utility.yul\":6719:6745   */\n      swap1\n      pop\n        /* \"#utility.yul\":6755:6842   */\n      tag_329\n        /* \"#utility.yul\":6839:6840   */\n      0x00\n        /* \"#utility.yul\":6828:6837   */\n      dup4\n        /* \"#utility.yul\":6824:6841   */\n      add\n        /* \"#utility.yul\":6815:6821   */\n      dup5\n        /* \"#utility.yul\":6755:6842   */\n      tag_229\n      jump\t// in\n    tag_329:\n        /* \"#utility.yul\":6595:6849   */\n      swap3\n      swap2\n      pop\n      pop\n      jump\t// out\n        /* \"#utility.yul\":6855:6973   */\n    tag_230:\n        /* \"#utility.yul\":6942:6966   */\n      tag_331\n        /* \"#utility.yul\":6960:6965   */\n      dup2\n        /* \"#utility.yul\":6942:6966   */\n      tag_214\n      jump\t// in\n    tag_331:\n        /* \"#utility.yul\":6937:6940   */\n      dup3\n        /* \"#utility.yul\":6930:6967   */\n      mstore\n        /* \"#utility.yul\":6855:6973   */\n      pop\n      pop\n      jump\t// out\n        /* \"#utility.yul\":6979:7201   */\n    tag_57:\n        /* \"#utility.yul\":7072:7076   */\n      0x00\n        /* \"#utility.yul\":7110:7112   */\n      0x20\n        /* \"#utility.yul\":7099:7108   */\n      dup3\n        /* \"#utility.yul\":7095:7113   */\n      add\n        /* \"#utility.yul\":7087:7113   */\n      swap1\n      pop\n        /* \"#utility.yul\":7123:7194   */\n      tag_333\n        /* \"#utility.yul\":7191:7192   */\n      0x00\n        /* \"#utility.yul\":7180:7189   */\n      dup4\n        /* \"#utility.yul\":7176:7193   */\n      add\n        /* \"#utility.yul\":7167:7173   */\n      dup5\n        /* \"#utility.yul\":7123:7194   */\n      tag_230\n      jump\t// in\n    tag_333:\n        /* \"#utility.yul\":6979:7201   */\n      swap3\n      swap2\n      pop\n      pop\n      jump\t// out\n        /* \"#utility.yul\":7207:7303   */\n    tag_231:\n        /* \"#utility.yul\":7244:7251   */\n      0x00\n        /* \"#utility.yul\":7273:7297   */\n      tag_335\n        /* \"#utility.yul\":7291:7296   */\n      dup3\n        /* \"#utility.yul\":7273:7297   */\n      tag_227\n      jump\t// in\n    tag_335:\n        /* \"#utility.yul\":7262:7297   */\n      swap1\n      pop\n        /* \"#utility.yul\":7207:7303   */\n      swap2\n      swap1\n      pop\n      jump\t// out\n        /* \"#utility.yul\":7309:7427   */\n    tag_232:\n        /* \"#utility.yul\":7396:7420   */\n      tag_337\n        /* \"#utility.yul\":7414:7419   */\n      dup2\n        /* \"#utility.yul\":7396:7420   */\n      tag_231\n      jump\t// in\n    tag_337:\n        /* \"#utility.yul\":7391:7394   */\n      dup3\n        /* \"#utility.yul\":7384:7421   */\n      mstore\n        /* \"#utility.yul\":7309:7427   */\n      pop\n      pop\n      jump\t// out\n        /* \"#utility.yul\":7433:7655   */\n    tag_62:\n        /* \"#utility.yul\":7526:7530   */\n      0x00\n        /* \"#utility.yul\":7564:7566   */\n      0x20\n        /* \"#utility.yul\":7553:7562   */\n      dup3\n        /* \"#utility.yul\":7549:7567   */\n      add\n        /* \"#utility.yul\":7541:7567   */\n      swap1\n      pop\n        /* \"#utility.yul\":7577:7648   */\n      tag_339\n        /* \"#utility.yul\":7645:7646   */\n      0x00\n        /* \"#utility.yul\":7634:7643   */\n      dup4\n        /* \"#utility.yul\":7630:7647   */\n      add\n        /* \"#utility.yul\":7621:7627   */\n      dup5\n        /* \"#utility.yul\":7577:7648   */\n      tag_232\n      jump\t// in\n    tag_339:\n        /* \"#utility.yul\":7433:7655   */\n      swap3\n      swap2\n      pop\n      pop\n      jump\t// out\n        /* \"#utility.yul\":7661:7762   */\n    tag_233:\n        /* \"#utility.yul\":7697:7704   */\n      0x00\n        /* \"#utility.yul\":7737:7755   */\n      0xffffffffffffffff\n        /* \"#utility.yul\":7730:7735   */\n      dup3\n        /* \"#utility.yul\":7726:7756   */\n      and\n        /* \"#utility.yul\":7715:7756   */\n      swap1\n      pop\n        /* \"#utility.yul\":7661:7762   */\n      swap2\n      swap1\n      pop\n      jump\t// out\n        /* \"#utility.yul\":7768:7883   */\n    tag_234:\n        /* \"#utility.yul\":7853:7876   */\n      tag_342\n        /* \"#utility.yul\":7870:7875   */\n      dup2\n        /* \"#utility.yul\":7853:7876   */\n      tag_233\n      jump\t// in\n    tag_342:\n        /* \"#utility.yul\":7848:7851   */\n      dup3\n        /* \"#utility.yul\":7841:7877   */\n      mstore\n        /* \"#utility.yul\":7768:7883   */\n      pop\n      pop\n      jump\t// out\n        /* \"#utility.yul\":7889:8107   */\n    tag_83:\n        /* \"#utility.yul\":7980:7984   */\n      0x00\n        /* \"#utility.yul\":8018:8020   */\n      0x20\n        /* \"#utility.yul\":8007:8016   */\n      dup3\n        /* \"#utility.yul\":8003:8021   */\n      add\n        /* \"#utility.yul\":7995:8021   */\n      swap1\n      pop\n        /* \"#utility.yul\":8031:8100   */\n      tag_344\n        /* \"#utility.yul\":8097:8098   */\n      0x00\n        /* \"#utility.yul\":8086:8095   */\n      dup4\n        /* \"#utility.yul\":8082:8099   */\n      add\n        /* \"#utility.yul\":8073:8079   */\n      dup5\n        /* \"#utility.yul\":8031:8100   */\n      tag_234\n      jump\t// in\n    tag_344:\n        /* \"#utility.yul\":7889:8107   */\n      swap3\n      swap2\n      pop\n      pop\n      jump\t// out\n        /* \"#utility.yul\":8113:8203   */\n    tag_235:\n        /* \"#utility.yul\":8147:8154   */\n      0x00\n        /* \"#utility.yul\":8190:8195   */\n      dup2\n        /* \"#utility.yul\":8183:8196   */\n      iszero\n        /* \"#utility.yul\":8176:8197   */\n      iszero\n        /* \"#utility.yul\":8165:8197   */\n      swap1\n      pop\n        /* \"#utility.yul\":8113:8203   */\n      swap2\n      swap1\n      pop\n      jump\t// out\n        /* \"#utility.yul\":8209:8318   */\n    tag_236:\n        /* \"#utility.yul\":8290:8311   */\n      tag_347\n        /* \"#utility.yul\":8305:8310   */\n      dup2\n        /* \"#utility.yul\":8290:8311   */\n      tag_235\n      jump\t// in\n    tag_347:\n        /* \"#utility.yul\":8285:8288   */\n      dup3\n        /* \"#utility.yul\":8278:8312   */\n      mstore\n        /* \"#utility.yul\":8209:8318   */\n      pop\n      pop\n      jump\t// out\n        /* \"#utility.yul\":8324:8632   */\n    tag_97:\n        /* \"#utility.yul\":8433:8437   */\n      0x00\n        /* \"#utility.yul\":8471:8473   */\n      0x40\n        /* \"#utility.yul\":8460:8469   */\n      dup3\n        /* \"#utility.yul\":8456:8474   */\n      add\n        /* \"#utility.yul\":8448:8474   */\n      swap1\n      pop\n        /* \"#utility.yul\":8484:8549   */\n      tag_349\n        /* \"#utility.yul\":8546:8547   */\n      0x00\n        /* \"#utility.yul\":8535:8544   */\n      dup4\n        /* \"#utility.yul\":8531:8548   */\n      add\n        /* \"#utility.yul\":8522:8528   */\n      dup6\n        /* \"#utility.yul\":8484:8549   */\n      tag_236\n      jump\t// in\n    tag_349:\n        /* \"#utility.yul\":8559:8625   */\n      tag_350\n        /* \"#utility.yul\":8621:8623   */\n      0x20\n        /* \"#utility.yul\":8610:8619   */\n      dup4\n        /* \"#utility.yul\":8606:8624   */\n      add\n        /* \"#utility.yul\":8597:8603   */\n      dup5\n        /* \"#utility.yul\":8559:8625   */\n      tag_236\n      jump\t// in\n    tag_350:\n        /* \"#utility.yul\":8324:8632   */\n      swap4\n      swap3\n      pop\n      pop\n      pop\n      jump\t// out\n        /* \"#utility.yul\":8638:8727   */\n    tag_237:\n        /* \"#utility.yul\":8674:8681   */\n      0x00\n        /* \"#utility.yul\":8714:8720   */\n      0xffff\n        /* \"#utility.yul\":8707:8712   */\n      dup3\n        /* \"#utility.yul\":8703:8721   */\n      and\n        /* \"#utility.yul\":8692:8721   */\n      swap1\n      pop\n        /* \"#utility.yul\":8638:8727   */\n      swap2\n      swap1\n      pop\n      jump\t// out\n        /* \"#utility.yul\":8733:8848   */\n    tag_238:\n        /* \"#utility.yul\":8818:8841   */\n      tag_353\n        /* \"#utility.yul\":8835:8840   */\n      dup2\n        /* \"#utility.yul\":8818:8841   */\n      tag_237\n      jump\t// in\n    tag_353:\n        /* \"#utility.yul\":8813:8816   */\n      dup3\n        /* \"#utility.yul\":8806:8842   */\n      mstore\n        /* \"#utility.yul\":8733:8848   */\n      pop\n      pop\n      jump\t// out\n        /* \"#utility.yul\":8854:9072   */\n    tag_102:\n        /* \"#utility.yul\":8945:8949   */\n      0x00\n        /* \"#utility.yul\":8983:8985   */\n      0x20\n        /* \"#utility.yul\":8972:8981   */\n      dup3\n        /* \"#utility.yul\":8968:8986   */\n      add\n        /* \"#utility.yul\":8960:8986   */\n      swap1\n      pop\n        /* \"#utility.yul\":8996:9065   */\n      tag_355\n        /* \"#utility.yul\":9062:9063   */\n      0x00\n        /* \"#utility.yul\":9051:9060   */\n      dup4\n        /* \"#utility.yul\":9047:9064   */\n      add\n        /* \"#utility.yul\":9038:9044   */\n      dup5\n        /* \"#utility.yul\":8996:9065   */\n      tag_238\n      jump\t// in\n    tag_355:\n        /* \"#utility.yul\":8854:9072   */\n      swap3\n      swap2\n      pop\n      pop\n      jump\t// out\n        /* \"#utility.yul\":9078:9200   */\n    tag_239:\n        /* \"#utility.yul\":9151:9175   */\n      tag_357\n        /* \"#utility.yul\":9169:9174   */\n      dup2\n        /* \"#utility.yul\":9151:9175   */\n      tag_231\n      jump\t// in\n    tag_357:\n        /* \"#utility.yul\":9144:9149   */\n      dup2\n        /* \"#utility.yul\":9141:9176   */\n      eq\n        /* \"#utility.yul\":9131:9194   */\n      tag_358\n      jumpi\n        /* \"#utility.yul\":9190:9191   */\n      0x00\n        /* \"#utility.yul\":9187:9188   */\n      dup1\n        /* \"#utility.yul\":9180:9192   */\n      revert\n        /* \"#utility.yul\":9131:9194   */\n    tag_358:\n        /* \"#utility.yul\":9078:9200   */\n      pop\n      jump\t// out\n        /* \"#utility.yul\":9206:9345   */\n    tag_240:\n        /* \"#utility.yul\":9252:9257   */\n      0x00\n        /* \"#utility.yul\":9290:9296   */\n      dup2\n        /* \"#utility.yul\":9277:9297   */\n      calldataload\n        /* \"#utility.yul\":9268:9297   */\n      swap1\n      pop\n        /* \"#utility.yul\":9306:9339   */\n      tag_360\n        /* \"#utility.yul\":9333:9338   */\n      dup2\n        /* \"#utility.yul\":9306:9339   */\n      tag_239\n      jump\t// in\n    tag_360:\n        /* \"#utility.yul\":9206:9345   */\n      swap3\n      swap2\n      pop\n      pop\n      jump\t// out\n        /* \"#utility.yul\":9351:9680   */\n    tag_113:\n        /* \"#utility.yul\":9410:9416   */\n      0x00\n        /* \"#utility.yul\":9459:9461   */\n      0x20\n        /* \"#utility.yul\":9447:9456   */\n      dup3\n        /* \"#utility.yul\":9438:9445   */\n      dup5\n        /* \"#utility.yul\":9434:9457   */\n      sub\n        /* \"#utility.yul\":9430:9462   */\n      slt\n        /* \"#utility.yul\":9427:9546   */\n      iszero\n      tag_362\n      jumpi\n        /* \"#utility.yul\":9465:9544   */\n      tag_363\n      tag_212\n      jump\t// in\n    tag_363:\n        /* \"#utility.yul\":9427:9546   */\n    tag_362:\n        /* \"#utility.yul\":9585:9586   */\n      0x00\n        /* \"#utility.yul\":9610:9663   */\n      tag_364\n        /* \"#utility.yul\":9655:9662   */\n      dup5\n        /* \"#utility.yul\":9646:9652   */\n      dup3\n        /* \"#utility.yul\":9635:9644   */\n      dup6\n        /* \"#utility.yul\":9631:9653   */\n      add\n        /* \"#utility.yul\":9610:9663   */\n      tag_240\n      jump\t// in\n    tag_364:\n        /* \"#utility.yul\":9600:9663   */\n      swap2\n      pop\n        /* \"#utility.yul\":9556:9673   */\n      pop\n        /* \"#utility.yul\":9351:9680   */\n      swap3\n      swap2\n      pop\n      pop\n      jump\t// out\n        /* \"#utility.yul\":9686:10018   */\n    tag_122:\n        /* \"#utility.yul\":9807:9811   */\n      0x00\n        /* \"#utility.yul\":9845:9847   */\n      0x40\n        /* \"#utility.yul\":9834:9843   */\n      dup3\n        /* \"#utility.yul\":9830:9848   */\n      add\n        /* \"#utility.yul\":9822:9848   */\n      swap1\n      pop\n        /* \"#utility.yul\":9858:9929   */\n      tag_366\n        /* \"#utility.yul\":9926:9927   */\n      0x00\n        /* \"#utility.yul\":9915:9924   */\n      dup4\n        /* \"#utility.yul\":9911:9928   */\n      add\n        /* \"#utility.yul\":9902:9908   */\n      dup6\n        /* \"#utility.yul\":9858:9929   */\n      tag_232\n      jump\t// in\n    tag_366:\n        /* \"#utility.yul\":9939:10011   */\n      tag_367\n        /* \"#utility.yul\":10007:10009   */\n      0x20\n        /* \"#utility.yul\":9996:10005   */\n      dup4\n        /* \"#utility.yul\":9992:10010   */\n      add\n        /* \"#utility.yul\":9983:9989   */\n      dup5\n        /* \"#utility.yul\":9939:10011   */\n      tag_232\n      jump\t// in\n    tag_367:\n        /* \"#utility.yul\":9686:10018   */\n      swap4\n      swap3\n      pop\n      pop\n      pop\n      jump\t// out\n        /* \"#utility.yul\":10024:10672   */\n    tag_132:\n        /* \"#utility.yul\":10221:10225   */\n      0x00\n        /* \"#utility.yul\":10259:10262   */\n      0xa0\n        /* \"#utility.yul\":10248:10257   */\n      dup3\n        /* \"#utility.yul\":10244:10263   */\n      add\n        /* \"#utility.yul\":10236:10263   */\n      swap1\n      pop\n        /* \"#utility.yul\":10273:10344   */\n      tag_369\n        /* \"#utility.yul\":10341:10342   */\n      0x00\n        /* \"#utility.yul\":10330:10339   */\n      dup4\n        /* \"#utility.yul\":10326:10343   */\n      add\n        /* \"#utility.yul\":10317:10323   */\n      dup9\n        /* \"#utility.yul\":10273:10344   */\n      tag_210\n      jump\t// in\n    tag_369:\n        /* \"#utility.yul\":10354:10424   */\n      tag_370\n        /* \"#utility.yul\":10420:10422   */\n      0x20\n        /* \"#utility.yul\":10409:10418   */\n      dup4\n        /* \"#utility.yul\":10405:10423   */\n      add\n        /* \"#utility.yul\":10396:10402   */\n      dup8\n        /* \"#utility.yul\":10354:10424   */\n      tag_234\n      jump\t// in\n    tag_370:\n        /* \"#utility.yul\":10434:10504   */\n      tag_371\n        /* \"#utility.yul\":10500:10502   */\n      0x40\n        /* \"#utility.yul\":10489:10498   */\n      dup4\n        /* \"#utility.yul\":10485:10503   */\n      add\n        /* \"#utility.yul\":10476:10482   */\n      dup7\n        /* \"#utility.yul\":10434:10504   */\n      tag_238\n      jump\t// in\n    tag_371:\n        /* \"#utility.yul\":10514:10584   */\n      tag_372\n        /* \"#utility.yul\":10580:10582   */\n      0x60\n        /* \"#utility.yul\":10569:10578   */\n      dup4\n        /* \"#utility.yul\":10565:10583   */\n      add\n        /* \"#utility.yul\":10556:10562   */\n      dup6\n        /* \"#utility.yul\":10514:10584   */\n      tag_226\n      jump\t// in\n    tag_372:\n        /* \"#utility.yul\":10594:10665   */\n      tag_373\n        /* \"#utility.yul\":10660:10663   */\n      0x80\n        /* \"#utility.yul\":10649:10658   */\n      dup4\n        /* \"#utility.yul\":10645:10664   */\n      add\n        /* \"#utility.yul\":10636:10642   */\n      dup5\n        /* \"#utility.yul\":10594:10665   */\n      tag_226\n      jump\t// in\n    tag_373:\n        /* \"#utility.yul\":10024:10672   */\n      swap7\n      swap6\n      pop\n      pop\n      pop\n      pop\n      pop\n      pop\n      jump\t// out\n        /* \"#utility.yul\":10678:10821   */\n    tag_241:\n        /* \"#utility.yul\":10735:10740   */\n      0x00\n        /* \"#utility.yul\":10766:10772   */\n      dup2\n        /* \"#utility.yul\":10760:10773   */\n      mload\n        /* \"#utility.yul\":10751:10773   */\n      swap1\n      pop\n        /* \"#utility.yul\":10782:10815   */\n      tag_375\n        /* \"#utility.yul\":10809:10814   */\n      dup2\n        /* \"#utility.yul\":10782:10815   */\n      tag_215\n      jump\t// in\n    tag_375:\n        /* \"#utility.yul\":10678:10821   */\n      swap3\n      swap2\n      pop\n      pop\n      jump\t// out\n        /* \"#utility.yul\":10827:11178   */\n    tag_136:\n        /* \"#utility.yul\":10897:10903   */\n      0x00\n        /* \"#utility.yul\":10946:10948   */\n      0x20\n        /* \"#utility.yul\":10934:10943   */\n      dup3\n        /* \"#utility.yul\":10925:10932   */\n      dup5\n        /* \"#utility.yul\":10921:10944   */\n      sub\n        /* \"#utility.yul\":10917:10949   */\n      slt\n        /* \"#utility.yul\":10914:11033   */\n      iszero\n      tag_377\n      jumpi\n        /* \"#utility.yul\":10952:11031   */\n      tag_378\n      tag_212\n      jump\t// in\n    tag_378:\n        /* \"#utility.yul\":10914:11033   */\n    tag_377:\n        /* \"#utility.yul\":11072:11073   */\n      0x00\n        /* \"#utility.yul\":11097:11161   */\n      tag_379\n        /* \"#utility.yul\":11153:11160   */\n      dup5\n        /* \"#utility.yul\":11144:11150   */\n      dup3\n        /* \"#utility.yul\":11133:11142   */\n      dup6\n        /* \"#utility.yul\":11129:11151   */\n      add\n        /* \"#utility.yul\":11097:11161   */\n      tag_241\n      jump\t// in\n    tag_379:\n        /* \"#utility.yul\":11087:11161   */\n      swap2\n      pop\n        /* \"#utility.yul\":11043:11171   */\n      pop\n        /* \"#utility.yul\":10827:11178   */\n      swap3\n      swap2\n      pop\n      pop\n      jump\t// out\n        /* \"#utility.yul\":11184:11512   */\n    tag_145:\n        /* \"#utility.yul\":11303:11307   */\n      0x00\n        /* \"#utility.yul\":11341:11343   */\n      0x40\n        /* \"#utility.yul\":11330:11339   */\n      dup3\n        /* \"#utility.yul\":11326:11344   */\n      add\n        /* \"#utility.yul\":11318:11344   */\n      swap1\n      pop\n        /* \"#utility.yul\":11354:11425   */\n      tag_381\n        /* \"#utility.yul\":11422:11423   */\n      0x00\n        /* \"#utility.yul\":11411:11420   */\n      dup4\n        /* \"#utility.yul\":11407:11424   */\n      add\n        /* \"#utility.yul\":11398:11404   */\n      dup6\n        /* \"#utility.yul\":11354:11425   */\n      tag_230\n      jump\t// in\n    tag_381:\n        /* \"#utility.yul\":11435:11505   */\n      tag_382\n        /* \"#utility.yul\":11501:11503   */\n      0x20\n        /* \"#utility.yul\":11490:11499   */\n      dup4\n        /* \"#utility.yul\":11486:11504   */\n      add\n        /* \"#utility.yul\":11477:11483   */\n      dup5\n        /* \"#utility.yul\":11435:11505   */\n      tag_226\n      jump\t// in\n    tag_382:\n        /* \"#utility.yul\":11184:11512   */\n      swap4\n      swap3\n      pop\n      pop\n      pop\n      jump\t// out\n        /* \"#utility.yul\":11518:11690   */\n    tag_242:\n        /* \"#utility.yul\":11658:11682   */\n      0x4d7573742062652070726f706f736564206f776e657200000000000000000000\n        /* \"#utility.yul\":11654:11655   */\n      0x00\n        /* \"#utility.yul\":11646:11652   */\n      dup3\n        /* \"#utility.yul\":11642:11656   */\n      add\n        /* \"#utility.yul\":11635:11683   */\n      mstore\n        /* \"#utility.yul\":11518:11690   */\n      pop\n      jump\t// out\n        /* \"#utility.yul\":11696:12062   */\n    tag_243:\n        /* \"#utility.yul\":11838:11841   */\n      0x00\n        /* \"#utility.yul\":11859:11926   */\n      tag_385\n        /* \"#utility.yul\":11923:11925   */\n      0x16\n        /* \"#utility.yul\":11918:11921   */\n      dup4\n        /* \"#utility.yul\":11859:11926   */\n      tag_206\n      jump\t// in\n    tag_385:\n        /* \"#utility.yul\":11852:11926   */\n      swap2\n      pop\n        /* \"#utility.yul\":11935:12028   */\n      tag_386\n        /* \"#utility.yul\":12024:12027   */\n      dup3\n        /* \"#utility.yul\":11935:12028   */\n      tag_242\n      jump\t// in\n    tag_386:\n        /* \"#utility.yul\":12053:12055   */\n      0x20\n        /* \"#utility.yul\":12048:12051   */\n      dup3\n        /* \"#utility.yul\":12044:12056   */\n      add\n        /* \"#utility.yul\":12037:12056   */\n      swap1\n      pop\n        /* \"#utility.yul\":11696:12062   */\n      swap2\n      swap1\n      pop\n      jump\t// out\n        /* \"#utility.yul\":12068:12487   */\n    tag_149:\n        /* \"#utility.yul\":12234:12238   */\n      0x00\n        /* \"#utility.yul\":12272:12274   */\n      0x20\n        /* \"#utility.yul\":12261:12270   */\n      dup3\n        /* \"#utility.yul\":12257:12275   */\n      add\n        /* \"#utility.yul\":12249:12275   */\n      swap1\n      pop\n        /* \"#utility.yul\":12321:12330   */\n      dup2\n        /* \"#utility.yul\":12315:12319   */\n      dup2\n        /* \"#utility.yul\":12311:12331   */\n      sub\n        /* \"#utility.yul\":12307:12308   */\n      0x00\n        /* \"#utility.yul\":12296:12305   */\n      dup4\n        /* \"#utility.yul\":12292:12309   */\n      add\n        /* \"#utility.yul\":12285:12332   */\n      mstore\n        /* \"#utility.yul\":12349:12480   */\n      tag_388\n        /* \"#utility.yul\":12475:12479   */\n      dup2\n        /* \"#utility.yul\":12349:12480   */\n      tag_243\n      jump\t// in\n    tag_388:\n        /* \"#utility.yul\":12341:12480   */\n      swap1\n      pop\n        /* \"#utility.yul\":12068:12487   */\n      swap2\n      swap1\n      pop\n      jump\t// out\n        /* \"#utility.yul\":12493:12660   */\n    tag_244:\n        /* \"#utility.yul\":12633:12652   */\n      0x72657175657374206e6f7420666f756e64000000000000000000000000000000\n        /* \"#utility.yul\":12629:12630   */\n      0x00\n        /* \"#utility.yul\":12621:12627   */\n      dup3\n        /* \"#utility.yul\":12617:12631   */\n      add\n        /* \"#utility.yul\":12610:12653   */\n      mstore\n        /* \"#utility.yul\":12493:12660   */\n      pop\n      jump\t// out\n        /* \"#utility.yul\":12666:13032   */\n    tag_245:\n        /* \"#utility.yul\":12808:12811   */\n      0x00\n        /* \"#utility.yul\":12829:12896   */\n      tag_391\n        /* \"#utility.yul\":12893:12895   */\n      0x11\n        /* \"#utility.yul\":12888:12891   */\n      dup4\n        /* \"#utility.yul\":12829:12896   */\n      tag_206\n      jump\t// in\n    tag_391:\n        /* \"#utility.yul\":12822:12896   */\n      swap2\n      pop\n        /* \"#utility.yul\":12905:12998   */\n      tag_392\n        /* \"#utility.yul\":12994:12997   */\n      dup3\n        /* \"#utility.yul\":12905:12998   */\n      tag_244\n      jump\t// in\n    tag_392:\n        /* \"#utility.yul\":13023:13025   */\n      0x20\n        /* \"#utility.yul\":13018:13021   */\n      dup3\n        /* \"#utility.yul\":13014:13026   */\n      add\n        /* \"#utility.yul\":13007:13026   */\n      swap1\n      pop\n        /* \"#utility.yul\":12666:13032   */\n      swap2\n      swap1\n      pop\n      jump\t// out\n        /* \"#utility.yul\":13038:13457   */\n    tag_170:\n        /* \"#utility.yul\":13204:13208   */\n      0x00\n        /* \"#utility.yul\":13242:13244   */\n      0x20\n        /* \"#utility.yul\":13231:13240   */\n      dup3\n        /* \"#utility.yul\":13227:13245   */\n      add\n        /* \"#utility.yul\":13219:13245   */\n      swap1\n      pop\n        /* \"#utility.yul\":13291:13300   */\n      dup2\n        /* \"#utility.yul\":13285:13289   */\n      dup2\n        /* \"#utility.yul\":13281:13301   */\n      sub\n        /* \"#utility.yul\":13277:13278   */\n      0x00\n        /* \"#utility.yul\":13266:13275   */\n      dup4\n        /* \"#utility.yul\":13262:13279   */\n      add\n        /* \"#utility.yul\":13255:13302   */\n      mstore\n        /* \"#utility.yul\":13319:13450   */\n      tag_394\n        /* \"#utility.yul\":13445:13449   */\n      dup2\n        /* \"#utility.yul\":13319:13450   */\n      tag_245\n      jump\t// in\n    tag_394:\n        /* \"#utility.yul\":13311:13450   */\n      swap1\n      pop\n        /* \"#utility.yul\":13038:13457   */\n      swap2\n      swap1\n      pop\n      jump\t// out\n        /* \"#utility.yul\":13463:13577   */\n    tag_246:\n        /* \"#utility.yul\":13530:13536   */\n      0x00\n        /* \"#utility.yul\":13564:13569   */\n      dup2\n        /* \"#utility.yul\":13558:13570   */\n      mload\n        /* \"#utility.yul\":13548:13570   */\n      swap1\n      pop\n        /* \"#utility.yul\":13463:13577   */\n      swap2\n      swap1\n      pop\n      jump\t// out\n        /* \"#utility.yul\":13583:13767   */\n    tag_247:\n        /* \"#utility.yul\":13682:13693   */\n      0x00\n        /* \"#utility.yul\":13716:13722   */\n      dup3\n        /* \"#utility.yul\":13711:13714   */\n      dup3\n        /* \"#utility.yul\":13704:13723   */\n      mstore\n        /* \"#utility.yul\":13756:13760   */\n      0x20\n        /* \"#utility.yul\":13751:13754   */\n      dup3\n        /* \"#utility.yul\":13747:13761   */\n      add\n        /* \"#utility.yul\":13732:13761   */\n      swap1\n      pop\n        /* \"#utility.yul\":13583:13767   */\n      swap3\n      swap2\n      pop\n      pop\n      jump\t// out\n        /* \"#utility.yul\":13773:13905   */\n    tag_248:\n        /* \"#utility.yul\":13840:13844   */\n      0x00\n        /* \"#utility.yul\":13863:13866   */\n      dup2\n        /* \"#utility.yul\":13855:13866   */\n      swap1\n      pop\n        /* \"#utility.yul\":13893:13897   */\n      0x20\n        /* \"#utility.yul\":13888:13891   */\n      dup3\n        /* \"#utility.yul\":13884:13898   */\n      add\n        /* \"#utility.yul\":13876:13898   */\n      swap1\n      pop\n        /* \"#utility.yul\":13773:13905   */\n      swap2\n      swap1\n      pop\n      jump\t// out\n        /* \"#utility.yul\":13911:14019   */\n    tag_249:\n        /* \"#utility.yul\":13988:14012   */\n      tag_399\n        /* \"#utility.yul\":14006:14011   */\n      dup2\n        /* \"#utility.yul\":13988:14012   */\n      tag_214\n      jump\t// in\n    tag_399:\n        /* \"#utility.yul\":13983:13986   */\n      dup3\n        /* \"#utility.yul\":13976:14013   */\n      mstore\n        /* \"#utility.yul\":13911:14019   */\n      pop\n      pop\n      jump\t// out\n        /* \"#utility.yul\":14025:14204   */\n    tag_250:\n        /* \"#utility.yul\":14094:14104   */\n      0x00\n        /* \"#utility.yul\":14115:14161   */\n      tag_401\n        /* \"#utility.yul\":14157:14160   */\n      dup4\n        /* \"#utility.yul\":14149:14155   */\n      dup4\n        /* \"#utility.yul\":14115:14161   */\n      tag_249\n      jump\t// in\n    tag_401:\n        /* \"#utility.yul\":14193:14197   */\n      0x20\n        /* \"#utility.yul\":14188:14191   */\n      dup4\n        /* \"#utility.yul\":14184:14198   */\n      add\n        /* \"#utility.yul\":14170:14198   */\n      swap1\n      pop\n        /* \"#utility.yul\":14025:14204   */\n      swap3\n      swap2\n      pop\n      pop\n      jump\t// out\n        /* \"#utility.yul\":14210:14323   */\n    tag_251:\n        /* \"#utility.yul\":14280:14284   */\n      0x00\n        /* \"#utility.yul\":14312:14316   */\n      0x20\n        /* \"#utility.yul\":14307:14310   */\n      dup3\n        /* \"#utility.yul\":14303:14317   */\n      add\n        /* \"#utility.yul\":14295:14317   */\n      swap1\n      pop\n        /* \"#utility.yul\":14210:14323   */\n      swap2\n      swap1\n      pop\n      jump\t// out\n        /* \"#utility.yul\":14359:15091   */\n    tag_252:\n        /* \"#utility.yul\":14478:14481   */\n      0x00\n        /* \"#utility.yul\":14507:14561   */\n      tag_404\n        /* \"#utility.yul\":14555:14560   */\n      dup3\n        /* \"#utility.yul\":14507:14561   */\n      tag_246\n      jump\t// in\n    tag_404:\n        /* \"#utility.yul\":14577:14663   */\n      tag_405\n        /* \"#utility.yul\":14656:14662   */\n      dup2\n        /* \"#utility.yul\":14651:14654   */\n      dup6\n        /* \"#utility.yul\":14577:14663   */\n      tag_247\n      jump\t// in\n    tag_405:\n        /* \"#utility.yul\":14570:14663   */\n      swap4\n      pop\n        /* \"#utility.yul\":14687:14743   */\n      tag_406\n        /* \"#utility.yul\":14737:14742   */\n      dup4\n        /* \"#utility.yul\":14687:14743   */\n      tag_248\n      jump\t// in\n    tag_406:\n        /* \"#utility.yul\":14766:14773   */\n      dup1\n        /* \"#utility.yul\":14797:14798   */\n      0x00\n        /* \"#utility.yul\":14782:15066   */\n    tag_407:\n        /* \"#utility.yul\":14807:14813   */\n      dup4\n        /* \"#utility.yul\":14804:14805   */\n      dup2\n        /* \"#utility.yul\":14801:14814   */\n      lt\n        /* \"#utility.yul\":14782:15066   */\n      iszero\n      tag_409\n      jumpi\n        /* \"#utility.yul\":14883:14889   */\n      dup2\n        /* \"#utility.yul\":14877:14890   */\n      mload\n        /* \"#utility.yul\":14910:14973   */\n      tag_410\n        /* \"#utility.yul\":14969:14972   */\n      dup9\n        /* \"#utility.yul\":14954:14967   */\n      dup3\n        /* \"#utility.yul\":14910:14973   */\n      tag_250\n      jump\t// in\n    tag_410:\n        /* \"#utility.yul\":14903:14973   */\n      swap8\n      pop\n        /* \"#utility.yul\":14996:15056   */\n      tag_411\n        /* \"#utility.yul\":15049:15055   */\n      dup4\n        /* \"#utility.yul\":14996:15056   */\n      tag_251\n      jump\t// in\n    tag_411:\n        /* \"#utility.yul\":14986:15056   */\n      swap3\n      pop\n        /* \"#utility.yul\":14842:15066   */\n      pop\n        /* \"#utility.yul\":14829:14830   */\n      0x01\n        /* \"#utility.yul\":14826:14827   */\n      dup2\n        /* \"#utility.yul\":14822:14831   */\n      add\n        /* \"#utility.yul\":14817:14831   */\n      swap1\n      pop\n        /* \"#utility.yul\":14782:15066   */\n      jump(tag_407)\n    tag_409:\n        /* \"#utility.yul\":14786:14800   */\n      pop\n        /* \"#utility.yul\":15082:15085   */\n      dup6\n        /* \"#utility.yul\":15075:15085   */\n      swap4\n      pop\n        /* \"#utility.yul\":14483:15091   */\n      pop\n      pop\n      pop\n        /* \"#utility.yul\":14359:15091   */\n      swap3\n      swap2\n      pop\n      pop\n      jump\t// out\n        /* \"#utility.yul\":15097:15580   */\n    tag_175:\n        /* \"#utility.yul\":15268:15272   */\n      0x00\n        /* \"#utility.yul\":15306:15308   */\n      0x40\n        /* \"#utility.yul\":15295:15304   */\n      dup3\n        /* \"#utility.yul\":15291:15309   */\n      add\n        /* \"#utility.yul\":15283:15309   */\n      swap1\n      pop\n        /* \"#utility.yul\":15319:15390   */\n      tag_413\n        /* \"#utility.yul\":15387:15388   */\n      0x00\n        /* \"#utility.yul\":15376:15385   */\n      dup4\n        /* \"#utility.yul\":15372:15389   */\n      add\n        /* \"#utility.yul\":15363:15369   */\n      dup6\n        /* \"#utility.yul\":15319:15390   */\n      tag_230\n      jump\t// in\n    tag_413:\n        /* \"#utility.yul\":15437:15446   */\n      dup2\n        /* \"#utility.yul\":15431:15435   */\n      dup2\n        /* \"#utility.yul\":15427:15447   */\n      sub\n        /* \"#utility.yul\":15422:15424   */\n      0x20\n        /* \"#utility.yul\":15411:15420   */\n      dup4\n        /* \"#utility.yul\":15407:15425   */\n      add\n        /* \"#utility.yul\":15400:15448   */\n      mstore\n        /* \"#utility.yul\":15465:15573   */\n      tag_414\n        /* \"#utility.yul\":15568:15572   */\n      dup2\n        /* \"#utility.yul\":15559:15565   */\n      dup5\n        /* \"#utility.yul\":15465:15573   */\n      tag_252\n      jump\t// in\n    tag_414:\n        /* \"#utility.yul\":15457:15573   */\n      swap1\n      pop\n        /* \"#utility.yul\":15097:15580   */\n      swap4\n      swap3\n      pop\n      pop\n      pop\n      jump\t// out\n        /* \"#utility.yul\":15586:15758   */\n    tag_253:\n        /* \"#utility.yul\":15726:15750   */\n      0x4f6e6c792063616c6c61626c65206279206f776e657200000000000000000000\n        /* \"#utility.yul\":15722:15723   */\n      0x00\n        /* \"#utility.yul\":15714:15720   */\n      dup3\n        /* \"#utility.yul\":15710:15724   */\n      add\n        /* \"#utility.yul\":15703:15751   */\n      mstore\n        /* \"#utility.yul\":15586:15758   */\n      pop\n      jump\t// out\n        /* \"#utility.yul\":15764:16130   */\n    tag_254:\n        /* \"#utility.yul\":15906:15909   */\n      0x00\n        /* \"#utility.yul\":15927:15994   */\n      tag_417\n        /* \"#utility.yul\":15991:15993   */\n      0x16\n        /* \"#utility.yul\":15986:15989   */\n      dup4\n        /* \"#utility.yul\":15927:15994   */\n      tag_206\n      jump\t// in\n    tag_417:\n        /* \"#utility.yul\":15920:15994   */\n      swap2\n      pop\n        /* \"#utility.yul\":16003:16096   */\n      tag_418\n        /* \"#utility.yul\":16092:16095   */\n      dup3\n        /* \"#utility.yul\":16003:16096   */\n      tag_253\n      jump\t// in\n    tag_418:\n        /* \"#utility.yul\":16121:16123   */\n      0x20\n        /* \"#utility.yul\":16116:16119   */\n      dup3\n        /* \"#utility.yul\":16112:16124   */\n      add\n        /* \"#utility.yul\":16105:16124   */\n      swap1\n      pop\n        /* \"#utility.yul\":15764:16130   */\n      swap2\n      swap1\n      pop\n      jump\t// out\n        /* \"#utility.yul\":16136:16555   */\n    tag_179:\n        /* \"#utility.yul\":16302:16306   */\n      0x00\n        /* \"#utility.yul\":16340:16342   */\n      0x20\n        /* \"#utility.yul\":16329:16338   */\n      dup3\n        /* \"#utility.yul\":16325:16343   */\n      add\n        /* \"#utility.yul\":16317:16343   */\n      swap1\n      pop\n        /* \"#utility.yul\":16389:16398   */\n      dup2\n        /* \"#utility.yul\":16383:16387   */\n      dup2\n        /* \"#utility.yul\":16379:16399   */\n      sub\n        /* \"#utility.yul\":16375:16376   */\n      0x00\n        /* \"#utility.yul\":16364:16373   */\n      dup4\n        /* \"#utility.yul\":16360:16377   */\n      add\n        /* \"#utility.yul\":16353:16400   */\n      mstore\n        /* \"#utility.yul\":16417:16548   */\n      tag_420\n        /* \"#utility.yul\":16543:16547   */\n      dup2\n        /* \"#utility.yul\":16417:16548   */\n      tag_254\n      jump\t// in\n    tag_420:\n        /* \"#utility.yul\":16409:16548   */\n      swap1\n      pop\n        /* \"#utility.yul\":16136:16555   */\n      swap2\n      swap1\n      pop\n      jump\t// out\n        /* \"#utility.yul\":16561:16734   */\n    tag_255:\n        /* \"#utility.yul\":16701:16726   */\n      0x43616e6e6f74207472616e7366657220746f2073656c66000000000000000000\n        /* \"#utility.yul\":16697:16698   */\n      0x00\n        /* \"#utility.yul\":16689:16695   */\n      dup3\n        /* \"#utility.yul\":16685:16699   */\n      add\n        /* \"#utility.yul\":16678:16727   */\n      mstore\n        /* \"#utility.yul\":16561:16734   */\n      pop\n      jump\t// out\n        /* \"#utility.yul\":16740:17106   */\n    tag_256:\n        /* \"#utility.yul\":16882:16885   */\n      0x00\n        /* \"#utility.yul\":16903:16970   */\n      tag_423\n        /* \"#utility.yul\":16967:16969   */\n      0x17\n        /* \"#utility.yul\":16962:16965   */\n      dup4\n        /* \"#utility.yul\":16903:16970   */\n      tag_206\n      jump\t// in\n    tag_423:\n        /* \"#utility.yul\":16896:16970   */\n      swap2\n      pop\n        /* \"#utility.yul\":16979:17072   */\n      tag_424\n        /* \"#utility.yul\":17068:17071   */\n      dup3\n        /* \"#utility.yul\":16979:17072   */\n      tag_255\n      jump\t// in\n    tag_424:\n        /* \"#utility.yul\":17097:17099   */\n      0x20\n        /* \"#utility.yul\":17092:17095   */\n      dup3\n        /* \"#utility.yul\":17088:17100   */\n      add\n        /* \"#utility.yul\":17081:17100   */\n      swap1\n      pop\n        /* \"#utility.yul\":16740:17106   */\n      swap2\n      swap1\n      pop\n      jump\t// out\n        /* \"#utility.yul\":17112:17531   */\n    tag_183:\n        /* \"#utility.yul\":17278:17282   */\n      0x00\n        /* \"#utility.yul\":17316:17318   */\n      0x20\n        /* \"#utility.yul\":17305:17314   */\n      dup3\n        /* \"#utility.yul\":17301:17319   */\n      add\n        /* \"#utility.yul\":17293:17319   */\n      swap1\n      pop\n        /* \"#utility.yul\":17365:17374   */\n      dup2\n        /* \"#utility.yul\":17359:17363   */\n      dup2\n        /* \"#utility.yul\":17355:17375   */\n      sub\n        /* \"#utility.yul\":17351:17352   */\n      0x00\n        /* \"#utility.yul\":17340:17349   */\n      dup4\n        /* \"#utility.yul\":17336:17353   */\n      add\n        /* \"#utility.yul\":17329:17376   */\n      mstore\n        /* \"#utility.yul\":17393:17524   */\n      tag_426\n        /* \"#utility.yul\":17519:17523   */\n      dup2\n        /* \"#utility.yul\":17393:17524   */\n      tag_256\n      jump\t// in\n    tag_426:\n        /* \"#utility.yul\":17385:17524   */\n      swap1\n      pop\n        /* \"#utility.yul\":17112:17531   */\n      swap2\n      swap1\n      pop\n      jump\t// out\n        /* \"#utility.yul\":17537:17717   */\n    tag_187:\n        /* \"#utility.yul\":17585:17662   */\n      0x4e487b7100000000000000000000000000000000000000000000000000000000\n        /* \"#utility.yul\":17582:17583   */\n      0x00\n        /* \"#utility.yul\":17575:17663   */\n      mstore\n        /* \"#utility.yul\":17682:17686   */\n      0x32\n        /* \"#utility.yul\":17679:17680   */\n      0x04\n        /* \"#utility.yul\":17672:17687   */\n      mstore\n        /* \"#utility.yul\":17706:17710   */\n      0x24\n        /* \"#utility.yul\":17703:17704   */\n      0x00\n        /* \"#utility.yul\":17696:17711   */\n      revert\n        /* \"#utility.yul\":17723:17903   */\n    tag_257:\n        /* \"#utility.yul\":17771:17848   */\n      0x4e487b7100000000000000000000000000000000000000000000000000000000\n        /* \"#utility.yul\":17768:17769   */\n      0x00\n        /* \"#utility.yul\":17761:17849   */\n      mstore\n        /* \"#utility.yul\":17868:17872   */\n      0x12\n        /* \"#utility.yul\":17865:17866   */\n      0x04\n        /* \"#utility.yul\":17858:17873   */\n      mstore\n        /* \"#utility.yul\":17892:17896   */\n      0x24\n        /* \"#utility.yul\":17889:17890   */\n      0x00\n        /* \"#utility.yul\":17882:17897   */\n      revert\n        /* \"#utility.yul\":17909:18085   */\n    tag_189:\n        /* \"#utility.yul\":17941:17942   */\n      0x00\n        /* \"#utility.yul\":17958:17978   */\n      tag_430\n        /* \"#utility.yul\":17976:17977   */\n      dup3\n        /* \"#utility.yul\":17958:17978   */\n      tag_214\n      jump\t// in\n    tag_430:\n        /* \"#utility.yul\":17953:17978   */\n      swap2\n      pop\n        /* \"#utility.yul\":17992:18012   */\n      tag_431\n        /* \"#utility.yul\":18010:18011   */\n      dup4\n        /* \"#utility.yul\":17992:18012   */\n      tag_214\n      jump\t// in\n    tag_431:\n        /* \"#utility.yul\":17987:18012   */\n      swap3\n      pop\n        /* \"#utility.yul\":18031:18032   */\n      dup3\n        /* \"#utility.yul\":18021:18056   */\n      tag_432\n      jumpi\n        /* \"#utility.yul\":18036:18054   */\n      tag_433\n      tag_257\n      jump\t// in\n    tag_433:\n        /* \"#utility.yul\":18021:18056   */\n    tag_432:\n        /* \"#utility.yul\":18077:18078   */\n      dup3\n        /* \"#utility.yul\":18074:18075   */\n      dup3\n        /* \"#utility.yul\":18070:18079   */\n      mod\n        /* \"#utility.yul\":18065:18079   */\n      swap1\n      pop\n        /* \"#utility.yul\":17909:18085   */\n      swap3\n      swap2\n      pop\n      pop\n      jump\t// out\n\n    auxdata: 0xa26469706673582212201a1b839cdcfd22f1e882e32516ebeb1d5910f248bf82ae70b83ba4ac6d650b2864736f6c63430008160033\n}\n",
				"bytecode": {
					"linkReferences": {},
					"object": "60a0604052620186a0600e5f6101000a81548163ffffffff021916908363ffffffff1602179055506003600e60046101000a81548161ffff021916908361ffff1602179055506001600e60066101000a81548163ffffffff021916908363ffffffff16021790555034801562000073575f80fd5b5060405162001f1138038062001f1183398181016040528101906200009991906200043e565b33805f738103b0a8a00be2ddc778e6e7eaa21791cd3646258073ffffffffffffffffffffffffffffffffffffffff1660808173ffffffffffffffffffffffffffffffffffffffff1681525050505f73ffffffffffffffffffffffffffffffffffffffff168273ffffffffffffffffffffffffffffffffffffffff160362000157576040517f08c379a00000000000000000000000000000000000000000000000000000000081526004016200014e90620004cc565b60405180910390fd5b815f806101000a81548173ffffffffffffffffffffffffffffffffffffffff021916908373ffffffffffffffffffffffffffffffffffffffff1602179055505f73ffffffffffffffffffffffffffffffffffffffff168173ffffffffffffffffffffffffffffffffffffffff1614620001dc57620001db81620002cb60201b60201c565b5b5050503360025f6101000a81548173ffffffffffffffffffffffffffffffffffffffff021916908373ffffffffffffffffffffffffffffffffffffffff160217905550738103b0a8a00be2ddc778e6e7eaa21791cd364625600a5f6101000a81548173ffffffffffffffffffffffffffffffffffffffff021916908373ffffffffffffffffffffffffffffffffffffffff1602179055508060085f6101000a81548167ffffffffffffffff021916908367ffffffffffffffff1602179055507f474e34a077df58807dbe9c96d3c009b23b3c6d0cce433e59bbf5b34f823bc56c5f1b600d81905550506200055a565b3373ffffffffffffffffffffffffffffffffffffffff168173ffffffffffffffffffffffffffffffffffffffff16036200033c576040517f08c379a000000000000000000000000000000000000000000000000000000000815260040162000333906200053a565b60405180910390fd5b8060015f6101000a81548173ffffffffffffffffffffffffffffffffffffffff021916908373ffffffffffffffffffffffffffffffffffffffff1602179055508073ffffffffffffffffffffffffffffffffffffffff165f8054906101000a900473ffffffffffffffffffffffffffffffffffffffff1673ffffffffffffffffffffffffffffffffffffffff167fed8889f560326eb138920d842192f0eb3dd22b4f139c87a2c57538e05bae127860405160405180910390a350565b5f80fd5b5f67ffffffffffffffff82169050919050565b6200041a81620003fc565b811462000425575f80fd5b50565b5f8151905062000438816200040f565b92915050565b5f60208284031215620004565762000455620003f8565b5b5f620004658482850162000428565b91505092915050565b5f82825260208201905092915050565b7f43616e6e6f7420736574206f776e657220746f207a65726f00000000000000005f82015250565b5f620004b46018836200046e565b9150620004c1826200047e565b602082019050919050565b5f6020820190508181035f830152620004e581620004a6565b9050919050565b7f43616e6e6f74207472616e7366657220746f2073656c660000000000000000005f82015250565b5f620005226017836200046e565b91506200052f82620004ec565b602082019050919050565b5f6020820190508181035f830152620005538162000514565b9050919050565b6080516119976200057a5f395f81816104fc015261055001526119975ff3fe608060405260043610610117575f3560e01c80638796ba8c1161009f578063b0fb162f11610063578063b0fb162f14610438578063d826f88f14610462578063dfbf53ae14610478578063f2fde38b146104a2578063fc2a88c3146104ca576101c7565b80638796ba8c146103415780638ac000211461037d5780638da5cb5b146103a75780638e7ea5b2146103d1578063a168fa89146103fb576101c7565b806342619f66116100e657806342619f6614610283578063481c6a75146102ad578063522a1f0b146102d757806379ba5097146103015780637ccfd7fc14610317576101c7565b8063041d443e146101cb5780631fe543e3146101f557806324f746971461021d57806335c1d34914610247576101c7565b366101c757670de0b6b3a76400003414610166576040517f08c379a000000000000000000000000000000000000000000000000000000000815260040161015d90611116565b60405180910390fd5b600333908060018154018082558091505060019003905f5260205f20015f9091909190916101000a81548173ffffffffffffffffffffffffffffffffffffffff021916908373ffffffffffffffffffffffffffffffffffffffff1602179055005b5f80fd5b3480156101d6575f80fd5b506101df6104f4565b6040516101ec919061114c565b60405180910390f35b348015610200575f80fd5b5061021b600480360381019061021691906112f9565b6104fa565b005b348015610228575f80fd5b506102316105ba565b60405161023e9190611371565b60405180910390f35b348015610252575f80fd5b5061026d6004803603810190610268919061138a565b6105cf565b60405161027a91906113f4565b60405180910390f35b34801561028e575f80fd5b5061029761060a565b6040516102a4919061141c565b60405180910390f35b3480156102b8575f80fd5b506102c1610610565b6040516102ce9190611455565b60405180910390f35b3480156102e2575f80fd5b506102eb610635565b6040516102f8919061141c565b60405180910390f35b34801561030c575f80fd5b5061031561087c565b005b348015610322575f80fd5b5061032b610a0b565b6040516103389190611371565b60405180910390f35b34801561034c575f80fd5b506103676004803603810190610362919061138a565b610a21565b604051610374919061141c565b60405180910390f35b348015610388575f80fd5b50610391610a41565b60405161039e9190611490565b60405180910390f35b3480156103b2575f80fd5b506103bb610a5a565b6040516103c89190611455565b60405180910390f35b3480156103dc575f80fd5b506103e5610a81565b6040516103f29190611455565b60405180910390f35b348015610406575f80fd5b50610421600480360381019061041c919061138a565b610aa9565b60405161042f9291906114c3565b60405180910390f35b348015610443575f80fd5b5061044c610ae1565b6040516104599190611506565b60405180910390f35b34801561046d575f80fd5b50610476610af5565b005b348015610483575f80fd5b5061048c610ba5565b60405161049991906113f4565b60405180910390f35b3480156104ad575f80fd5b506104c860048036038101906104c39190611549565b610bca565b005b3480156104d5575f80fd5b506104de610bde565b6040516104eb919061141c565b60405180910390f35b600d5481565b7f000000000000000000000000000000000000000000000000000000000000000073ffffffffffffffffffffffffffffffffffffffff163373ffffffffffffffffffffffffffffffffffffffff16146105ac57337f00000000000000000000000000000000000000000000000000000000000000006040517f1cf993f40000000000000000000000000000000000000000000000000000000081526004016105a3929190611574565b60405180910390fd5b6105b68282610be4565b5050565b600e5f9054906101000a900463ffffffff1681565b600381815481106105de575f80fd5b905f5260205f20015f915054906101000a900473ffffffffffffffffffffffffffffffffffffffff1681565b60055481565b60025f9054906101000a900473ffffffffffffffffffffffffffffffffffffffff1681565b5f61063e610cde565b600a5f9054906101000a900473ffffffffffffffffffffffffffffffffffffffff1673ffffffffffffffffffffffffffffffffffffffff16635d3b1d30600d5460085f9054906101000a900467ffffffffffffffff16600e60049054906101000a900461ffff16600e5f9054906101000a900463ffffffff16600e60069054906101000a900463ffffffff166040518663ffffffff1660e01b81526004016106ea95949392919061159b565b6020604051808303815f875af1158015610706573d5f803e3d5ffd5b505050506040513d601f19601f8201168201806040525081019061072a9190611600565b905060405180606001604052805f151581526020016001151581526020015f67ffffffffffffffff811115610762576107616111bd565b5b6040519080825280602002602001820160405280156107905781602001602082028036833780820191505090505b5081525060095f8381526020019081526020015f205f820151815f015f6101000a81548160ff0219169083151502179055506020820151815f0160016101000a81548160ff02191690831515021790555060408201518160010190805190602001906107fd929190610fa9565b50905050600b81908060018154018082558091505060019003905f5260205f20015f909190919091505580600c819055507fcc58b13ad3eab50626c6a6300b1d139cd6ebb1688a7cced9461c2f7e762665ee81600e60069054906101000a900463ffffffff1660405161087192919061162b565b60405180910390a190565b60015f9054906101000a900473ffffffffffffffffffffffffffffffffffffffff1673ffffffffffffffffffffffffffffffffffffffff163373ffffffffffffffffffffffffffffffffffffffff161461090b576040517f08c379a00000000000000000000000000000000000000000000000000000000081526004016109029061169c565b60405180910390fd5b5f805f9054906101000a900473ffffffffffffffffffffffffffffffffffffffff169050335f806101000a81548173ffffffffffffffffffffffffffffffffffffffff021916908373ffffffffffffffffffffffffffffffffffffffff1602179055505f60015f6101000a81548173ffffffffffffffffffffffffffffffffffffffff021916908373ffffffffffffffffffffffffffffffffffffffff1602179055503373ffffffffffffffffffffffffffffffffffffffff168173ffffffffffffffffffffffffffffffffffffffff167f8be0079c531659141344cd1fd0a4f28419497f9722a3daafe3b4186f6b6457e060405160405180910390a350565b600e60069054906101000a900463ffffffff1681565b600b8181548110610a30575f80fd5b905f5260205f20015f915090505481565b60085f9054906101000a900467ffffffffffffffff1681565b5f805f9054906101000a900473ffffffffffffffffffffffffffffffffffffffff16905090565b5f60045f9054906101000a900473ffffffffffffffffffffffffffffffffffffffff16905090565b6009602052805f5260405f205f91509050805f015f9054906101000a900460ff1690805f0160019054906101000a900460ff16905082565b600e60049054906101000a900461ffff1681565b610afd610cde565b5f67ffffffffffffffff811115610b1757610b166111bd565b5b604051908082528060200260200182016040528015610b455781602001602082028036833780820191505090505b5060039080519060200190610b5b929190610ff4565b505f60045f6101000a81548173ffffffffffffffffffffffffffffffffffffffff021916908373ffffffffffffffffffffffffffffffffffffffff1602179055505f600581905550565b60045f9054906101000a900473ffffffffffffffffffffffffffffffffffffffff1681565b610bd2610cde565b610bdb81610d6d565b50565b600c5481565b60095f8381526020019081526020015f205f0160019054906101000a900460ff16610c44576040517f08c379a0000000000000000000000000000000000000000000000000000000008152600401610c3b90611704565b60405180910390fd5b600160095f8481526020019081526020015f205f015f6101000a81548160ff0219169083151502179055508060095f8481526020019081526020015f206001019080519060200190610c97929190610fa9565b50610ca181610e97565b7ffe2e2d779dba245964d4e3ef9b994be63856fd568bf7d3ca9e224755cb1bd54d8282604051610cd29291906117d9565b60405180910390a15050565b5f8054906101000a900473ffffffffffffffffffffffffffffffffffffffff1673ffffffffffffffffffffffffffffffffffffffff163373ffffffffffffffffffffffffffffffffffffffff1614610d6b576040517f08c379a0000000000000000000000000000000000000000000000000000000008152600401610d6290611851565b60405180910390fd5b565b3373ffffffffffffffffffffffffffffffffffffffff168173ffffffffffffffffffffffffffffffffffffffff1603610ddb576040517f08c379a0000000000000000000000000000000000000000000000000000000008152600401610dd2906118b9565b60405180910390fd5b8060015f6101000a81548173ffffffffffffffffffffffffffffffffffffffff021916908373ffffffffffffffffffffffffffffffffffffffff1602179055508073ffffffffffffffffffffffffffffffffffffffff165f8054906101000a900473ffffffffffffffffffffffffffffffffffffffff1673ffffffffffffffffffffffffffffffffffffffff167fed8889f560326eb138920d842192f0eb3dd22b4f139c87a2c57538e05bae127860405160405180910390a350565b5f600380549050825f81518110610eb157610eb06118d7565b5b6020026020010151610ec39190611931565b905060038181548110610ed957610ed86118d7565b5b905f5260205f20015f9054906101000a900473ffffffffffffffffffffffffffffffffffffffff1660045f6101000a81548173ffffffffffffffffffffffffffffffffffffffff021916908373ffffffffffffffffffffffffffffffffffffffff16021790555060045f9054906101000a900473ffffffffffffffffffffffffffffffffffffffff1673ffffffffffffffffffffffffffffffffffffffff166108fc4790811502906040515f60405180830381858888f19350505050158015610fa4573d5f803e3d5ffd5b505050565b828054828255905f5260205f20908101928215610fe3579160200282015b82811115610fe2578251825591602001919060010190610fc7565b5b509050610ff0919061107b565b5090565b828054828255905f5260205f2090810192821561106a579160200282015b82811115611069578251825f6101000a81548173ffffffffffffffffffffffffffffffffffffffff021916908373ffffffffffffffffffffffffffffffffffffffff16021790555091602001919060010190611012565b5b509050611077919061107b565b5090565b5b80821115611092575f815f90555060010161107c565b5090565b5f82825260208201905092915050565b7f436f6e747269627574652065786163746c79203120657468657220746f2070615f8201527f7274696369706174650000000000000000000000000000000000000000000000602082015250565b5f611100602983611096565b915061110b826110a6565b604082019050919050565b5f6020820190508181035f83015261112d816110f4565b9050919050565b5f819050919050565b61114681611134565b82525050565b5f60208201905061115f5f83018461113d565b92915050565b5f604051905090565b5f80fd5b5f80fd5b5f819050919050565b61118881611176565b8114611192575f80fd5b50565b5f813590506111a38161117f565b92915050565b5f80fd5b5f601f19601f8301169050919050565b7f4e487b71000000000000000000000000000000000000000000000000000000005f52604160045260245ffd5b6111f3826111ad565b810181811067ffffffffffffffff82111715611212576112116111bd565b5b80604052505050565b5f611224611165565b905061123082826111ea565b919050565b5f67ffffffffffffffff82111561124f5761124e6111bd565b5b602082029050602081019050919050565b5f80fd5b5f61127661127184611235565b61121b565b9050808382526020820190506020840283018581111561129957611298611260565b5b835b818110156112c257806112ae8882611195565b84526020840193505060208101905061129b565b5050509392505050565b5f82601f8301126112e0576112df6111a9565b5b81356112f0848260208601611264565b91505092915050565b5f806040838503121561130f5761130e61116e565b5b5f61131c85828601611195565b925050602083013567ffffffffffffffff81111561133d5761133c611172565b5b611349858286016112cc565b9150509250929050565b5f63ffffffff82169050919050565b61136b81611353565b82525050565b5f6020820190506113845f830184611362565b92915050565b5f6020828403121561139f5761139e61116e565b5b5f6113ac84828501611195565b91505092915050565b5f73ffffffffffffffffffffffffffffffffffffffff82169050919050565b5f6113de826113b5565b9050919050565b6113ee816113d4565b82525050565b5f6020820190506114075f8301846113e5565b92915050565b61141681611176565b82525050565b5f60208201905061142f5f83018461140d565b92915050565b5f61143f826113b5565b9050919050565b61144f81611435565b82525050565b5f6020820190506114685f830184611446565b92915050565b5f67ffffffffffffffff82169050919050565b61148a8161146e565b82525050565b5f6020820190506114a35f830184611481565b92915050565b5f8115159050919050565b6114bd816114a9565b82525050565b5f6040820190506114d65f8301856114b4565b6114e360208301846114b4565b9392505050565b5f61ffff82169050919050565b611500816114ea565b82525050565b5f6020820190506115195f8301846114f7565b92915050565b61152881611435565b8114611532575f80fd5b50565b5f813590506115438161151f565b92915050565b5f6020828403121561155e5761155d61116e565b5b5f61156b84828501611535565b91505092915050565b5f6040820190506115875f830185611446565b6115946020830184611446565b9392505050565b5f60a0820190506115ae5f83018861113d565b6115bb6020830187611481565b6115c860408301866114f7565b6115d56060830185611362565b6115e26080830184611362565b9695505050505050565b5f815190506115fa8161117f565b92915050565b5f602082840312156116155761161461116e565b5b5f611622848285016115ec565b91505092915050565b5f60408201905061163e5f83018561140d565b61164b6020830184611362565b9392505050565b7f4d7573742062652070726f706f736564206f776e6572000000000000000000005f82015250565b5f611686601683611096565b915061169182611652565b602082019050919050565b5f6020820190508181035f8301526116b38161167a565b9050919050565b7f72657175657374206e6f7420666f756e640000000000000000000000000000005f82015250565b5f6116ee601183611096565b91506116f9826116ba565b602082019050919050565b5f6020820190508181035f83015261171b816116e2565b9050919050565b5f81519050919050565b5f82825260208201905092915050565b5f819050602082019050919050565b61175481611176565b82525050565b5f611765838361174b565b60208301905092915050565b5f602082019050919050565b5f61178782611722565b611791818561172c565b935061179c8361173c565b805f5b838110156117cc5781516117b3888261175a565b97506117be83611771565b92505060018101905061179f565b5085935050505092915050565b5f6040820190506117ec5f83018561140d565b81810360208301526117fe818461177d565b90509392505050565b7f4f6e6c792063616c6c61626c65206279206f776e6572000000000000000000005f82015250565b5f61183b601683611096565b915061184682611807565b602082019050919050565b5f6020820190508181035f8301526118688161182f565b9050919050565b7f43616e6e6f74207472616e7366657220746f2073656c660000000000000000005f82015250565b5f6118a3601783611096565b91506118ae8261186f565b602082019050919050565b5f6020820190508181035f8301526118d081611897565b9050919050565b7f4e487b71000000000000000000000000000000000000000000000000000000005f52603260045260245ffd5b7f4e487b71000000000000000000000000000000000000000000000000000000005f52601260045260245ffd5b5f61193b82611176565b915061194683611176565b92508261195657611955611904565b5b82820690509291505056fea26469706673582212201a1b839cdcfd22f1e882e32516ebeb1d5910f248bf82ae70b83ba4ac6d650b2864736f6c63430008160033",
					"opcodes": "PUSH1 0xA0 PUSH1 0x40 MSTORE PUSH3 0x186A0 PUSH1 0xE PUSH0 PUSH2 0x100 EXP DUP2 SLOAD DUP2 PUSH4 0xFFFFFFFF MUL NOT AND SWAP1 DUP4 PUSH4 0xFFFFFFFF AND MUL OR SWAP1 SSTORE POP PUSH1 0x3 PUSH1 0xE PUSH1 0x4 PUSH2 0x100 EXP DUP2 SLOAD DUP2 PUSH2 0xFFFF MUL NOT AND SWAP1 DUP4 PUSH2 0xFFFF AND MUL OR SWAP1 SSTORE POP PUSH1 0x1 PUSH1 0xE PUSH1 0x6 PUSH2 0x100 EXP DUP2 SLOAD DUP2 PUSH4 0xFFFFFFFF MUL NOT AND SWAP1 DUP4 PUSH4 0xFFFFFFFF AND MUL OR SWAP1 SSTORE POP CALLVALUE DUP1 ISZERO PUSH3 0x73 JUMPI PUSH0 DUP1 REVERT JUMPDEST POP PUSH1 0x40 MLOAD PUSH3 0x1F11 CODESIZE SUB DUP1 PUSH3 0x1F11 DUP4 CODECOPY DUP2 DUP2 ADD PUSH1 0x40 MSTORE DUP2 ADD SWAP1 PUSH3 0x99 SWAP2 SWAP1 PUSH3 0x43E JUMP JUMPDEST CALLER DUP1 PUSH0 PUSH20 0x8103B0A8A00BE2DDC778E6E7EAA21791CD364625 DUP1 PUSH20 0xFFFFFFFFFFFFFFFFFFFFFFFFFFFFFFFFFFFFFFFF AND PUSH1 0x80 DUP2 PUSH20 0xFFFFFFFFFFFFFFFFFFFFFFFFFFFFFFFFFFFFFFFF AND DUP2 MSTORE POP POP POP PUSH0 PUSH20 0xFFFFFFFFFFFFFFFFFFFFFFFFFFFFFFFFFFFFFFFF AND DUP3 PUSH20 0xFFFFFFFFFFFFFFFFFFFFFFFFFFFFFFFFFFFFFFFF AND SUB PUSH3 0x157 JUMPI PUSH1 0x40 MLOAD PUSH32 0x8C379A000000000000000000000000000000000000000000000000000000000 DUP2 MSTORE PUSH1 0x4 ADD PUSH3 0x14E SWAP1 PUSH3 0x4CC JUMP JUMPDEST PUSH1 0x40 MLOAD DUP1 SWAP2 SUB SWAP1 REVERT JUMPDEST DUP2 PUSH0 DUP1 PUSH2 0x100 EXP DUP2 SLOAD DUP2 PUSH20 0xFFFFFFFFFFFFFFFFFFFFFFFFFFFFFFFFFFFFFFFF MUL NOT AND SWAP1 DUP4 PUSH20 0xFFFFFFFFFFFFFFFFFFFFFFFFFFFFFFFFFFFFFFFF AND MUL OR SWAP1 SSTORE POP PUSH0 PUSH20 0xFFFFFFFFFFFFFFFFFFFFFFFFFFFFFFFFFFFFFFFF AND DUP2 PUSH20 0xFFFFFFFFFFFFFFFFFFFFFFFFFFFFFFFFFFFFFFFF AND EQ PUSH3 0x1DC JUMPI PUSH3 0x1DB DUP2 PUSH3 0x2CB PUSH1 0x20 SHL PUSH1 0x20 SHR JUMP JUMPDEST JUMPDEST POP POP POP CALLER PUSH1 0x2 PUSH0 PUSH2 0x100 EXP DUP2 SLOAD DUP2 PUSH20 0xFFFFFFFFFFFFFFFFFFFFFFFFFFFFFFFFFFFFFFFF MUL NOT AND SWAP1 DUP4 PUSH20 0xFFFFFFFFFFFFFFFFFFFFFFFFFFFFFFFFFFFFFFFF AND MUL OR SWAP1 SSTORE POP PUSH20 0x8103B0A8A00BE2DDC778E6E7EAA21791CD364625 PUSH1 0xA PUSH0 PUSH2 0x100 EXP DUP2 SLOAD DUP2 PUSH20 0xFFFFFFFFFFFFFFFFFFFFFFFFFFFFFFFFFFFFFFFF MUL NOT AND SWAP1 DUP4 PUSH20 0xFFFFFFFFFFFFFFFFFFFFFFFFFFFFFFFFFFFFFFFF AND MUL OR SWAP1 SSTORE POP DUP1 PUSH1 0x8 PUSH0 PUSH2 0x100 EXP DUP2 SLOAD DUP2 PUSH8 0xFFFFFFFFFFFFFFFF MUL NOT AND SWAP1 DUP4 PUSH8 0xFFFFFFFFFFFFFFFF AND MUL OR SWAP1 SSTORE POP PUSH32 0x474E34A077DF58807DBE9C96D3C009B23B3C6D0CCE433E59BBF5B34F823BC56C PUSH0 SHL PUSH1 0xD DUP2 SWAP1 SSTORE POP POP PUSH3 0x55A JUMP JUMPDEST CALLER PUSH20 0xFFFFFFFFFFFFFFFFFFFFFFFFFFFFFFFFFFFFFFFF AND DUP2 PUSH20 0xFFFFFFFFFFFFFFFFFFFFFFFFFFFFFFFFFFFFFFFF AND SUB PUSH3 0x33C JUMPI PUSH1 0x40 MLOAD PUSH32 0x8C379A000000000000000000000000000000000000000000000000000000000 DUP2 MSTORE PUSH1 0x4 ADD PUSH3 0x333 SWAP1 PUSH3 0x53A JUMP JUMPDEST PUSH1 0x40 MLOAD DUP1 SWAP2 SUB SWAP1 REVERT JUMPDEST DUP1 PUSH1 0x1 PUSH0 PUSH2 0x100 EXP DUP2 SLOAD DUP2 PUSH20 0xFFFFFFFFFFFFFFFFFFFFFFFFFFFFFFFFFFFFFFFF MUL NOT AND SWAP1 DUP4 PUSH20 0xFFFFFFFFFFFFFFFFFFFFFFFFFFFFFFFFFFFFFFFF AND MUL OR SWAP1 SSTORE POP DUP1 PUSH20 0xFFFFFFFFFFFFFFFFFFFFFFFFFFFFFFFFFFFFFFFF AND PUSH0 DUP1 SLOAD SWAP1 PUSH2 0x100 EXP SWAP1 DIV PUSH20 0xFFFFFFFFFFFFFFFFFFFFFFFFFFFFFFFFFFFFFFFF AND PUSH20 0xFFFFFFFFFFFFFFFFFFFFFFFFFFFFFFFFFFFFFFFF AND PUSH32 0xED8889F560326EB138920D842192F0EB3DD22B4F139C87A2C57538E05BAE1278 PUSH1 0x40 MLOAD PUSH1 0x40 MLOAD DUP1 SWAP2 SUB SWAP1 LOG3 POP JUMP JUMPDEST PUSH0 DUP1 REVERT JUMPDEST PUSH0 PUSH8 0xFFFFFFFFFFFFFFFF DUP3 AND SWAP1 POP SWAP2 SWAP1 POP JUMP JUMPDEST PUSH3 0x41A DUP2 PUSH3 0x3FC JUMP JUMPDEST DUP2 EQ PUSH3 0x425 JUMPI PUSH0 DUP1 REVERT JUMPDEST POP JUMP JUMPDEST PUSH0 DUP2 MLOAD SWAP1 POP PUSH3 0x438 DUP2 PUSH3 0x40F JUMP JUMPDEST SWAP3 SWAP2 POP POP JUMP JUMPDEST PUSH0 PUSH1 0x20 DUP3 DUP5 SUB SLT ISZERO PUSH3 0x456 JUMPI PUSH3 0x455 PUSH3 0x3F8 JUMP JUMPDEST JUMPDEST PUSH0 PUSH3 0x465 DUP5 DUP3 DUP6 ADD PUSH3 0x428 JUMP JUMPDEST SWAP2 POP POP SWAP3 SWAP2 POP POP JUMP JUMPDEST PUSH0 DUP3 DUP3 MSTORE PUSH1 0x20 DUP3 ADD SWAP1 POP SWAP3 SWAP2 POP POP JUMP JUMPDEST PUSH32 0x43616E6E6F7420736574206F776E657220746F207A65726F0000000000000000 PUSH0 DUP3 ADD MSTORE POP JUMP JUMPDEST PUSH0 PUSH3 0x4B4 PUSH1 0x18 DUP4 PUSH3 0x46E JUMP JUMPDEST SWAP2 POP PUSH3 0x4C1 DUP3 PUSH3 0x47E JUMP JUMPDEST PUSH1 0x20 DUP3 ADD SWAP1 POP SWAP2 SWAP1 POP JUMP JUMPDEST PUSH0 PUSH1 0x20 DUP3 ADD SWAP1 POP DUP2 DUP2 SUB PUSH0 DUP4 ADD MSTORE PUSH3 0x4E5 DUP2 PUSH3 0x4A6 JUMP JUMPDEST SWAP1 POP SWAP2 SWAP1 POP JUMP JUMPDEST PUSH32 0x43616E6E6F74207472616E7366657220746F2073656C66000000000000000000 PUSH0 DUP3 ADD MSTORE POP JUMP JUMPDEST PUSH0 PUSH3 0x522 PUSH1 0x17 DUP4 PUSH3 0x46E JUMP JUMPDEST SWAP2 POP PUSH3 0x52F DUP3 PUSH3 0x4EC JUMP JUMPDEST PUSH1 0x20 DUP3 ADD SWAP1 POP SWAP2 SWAP1 POP JUMP JUMPDEST PUSH0 PUSH1 0x20 DUP3 ADD SWAP1 POP DUP2 DUP2 SUB PUSH0 DUP4 ADD MSTORE PUSH3 0x553 DUP2 PUSH3 0x514 JUMP JUMPDEST SWAP1 POP SWAP2 SWAP1 POP JUMP JUMPDEST PUSH1 0x80 MLOAD PUSH2 0x1997 PUSH3 0x57A PUSH0 CODECOPY PUSH0 DUP2 DUP2 PUSH2 0x4FC ADD MSTORE PUSH2 0x550 ADD MSTORE PUSH2 0x1997 PUSH0 RETURN INVALID PUSH1 0x80 PUSH1 0x40 MSTORE PUSH1 0x4 CALLDATASIZE LT PUSH2 0x117 JUMPI PUSH0 CALLDATALOAD PUSH1 0xE0 SHR DUP1 PUSH4 0x8796BA8C GT PUSH2 0x9F JUMPI DUP1 PUSH4 0xB0FB162F GT PUSH2 0x63 JUMPI DUP1 PUSH4 0xB0FB162F EQ PUSH2 0x438 JUMPI DUP1 PUSH4 0xD826F88F EQ PUSH2 0x462 JUMPI DUP1 PUSH4 0xDFBF53AE EQ PUSH2 0x478 JUMPI DUP1 PUSH4 0xF2FDE38B EQ PUSH2 0x4A2 JUMPI DUP1 PUSH4 0xFC2A88C3 EQ PUSH2 0x4CA JUMPI PUSH2 0x1C7 JUMP JUMPDEST DUP1 PUSH4 0x8796BA8C EQ PUSH2 0x341 JUMPI DUP1 PUSH4 0x8AC00021 EQ PUSH2 0x37D JUMPI DUP1 PUSH4 0x8DA5CB5B EQ PUSH2 0x3A7 JUMPI DUP1 PUSH4 0x8E7EA5B2 EQ PUSH2 0x3D1 JUMPI DUP1 PUSH4 0xA168FA89 EQ PUSH2 0x3FB JUMPI PUSH2 0x1C7 JUMP JUMPDEST DUP1 PUSH4 0x42619F66 GT PUSH2 0xE6 JUMPI DUP1 PUSH4 0x42619F66 EQ PUSH2 0x283 JUMPI DUP1 PUSH4 0x481C6A75 EQ PUSH2 0x2AD JUMPI DUP1 PUSH4 0x522A1F0B EQ PUSH2 0x2D7 JUMPI DUP1 PUSH4 0x79BA5097 EQ PUSH2 0x301 JUMPI DUP1 PUSH4 0x7CCFD7FC EQ PUSH2 0x317 JUMPI PUSH2 0x1C7 JUMP JUMPDEST DUP1 PUSH4 0x41D443E EQ PUSH2 0x1CB JUMPI DUP1 PUSH4 0x1FE543E3 EQ PUSH2 0x1F5 JUMPI DUP1 PUSH4 0x24F74697 EQ PUSH2 0x21D JUMPI DUP1 PUSH4 0x35C1D349 EQ PUSH2 0x247 JUMPI PUSH2 0x1C7 JUMP JUMPDEST CALLDATASIZE PUSH2 0x1C7 JUMPI PUSH8 0xDE0B6B3A7640000 CALLVALUE EQ PUSH2 0x166 JUMPI PUSH1 0x40 MLOAD PUSH32 0x8C379A000000000000000000000000000000000000000000000000000000000 DUP2 MSTORE PUSH1 0x4 ADD PUSH2 0x15D SWAP1 PUSH2 0x1116 JUMP JUMPDEST PUSH1 0x40 MLOAD DUP1 SWAP2 SUB SWAP1 REVERT JUMPDEST PUSH1 0x3 CALLER SWAP1 DUP1 PUSH1 0x1 DUP2 SLOAD ADD DUP1 DUP3 SSTORE DUP1 SWAP2 POP POP PUSH1 0x1 SWAP1 SUB SWAP1 PUSH0 MSTORE PUSH1 0x20 PUSH0 KECCAK256 ADD PUSH0 SWAP1 SWAP2 SWAP1 SWAP2 SWAP1 SWAP2 PUSH2 0x100 EXP DUP2 SLOAD DUP2 PUSH20 0xFFFFFFFFFFFFFFFFFFFFFFFFFFFFFFFFFFFFFFFF MUL NOT AND SWAP1 DUP4 PUSH20 0xFFFFFFFFFFFFFFFFFFFFFFFFFFFFFFFFFFFFFFFF AND MUL OR SWAP1 SSTORE STOP JUMPDEST PUSH0 DUP1 REVERT JUMPDEST CALLVALUE DUP1 ISZERO PUSH2 0x1D6 JUMPI PUSH0 DUP1 REVERT JUMPDEST POP PUSH2 0x1DF PUSH2 0x4F4 JUMP JUMPDEST PUSH1 0x40 MLOAD PUSH2 0x1EC SWAP2 SWAP1 PUSH2 0x114C JUMP JUMPDEST PUSH1 0x40 MLOAD DUP1 SWAP2 SUB SWAP1 RETURN JUMPDEST CALLVALUE DUP1 ISZERO PUSH2 0x200 JUMPI PUSH0 DUP1 REVERT JUMPDEST POP PUSH2 0x21B PUSH1 0x4 DUP1 CALLDATASIZE SUB DUP2 ADD SWAP1 PUSH2 0x216 SWAP2 SWAP1 PUSH2 0x12F9 JUMP JUMPDEST PUSH2 0x4FA JUMP JUMPDEST STOP JUMPDEST CALLVALUE DUP1 ISZERO PUSH2 0x228 JUMPI PUSH0 DUP1 REVERT JUMPDEST POP PUSH2 0x231 PUSH2 0x5BA JUMP JUMPDEST PUSH1 0x40 MLOAD PUSH2 0x23E SWAP2 SWAP1 PUSH2 0x1371 JUMP JUMPDEST PUSH1 0x40 MLOAD DUP1 SWAP2 SUB SWAP1 RETURN JUMPDEST CALLVALUE DUP1 ISZERO PUSH2 0x252 JUMPI PUSH0 DUP1 REVERT JUMPDEST POP PUSH2 0x26D PUSH1 0x4 DUP1 CALLDATASIZE SUB DUP2 ADD SWAP1 PUSH2 0x268 SWAP2 SWAP1 PUSH2 0x138A JUMP JUMPDEST PUSH2 0x5CF JUMP JUMPDEST PUSH1 0x40 MLOAD PUSH2 0x27A SWAP2 SWAP1 PUSH2 0x13F4 JUMP JUMPDEST PUSH1 0x40 MLOAD DUP1 SWAP2 SUB SWAP1 RETURN JUMPDEST CALLVALUE DUP1 ISZERO PUSH2 0x28E JUMPI PUSH0 DUP1 REVERT JUMPDEST POP PUSH2 0x297 PUSH2 0x60A JUMP JUMPDEST PUSH1 0x40 MLOAD PUSH2 0x2A4 SWAP2 SWAP1 PUSH2 0x141C JUMP JUMPDEST PUSH1 0x40 MLOAD DUP1 SWAP2 SUB SWAP1 RETURN JUMPDEST CALLVALUE DUP1 ISZERO PUSH2 0x2B8 JUMPI PUSH0 DUP1 REVERT JUMPDEST POP PUSH2 0x2C1 PUSH2 0x610 JUMP JUMPDEST PUSH1 0x40 MLOAD PUSH2 0x2CE SWAP2 SWAP1 PUSH2 0x1455 JUMP JUMPDEST PUSH1 0x40 MLOAD DUP1 SWAP2 SUB SWAP1 RETURN JUMPDEST CALLVALUE DUP1 ISZERO PUSH2 0x2E2 JUMPI PUSH0 DUP1 REVERT JUMPDEST POP PUSH2 0x2EB PUSH2 0x635 JUMP JUMPDEST PUSH1 0x40 MLOAD PUSH2 0x2F8 SWAP2 SWAP1 PUSH2 0x141C JUMP JUMPDEST PUSH1 0x40 MLOAD DUP1 SWAP2 SUB SWAP1 RETURN JUMPDEST CALLVALUE DUP1 ISZERO PUSH2 0x30C JUMPI PUSH0 DUP1 REVERT JUMPDEST POP PUSH2 0x315 PUSH2 0x87C JUMP JUMPDEST STOP JUMPDEST CALLVALUE DUP1 ISZERO PUSH2 0x322 JUMPI PUSH0 DUP1 REVERT JUMPDEST POP PUSH2 0x32B PUSH2 0xA0B JUMP JUMPDEST PUSH1 0x40 MLOAD PUSH2 0x338 SWAP2 SWAP1 PUSH2 0x1371 JUMP JUMPDEST PUSH1 0x40 MLOAD DUP1 SWAP2 SUB SWAP1 RETURN JUMPDEST CALLVALUE DUP1 ISZERO PUSH2 0x34C JUMPI PUSH0 DUP1 REVERT JUMPDEST POP PUSH2 0x367 PUSH1 0x4 DUP1 CALLDATASIZE SUB DUP2 ADD SWAP1 PUSH2 0x362 SWAP2 SWAP1 PUSH2 0x138A JUMP JUMPDEST PUSH2 0xA21 JUMP JUMPDEST PUSH1 0x40 MLOAD PUSH2 0x374 SWAP2 SWAP1 PUSH2 0x141C JUMP JUMPDEST PUSH1 0x40 MLOAD DUP1 SWAP2 SUB SWAP1 RETURN JUMPDEST CALLVALUE DUP1 ISZERO PUSH2 0x388 JUMPI PUSH0 DUP1 REVERT JUMPDEST POP PUSH2 0x391 PUSH2 0xA41 JUMP JUMPDEST PUSH1 0x40 MLOAD PUSH2 0x39E SWAP2 SWAP1 PUSH2 0x1490 JUMP JUMPDEST PUSH1 0x40 MLOAD DUP1 SWAP2 SUB SWAP1 RETURN JUMPDEST CALLVALUE DUP1 ISZERO PUSH2 0x3B2 JUMPI PUSH0 DUP1 REVERT JUMPDEST POP PUSH2 0x3BB PUSH2 0xA5A JUMP JUMPDEST PUSH1 0x40 MLOAD PUSH2 0x3C8 SWAP2 SWAP1 PUSH2 0x1455 JUMP JUMPDEST PUSH1 0x40 MLOAD DUP1 SWAP2 SUB SWAP1 RETURN JUMPDEST CALLVALUE DUP1 ISZERO PUSH2 0x3DC JUMPI PUSH0 DUP1 REVERT JUMPDEST POP PUSH2 0x3E5 PUSH2 0xA81 JUMP JUMPDEST PUSH1 0x40 MLOAD PUSH2 0x3F2 SWAP2 SWAP1 PUSH2 0x1455 JUMP JUMPDEST PUSH1 0x40 MLOAD DUP1 SWAP2 SUB SWAP1 RETURN JUMPDEST CALLVALUE DUP1 ISZERO PUSH2 0x406 JUMPI PUSH0 DUP1 REVERT JUMPDEST POP PUSH2 0x421 PUSH1 0x4 DUP1 CALLDATASIZE SUB DUP2 ADD SWAP1 PUSH2 0x41C SWAP2 SWAP1 PUSH2 0x138A JUMP JUMPDEST PUSH2 0xAA9 JUMP JUMPDEST PUSH1 0x40 MLOAD PUSH2 0x42F SWAP3 SWAP2 SWAP1 PUSH2 0x14C3 JUMP JUMPDEST PUSH1 0x40 MLOAD DUP1 SWAP2 SUB SWAP1 RETURN JUMPDEST CALLVALUE DUP1 ISZERO PUSH2 0x443 JUMPI PUSH0 DUP1 REVERT JUMPDEST POP PUSH2 0x44C PUSH2 0xAE1 JUMP JUMPDEST PUSH1 0x40 MLOAD PUSH2 0x459 SWAP2 SWAP1 PUSH2 0x1506 JUMP JUMPDEST PUSH1 0x40 MLOAD DUP1 SWAP2 SUB SWAP1 RETURN JUMPDEST CALLVALUE DUP1 ISZERO PUSH2 0x46D JUMPI PUSH0 DUP1 REVERT JUMPDEST POP PUSH2 0x476 PUSH2 0xAF5 JUMP JUMPDEST STOP JUMPDEST CALLVALUE DUP1 ISZERO PUSH2 0x483 JUMPI PUSH0 DUP1 REVERT JUMPDEST POP PUSH2 0x48C PUSH2 0xBA5 JUMP JUMPDEST PUSH1 0x40 MLOAD PUSH2 0x499 SWAP2 SWAP1 PUSH2 0x13F4 JUMP JUMPDEST PUSH1 0x40 MLOAD DUP1 SWAP2 SUB SWAP1 RETURN JUMPDEST CALLVALUE DUP1 ISZERO PUSH2 0x4AD JUMPI PUSH0 DUP1 REVERT JUMPDEST POP PUSH2 0x4C8 PUSH1 0x4 DUP1 CALLDATASIZE SUB DUP2 ADD SWAP1 PUSH2 0x4C3 SWAP2 SWAP1 PUSH2 0x1549 JUMP JUMPDEST PUSH2 0xBCA JUMP JUMPDEST STOP JUMPDEST CALLVALUE DUP1 ISZERO PUSH2 0x4D5 JUMPI PUSH0 DUP1 REVERT JUMPDEST POP PUSH2 0x4DE PUSH2 0xBDE JUMP JUMPDEST PUSH1 0x40 MLOAD PUSH2 0x4EB SWAP2 SWAP1 PUSH2 0x141C JUMP JUMPDEST PUSH1 0x40 MLOAD DUP1 SWAP2 SUB SWAP1 RETURN JUMPDEST PUSH1 0xD SLOAD DUP2 JUMP JUMPDEST PUSH32 0x0 PUSH20 0xFFFFFFFFFFFFFFFFFFFFFFFFFFFFFFFFFFFFFFFF AND CALLER PUSH20 0xFFFFFFFFFFFFFFFFFFFFFFFFFFFFFFFFFFFFFFFF AND EQ PUSH2 0x5AC JUMPI CALLER PUSH32 0x0 PUSH1 0x40 MLOAD PUSH32 0x1CF993F400000000000000000000000000000000000000000000000000000000 DUP2 MSTORE PUSH1 0x4 ADD PUSH2 0x5A3 SWAP3 SWAP2 SWAP1 PUSH2 0x1574 JUMP JUMPDEST PUSH1 0x40 MLOAD DUP1 SWAP2 SUB SWAP1 REVERT JUMPDEST PUSH2 0x5B6 DUP3 DUP3 PUSH2 0xBE4 JUMP JUMPDEST POP POP JUMP JUMPDEST PUSH1 0xE PUSH0 SWAP1 SLOAD SWAP1 PUSH2 0x100 EXP SWAP1 DIV PUSH4 0xFFFFFFFF AND DUP2 JUMP JUMPDEST PUSH1 0x3 DUP2 DUP2 SLOAD DUP2 LT PUSH2 0x5DE JUMPI PUSH0 DUP1 REVERT JUMPDEST SWAP1 PUSH0 MSTORE PUSH1 0x20 PUSH0 KECCAK256 ADD PUSH0 SWAP2 POP SLOAD SWAP1 PUSH2 0x100 EXP SWAP1 DIV PUSH20 0xFFFFFFFFFFFFFFFFFFFFFFFFFFFFFFFFFFFFFFFF AND DUP2 JUMP JUMPDEST PUSH1 0x5 SLOAD DUP2 JUMP JUMPDEST PUSH1 0x2 PUSH0 SWAP1 SLOAD SWAP1 PUSH2 0x100 EXP SWAP1 DIV PUSH20 0xFFFFFFFFFFFFFFFFFFFFFFFFFFFFFFFFFFFFFFFF AND DUP2 JUMP JUMPDEST PUSH0 PUSH2 0x63E PUSH2 0xCDE JUMP JUMPDEST PUSH1 0xA PUSH0 SWAP1 SLOAD SWAP1 PUSH2 0x100 EXP SWAP1 DIV PUSH20 0xFFFFFFFFFFFFFFFFFFFFFFFFFFFFFFFFFFFFFFFF AND PUSH20 0xFFFFFFFFFFFFFFFFFFFFFFFFFFFFFFFFFFFFFFFF AND PUSH4 0x5D3B1D30 PUSH1 0xD SLOAD PUSH1 0x8 PUSH0 SWAP1 SLOAD SWAP1 PUSH2 0x100 EXP SWAP1 DIV PUSH8 0xFFFFFFFFFFFFFFFF AND PUSH1 0xE PUSH1 0x4 SWAP1 SLOAD SWAP1 PUSH2 0x100 EXP SWAP1 DIV PUSH2 0xFFFF AND PUSH1 0xE PUSH0 SWAP1 SLOAD SWAP1 PUSH2 0x100 EXP SWAP1 DIV PUSH4 0xFFFFFFFF AND PUSH1 0xE PUSH1 0x6 SWAP1 SLOAD SWAP1 PUSH2 0x100 EXP SWAP1 DIV PUSH4 0xFFFFFFFF AND PUSH1 0x40 MLOAD DUP7 PUSH4 0xFFFFFFFF AND PUSH1 0xE0 SHL DUP2 MSTORE PUSH1 0x4 ADD PUSH2 0x6EA SWAP6 SWAP5 SWAP4 SWAP3 SWAP2 SWAP1 PUSH2 0x159B JUMP JUMPDEST PUSH1 0x20 PUSH1 0x40 MLOAD DUP1 DUP4 SUB DUP2 PUSH0 DUP8 GAS CALL ISZERO DUP1 ISZERO PUSH2 0x706 JUMPI RETURNDATASIZE PUSH0 DUP1 RETURNDATACOPY RETURNDATASIZE PUSH0 REVERT JUMPDEST POP POP POP POP PUSH1 0x40 MLOAD RETURNDATASIZE PUSH1 0x1F NOT PUSH1 0x1F DUP3 ADD AND DUP3 ADD DUP1 PUSH1 0x40 MSTORE POP DUP2 ADD SWAP1 PUSH2 0x72A SWAP2 SWAP1 PUSH2 0x1600 JUMP JUMPDEST SWAP1 POP PUSH1 0x40 MLOAD DUP1 PUSH1 0x60 ADD PUSH1 0x40 MSTORE DUP1 PUSH0 ISZERO ISZERO DUP2 MSTORE PUSH1 0x20 ADD PUSH1 0x1 ISZERO ISZERO DUP2 MSTORE PUSH1 0x20 ADD PUSH0 PUSH8 0xFFFFFFFFFFFFFFFF DUP2 GT ISZERO PUSH2 0x762 JUMPI PUSH2 0x761 PUSH2 0x11BD JUMP JUMPDEST JUMPDEST PUSH1 0x40 MLOAD SWAP1 DUP1 DUP3 MSTORE DUP1 PUSH1 0x20 MUL PUSH1 0x20 ADD DUP3 ADD PUSH1 0x40 MSTORE DUP1 ISZERO PUSH2 0x790 JUMPI DUP2 PUSH1 0x20 ADD PUSH1 0x20 DUP3 MUL DUP1 CALLDATASIZE DUP4 CALLDATACOPY DUP1 DUP3 ADD SWAP2 POP POP SWAP1 POP JUMPDEST POP DUP2 MSTORE POP PUSH1 0x9 PUSH0 DUP4 DUP2 MSTORE PUSH1 0x20 ADD SWAP1 DUP2 MSTORE PUSH1 0x20 ADD PUSH0 KECCAK256 PUSH0 DUP3 ADD MLOAD DUP2 PUSH0 ADD PUSH0 PUSH2 0x100 EXP DUP2 SLOAD DUP2 PUSH1 0xFF MUL NOT AND SWAP1 DUP4 ISZERO ISZERO MUL OR SWAP1 SSTORE POP PUSH1 0x20 DUP3 ADD MLOAD DUP2 PUSH0 ADD PUSH1 0x1 PUSH2 0x100 EXP DUP2 SLOAD DUP2 PUSH1 0xFF MUL NOT AND SWAP1 DUP4 ISZERO ISZERO MUL OR SWAP1 SSTORE POP PUSH1 0x40 DUP3 ADD MLOAD DUP2 PUSH1 0x1 ADD SWAP1 DUP1 MLOAD SWAP1 PUSH1 0x20 ADD SWAP1 PUSH2 0x7FD SWAP3 SWAP2 SWAP1 PUSH2 0xFA9 JUMP JUMPDEST POP SWAP1 POP POP PUSH1 0xB DUP2 SWAP1 DUP1 PUSH1 0x1 DUP2 SLOAD ADD DUP1 DUP3 SSTORE DUP1 SWAP2 POP POP PUSH1 0x1 SWAP1 SUB SWAP1 PUSH0 MSTORE PUSH1 0x20 PUSH0 KECCAK256 ADD PUSH0 SWAP1 SWAP2 SWAP1 SWAP2 SWAP1 SWAP2 POP SSTORE DUP1 PUSH1 0xC DUP2 SWAP1 SSTORE POP PUSH32 0xCC58B13AD3EAB50626C6A6300B1D139CD6EBB1688A7CCED9461C2F7E762665EE DUP2 PUSH1 0xE PUSH1 0x6 SWAP1 SLOAD SWAP1 PUSH2 0x100 EXP SWAP1 DIV PUSH4 0xFFFFFFFF AND PUSH1 0x40 MLOAD PUSH2 0x871 SWAP3 SWAP2 SWAP1 PUSH2 0x162B JUMP JUMPDEST PUSH1 0x40 MLOAD DUP1 SWAP2 SUB SWAP1 LOG1 SWAP1 JUMP JUMPDEST PUSH1 0x1 PUSH0 SWAP1 SLOAD SWAP1 PUSH2 0x100 EXP SWAP1 DIV PUSH20 0xFFFFFFFFFFFFFFFFFFFFFFFFFFFFFFFFFFFFFFFF AND PUSH20 0xFFFFFFFFFFFFFFFFFFFFFFFFFFFFFFFFFFFFFFFF AND CALLER PUSH20 0xFFFFFFFFFFFFFFFFFFFFFFFFFFFFFFFFFFFFFFFF AND EQ PUSH2 0x90B JUMPI PUSH1 0x40 MLOAD PUSH32 0x8C379A000000000000000000000000000000000000000000000000000000000 DUP2 MSTORE PUSH1 0x4 ADD PUSH2 0x902 SWAP1 PUSH2 0x169C JUMP JUMPDEST PUSH1 0x40 MLOAD DUP1 SWAP2 SUB SWAP1 REVERT JUMPDEST PUSH0 DUP1 PUSH0 SWAP1 SLOAD SWAP1 PUSH2 0x100 EXP SWAP1 DIV PUSH20 0xFFFFFFFFFFFFFFFFFFFFFFFFFFFFFFFFFFFFFFFF AND SWAP1 POP CALLER PUSH0 DUP1 PUSH2 0x100 EXP DUP2 SLOAD DUP2 PUSH20 0xFFFFFFFFFFFFFFFFFFFFFFFFFFFFFFFFFFFFFFFF MUL NOT AND SWAP1 DUP4 PUSH20 0xFFFFFFFFFFFFFFFFFFFFFFFFFFFFFFFFFFFFFFFF AND MUL OR SWAP1 SSTORE POP PUSH0 PUSH1 0x1 PUSH0 PUSH2 0x100 EXP DUP2 SLOAD DUP2 PUSH20 0xFFFFFFFFFFFFFFFFFFFFFFFFFFFFFFFFFFFFFFFF MUL NOT AND SWAP1 DUP4 PUSH20 0xFFFFFFFFFFFFFFFFFFFFFFFFFFFFFFFFFFFFFFFF AND MUL OR SWAP1 SSTORE POP CALLER PUSH20 0xFFFFFFFFFFFFFFFFFFFFFFFFFFFFFFFFFFFFFFFF AND DUP2 PUSH20 0xFFFFFFFFFFFFFFFFFFFFFFFFFFFFFFFFFFFFFFFF AND PUSH32 0x8BE0079C531659141344CD1FD0A4F28419497F9722A3DAAFE3B4186F6B6457E0 PUSH1 0x40 MLOAD PUSH1 0x40 MLOAD DUP1 SWAP2 SUB SWAP1 LOG3 POP JUMP JUMPDEST PUSH1 0xE PUSH1 0x6 SWAP1 SLOAD SWAP1 PUSH2 0x100 EXP SWAP1 DIV PUSH4 0xFFFFFFFF AND DUP2 JUMP JUMPDEST PUSH1 0xB DUP2 DUP2 SLOAD DUP2 LT PUSH2 0xA30 JUMPI PUSH0 DUP1 REVERT JUMPDEST SWAP1 PUSH0 MSTORE PUSH1 0x20 PUSH0 KECCAK256 ADD PUSH0 SWAP2 POP SWAP1 POP SLOAD DUP2 JUMP JUMPDEST PUSH1 0x8 PUSH0 SWAP1 SLOAD SWAP1 PUSH2 0x100 EXP SWAP1 DIV PUSH8 0xFFFFFFFFFFFFFFFF AND DUP2 JUMP JUMPDEST PUSH0 DUP1 PUSH0 SWAP1 SLOAD SWAP1 PUSH2 0x100 EXP SWAP1 DIV PUSH20 0xFFFFFFFFFFFFFFFFFFFFFFFFFFFFFFFFFFFFFFFF AND SWAP1 POP SWAP1 JUMP JUMPDEST PUSH0 PUSH1 0x4 PUSH0 SWAP1 SLOAD SWAP1 PUSH2 0x100 EXP SWAP1 DIV PUSH20 0xFFFFFFFFFFFFFFFFFFFFFFFFFFFFFFFFFFFFFFFF AND SWAP1 POP SWAP1 JUMP JUMPDEST PUSH1 0x9 PUSH1 0x20 MSTORE DUP1 PUSH0 MSTORE PUSH1 0x40 PUSH0 KECCAK256 PUSH0 SWAP2 POP SWAP1 POP DUP1 PUSH0 ADD PUSH0 SWAP1 SLOAD SWAP1 PUSH2 0x100 EXP SWAP1 DIV PUSH1 0xFF AND SWAP1 DUP1 PUSH0 ADD PUSH1 0x1 SWAP1 SLOAD SWAP1 PUSH2 0x100 EXP SWAP1 DIV PUSH1 0xFF AND SWAP1 POP DUP3 JUMP JUMPDEST PUSH1 0xE PUSH1 0x4 SWAP1 SLOAD SWAP1 PUSH2 0x100 EXP SWAP1 DIV PUSH2 0xFFFF AND DUP2 JUMP JUMPDEST PUSH2 0xAFD PUSH2 0xCDE JUMP JUMPDEST PUSH0 PUSH8 0xFFFFFFFFFFFFFFFF DUP2 GT ISZERO PUSH2 0xB17 JUMPI PUSH2 0xB16 PUSH2 0x11BD JUMP JUMPDEST JUMPDEST PUSH1 0x40 MLOAD SWAP1 DUP1 DUP3 MSTORE DUP1 PUSH1 0x20 MUL PUSH1 0x20 ADD DUP3 ADD PUSH1 0x40 MSTORE DUP1 ISZERO PUSH2 0xB45 JUMPI DUP2 PUSH1 0x20 ADD PUSH1 0x20 DUP3 MUL DUP1 CALLDATASIZE DUP4 CALLDATACOPY DUP1 DUP3 ADD SWAP2 POP POP SWAP1 POP JUMPDEST POP PUSH1 0x3 SWAP1 DUP1 MLOAD SWAP1 PUSH1 0x20 ADD SWAP1 PUSH2 0xB5B SWAP3 SWAP2 SWAP1 PUSH2 0xFF4 JUMP JUMPDEST POP PUSH0 PUSH1 0x4 PUSH0 PUSH2 0x100 EXP DUP2 SLOAD DUP2 PUSH20 0xFFFFFFFFFFFFFFFFFFFFFFFFFFFFFFFFFFFFFFFF MUL NOT AND SWAP1 DUP4 PUSH20 0xFFFFFFFFFFFFFFFFFFFFFFFFFFFFFFFFFFFFFFFF AND MUL OR SWAP1 SSTORE POP PUSH0 PUSH1 0x5 DUP2 SWAP1 SSTORE POP JUMP JUMPDEST PUSH1 0x4 PUSH0 SWAP1 SLOAD SWAP1 PUSH2 0x100 EXP SWAP1 DIV PUSH20 0xFFFFFFFFFFFFFFFFFFFFFFFFFFFFFFFFFFFFFFFF AND DUP2 JUMP JUMPDEST PUSH2 0xBD2 PUSH2 0xCDE JUMP JUMPDEST PUSH2 0xBDB DUP2 PUSH2 0xD6D JUMP JUMPDEST POP JUMP JUMPDEST PUSH1 0xC SLOAD DUP2 JUMP JUMPDEST PUSH1 0x9 PUSH0 DUP4 DUP2 MSTORE PUSH1 0x20 ADD SWAP1 DUP2 MSTORE PUSH1 0x20 ADD PUSH0 KECCAK256 PUSH0 ADD PUSH1 0x1 SWAP1 SLOAD SWAP1 PUSH2 0x100 EXP SWAP1 DIV PUSH1 0xFF AND PUSH2 0xC44 JUMPI PUSH1 0x40 MLOAD PUSH32 0x8C379A000000000000000000000000000000000000000000000000000000000 DUP2 MSTORE PUSH1 0x4 ADD PUSH2 0xC3B SWAP1 PUSH2 0x1704 JUMP JUMPDEST PUSH1 0x40 MLOAD DUP1 SWAP2 SUB SWAP1 REVERT JUMPDEST PUSH1 0x1 PUSH1 0x9 PUSH0 DUP5 DUP2 MSTORE PUSH1 0x20 ADD SWAP1 DUP2 MSTORE PUSH1 0x20 ADD PUSH0 KECCAK256 PUSH0 ADD PUSH0 PUSH2 0x100 EXP DUP2 SLOAD DUP2 PUSH1 0xFF MUL NOT AND SWAP1 DUP4 ISZERO ISZERO MUL OR SWAP1 SSTORE POP DUP1 PUSH1 0x9 PUSH0 DUP5 DUP2 MSTORE PUSH1 0x20 ADD SWAP1 DUP2 MSTORE PUSH1 0x20 ADD PUSH0 KECCAK256 PUSH1 0x1 ADD SWAP1 DUP1 MLOAD SWAP1 PUSH1 0x20 ADD SWAP1 PUSH2 0xC97 SWAP3 SWAP2 SWAP1 PUSH2 0xFA9 JUMP JUMPDEST POP PUSH2 0xCA1 DUP2 PUSH2 0xE97 JUMP JUMPDEST PUSH32 0xFE2E2D779DBA245964D4E3EF9B994BE63856FD568BF7D3CA9E224755CB1BD54D DUP3 DUP3 PUSH1 0x40 MLOAD PUSH2 0xCD2 SWAP3 SWAP2 SWAP1 PUSH2 0x17D9 JUMP JUMPDEST PUSH1 0x40 MLOAD DUP1 SWAP2 SUB SWAP1 LOG1 POP POP JUMP JUMPDEST PUSH0 DUP1 SLOAD SWAP1 PUSH2 0x100 EXP SWAP1 DIV PUSH20 0xFFFFFFFFFFFFFFFFFFFFFFFFFFFFFFFFFFFFFFFF AND PUSH20 0xFFFFFFFFFFFFFFFFFFFFFFFFFFFFFFFFFFFFFFFF AND CALLER PUSH20 0xFFFFFFFFFFFFFFFFFFFFFFFFFFFFFFFFFFFFFFFF AND EQ PUSH2 0xD6B JUMPI PUSH1 0x40 MLOAD PUSH32 0x8C379A000000000000000000000000000000000000000000000000000000000 DUP2 MSTORE PUSH1 0x4 ADD PUSH2 0xD62 SWAP1 PUSH2 0x1851 JUMP JUMPDEST PUSH1 0x40 MLOAD DUP1 SWAP2 SUB SWAP1 REVERT JUMPDEST JUMP JUMPDEST CALLER PUSH20 0xFFFFFFFFFFFFFFFFFFFFFFFFFFFFFFFFFFFFFFFF AND DUP2 PUSH20 0xFFFFFFFFFFFFFFFFFFFFFFFFFFFFFFFFFFFFFFFF AND SUB PUSH2 0xDDB JUMPI PUSH1 0x40 MLOAD PUSH32 0x8C379A000000000000000000000000000000000000000000000000000000000 DUP2 MSTORE PUSH1 0x4 ADD PUSH2 0xDD2 SWAP1 PUSH2 0x18B9 JUMP JUMPDEST PUSH1 0x40 MLOAD DUP1 SWAP2 SUB SWAP1 REVERT JUMPDEST DUP1 PUSH1 0x1 PUSH0 PUSH2 0x100 EXP DUP2 SLOAD DUP2 PUSH20 0xFFFFFFFFFFFFFFFFFFFFFFFFFFFFFFFFFFFFFFFF MUL NOT AND SWAP1 DUP4 PUSH20 0xFFFFFFFFFFFFFFFFFFFFFFFFFFFFFFFFFFFFFFFF AND MUL OR SWAP1 SSTORE POP DUP1 PUSH20 0xFFFFFFFFFFFFFFFFFFFFFFFFFFFFFFFFFFFFFFFF AND PUSH0 DUP1 SLOAD SWAP1 PUSH2 0x100 EXP SWAP1 DIV PUSH20 0xFFFFFFFFFFFFFFFFFFFFFFFFFFFFFFFFFFFFFFFF AND PUSH20 0xFFFFFFFFFFFFFFFFFFFFFFFFFFFFFFFFFFFFFFFF AND PUSH32 0xED8889F560326EB138920D842192F0EB3DD22B4F139C87A2C57538E05BAE1278 PUSH1 0x40 MLOAD PUSH1 0x40 MLOAD DUP1 SWAP2 SUB SWAP1 LOG3 POP JUMP JUMPDEST PUSH0 PUSH1 0x3 DUP1 SLOAD SWAP1 POP DUP3 PUSH0 DUP2 MLOAD DUP2 LT PUSH2 0xEB1 JUMPI PUSH2 0xEB0 PUSH2 0x18D7 JUMP JUMPDEST JUMPDEST PUSH1 0x20 MUL PUSH1 0x20 ADD ADD MLOAD PUSH2 0xEC3 SWAP2 SWAP1 PUSH2 0x1931 JUMP JUMPDEST SWAP1 POP PUSH1 0x3 DUP2 DUP2 SLOAD DUP2 LT PUSH2 0xED9 JUMPI PUSH2 0xED8 PUSH2 0x18D7 JUMP JUMPDEST JUMPDEST SWAP1 PUSH0 MSTORE PUSH1 0x20 PUSH0 KECCAK256 ADD PUSH0 SWAP1 SLOAD SWAP1 PUSH2 0x100 EXP SWAP1 DIV PUSH20 0xFFFFFFFFFFFFFFFFFFFFFFFFFFFFFFFFFFFFFFFF AND PUSH1 0x4 PUSH0 PUSH2 0x100 EXP DUP2 SLOAD DUP2 PUSH20 0xFFFFFFFFFFFFFFFFFFFFFFFFFFFFFFFFFFFFFFFF MUL NOT AND SWAP1 DUP4 PUSH20 0xFFFFFFFFFFFFFFFFFFFFFFFFFFFFFFFFFFFFFFFF AND MUL OR SWAP1 SSTORE POP PUSH1 0x4 PUSH0 SWAP1 SLOAD SWAP1 PUSH2 0x100 EXP SWAP1 DIV PUSH20 0xFFFFFFFFFFFFFFFFFFFFFFFFFFFFFFFFFFFFFFFF AND PUSH20 0xFFFFFFFFFFFFFFFFFFFFFFFFFFFFFFFFFFFFFFFF AND PUSH2 0x8FC SELFBALANCE SWAP1 DUP2 ISZERO MUL SWAP1 PUSH1 0x40 MLOAD PUSH0 PUSH1 0x40 MLOAD DUP1 DUP4 SUB DUP2 DUP6 DUP9 DUP9 CALL SWAP4 POP POP POP POP ISZERO DUP1 ISZERO PUSH2 0xFA4 JUMPI RETURNDATASIZE PUSH0 DUP1 RETURNDATACOPY RETURNDATASIZE PUSH0 REVERT JUMPDEST POP POP POP JUMP JUMPDEST DUP3 DUP1 SLOAD DUP3 DUP3 SSTORE SWAP1 PUSH0 MSTORE PUSH1 0x20 PUSH0 KECCAK256 SWAP1 DUP2 ADD SWAP3 DUP3 ISZERO PUSH2 0xFE3 JUMPI SWAP2 PUSH1 0x20 MUL DUP3 ADD JUMPDEST DUP3 DUP2 GT ISZERO PUSH2 0xFE2 JUMPI DUP3 MLOAD DUP3 SSTORE SWAP2 PUSH1 0x20 ADD SWAP2 SWAP1 PUSH1 0x1 ADD SWAP1 PUSH2 0xFC7 JUMP JUMPDEST JUMPDEST POP SWAP1 POP PUSH2 0xFF0 SWAP2 SWAP1 PUSH2 0x107B JUMP JUMPDEST POP SWAP1 JUMP JUMPDEST DUP3 DUP1 SLOAD DUP3 DUP3 SSTORE SWAP1 PUSH0 MSTORE PUSH1 0x20 PUSH0 KECCAK256 SWAP1 DUP2 ADD SWAP3 DUP3 ISZERO PUSH2 0x106A JUMPI SWAP2 PUSH1 0x20 MUL DUP3 ADD JUMPDEST DUP3 DUP2 GT ISZERO PUSH2 0x1069 JUMPI DUP3 MLOAD DUP3 PUSH0 PUSH2 0x100 EXP DUP2 SLOAD DUP2 PUSH20 0xFFFFFFFFFFFFFFFFFFFFFFFFFFFFFFFFFFFFFFFF MUL NOT AND SWAP1 DUP4 PUSH20 0xFFFFFFFFFFFFFFFFFFFFFFFFFFFFFFFFFFFFFFFF AND MUL OR SWAP1 SSTORE POP SWAP2 PUSH1 0x20 ADD SWAP2 SWAP1 PUSH1 0x1 ADD SWAP1 PUSH2 0x1012 JUMP JUMPDEST JUMPDEST POP SWAP1 POP PUSH2 0x1077 SWAP2 SWAP1 PUSH2 0x107B JUMP JUMPDEST POP SWAP1 JUMP JUMPDEST JUMPDEST DUP1 DUP3 GT ISZERO PUSH2 0x1092 JUMPI PUSH0 DUP2 PUSH0 SWAP1 SSTORE POP PUSH1 0x1 ADD PUSH2 0x107C JUMP JUMPDEST POP SWAP1 JUMP JUMPDEST PUSH0 DUP3 DUP3 MSTORE PUSH1 0x20 DUP3 ADD SWAP1 POP SWAP3 SWAP2 POP POP JUMP JUMPDEST PUSH32 0x436F6E747269627574652065786163746C79203120657468657220746F207061 PUSH0 DUP3 ADD MSTORE PUSH32 0x7274696369706174650000000000000000000000000000000000000000000000 PUSH1 0x20 DUP3 ADD MSTORE POP JUMP JUMPDEST PUSH0 PUSH2 0x1100 PUSH1 0x29 DUP4 PUSH2 0x1096 JUMP JUMPDEST SWAP2 POP PUSH2 0x110B DUP3 PUSH2 0x10A6 JUMP JUMPDEST PUSH1 0x40 DUP3 ADD SWAP1 POP SWAP2 SWAP1 POP JUMP JUMPDEST PUSH0 PUSH1 0x20 DUP3 ADD SWAP1 POP DUP2 DUP2 SUB PUSH0 DUP4 ADD MSTORE PUSH2 0x112D DUP2 PUSH2 0x10F4 JUMP JUMPDEST SWAP1 POP SWAP2 SWAP1 POP JUMP JUMPDEST PUSH0 DUP2 SWAP1 POP SWAP2 SWAP1 POP JUMP JUMPDEST PUSH2 0x1146 DUP2 PUSH2 0x1134 JUMP JUMPDEST DUP3 MSTORE POP POP JUMP JUMPDEST PUSH0 PUSH1 0x20 DUP3 ADD SWAP1 POP PUSH2 0x115F PUSH0 DUP4 ADD DUP5 PUSH2 0x113D JUMP JUMPDEST SWAP3 SWAP2 POP POP JUMP JUMPDEST PUSH0 PUSH1 0x40 MLOAD SWAP1 POP SWAP1 JUMP JUMPDEST PUSH0 DUP1 REVERT JUMPDEST PUSH0 DUP1 REVERT JUMPDEST PUSH0 DUP2 SWAP1 POP SWAP2 SWAP1 POP JUMP JUMPDEST PUSH2 0x1188 DUP2 PUSH2 0x1176 JUMP JUMPDEST DUP2 EQ PUSH2 0x1192 JUMPI PUSH0 DUP1 REVERT JUMPDEST POP JUMP JUMPDEST PUSH0 DUP2 CALLDATALOAD SWAP1 POP PUSH2 0x11A3 DUP2 PUSH2 0x117F JUMP JUMPDEST SWAP3 SWAP2 POP POP JUMP JUMPDEST PUSH0 DUP1 REVERT JUMPDEST PUSH0 PUSH1 0x1F NOT PUSH1 0x1F DUP4 ADD AND SWAP1 POP SWAP2 SWAP1 POP JUMP JUMPDEST PUSH32 0x4E487B7100000000000000000000000000000000000000000000000000000000 PUSH0 MSTORE PUSH1 0x41 PUSH1 0x4 MSTORE PUSH1 0x24 PUSH0 REVERT JUMPDEST PUSH2 0x11F3 DUP3 PUSH2 0x11AD JUMP JUMPDEST DUP2 ADD DUP2 DUP2 LT PUSH8 0xFFFFFFFFFFFFFFFF DUP3 GT OR ISZERO PUSH2 0x1212 JUMPI PUSH2 0x1211 PUSH2 0x11BD JUMP JUMPDEST JUMPDEST DUP1 PUSH1 0x40 MSTORE POP POP POP JUMP JUMPDEST PUSH0 PUSH2 0x1224 PUSH2 0x1165 JUMP JUMPDEST SWAP1 POP PUSH2 0x1230 DUP3 DUP3 PUSH2 0x11EA JUMP JUMPDEST SWAP2 SWAP1 POP JUMP JUMPDEST PUSH0 PUSH8 0xFFFFFFFFFFFFFFFF DUP3 GT ISZERO PUSH2 0x124F JUMPI PUSH2 0x124E PUSH2 0x11BD JUMP JUMPDEST JUMPDEST PUSH1 0x20 DUP3 MUL SWAP1 POP PUSH1 0x20 DUP2 ADD SWAP1 POP SWAP2 SWAP1 POP JUMP JUMPDEST PUSH0 DUP1 REVERT JUMPDEST PUSH0 PUSH2 0x1276 PUSH2 0x1271 DUP5 PUSH2 0x1235 JUMP JUMPDEST PUSH2 0x121B JUMP JUMPDEST SWAP1 POP DUP1 DUP4 DUP3 MSTORE PUSH1 0x20 DUP3 ADD SWAP1 POP PUSH1 0x20 DUP5 MUL DUP4 ADD DUP6 DUP2 GT ISZERO PUSH2 0x1299 JUMPI PUSH2 0x1298 PUSH2 0x1260 JUMP JUMPDEST JUMPDEST DUP4 JUMPDEST DUP2 DUP2 LT ISZERO PUSH2 0x12C2 JUMPI DUP1 PUSH2 0x12AE DUP9 DUP3 PUSH2 0x1195 JUMP JUMPDEST DUP5 MSTORE PUSH1 0x20 DUP5 ADD SWAP4 POP POP PUSH1 0x20 DUP2 ADD SWAP1 POP PUSH2 0x129B JUMP JUMPDEST POP POP POP SWAP4 SWAP3 POP POP POP JUMP JUMPDEST PUSH0 DUP3 PUSH1 0x1F DUP4 ADD SLT PUSH2 0x12E0 JUMPI PUSH2 0x12DF PUSH2 0x11A9 JUMP JUMPDEST JUMPDEST DUP2 CALLDATALOAD PUSH2 0x12F0 DUP5 DUP3 PUSH1 0x20 DUP7 ADD PUSH2 0x1264 JUMP JUMPDEST SWAP2 POP POP SWAP3 SWAP2 POP POP JUMP JUMPDEST PUSH0 DUP1 PUSH1 0x40 DUP4 DUP6 SUB SLT ISZERO PUSH2 0x130F JUMPI PUSH2 0x130E PUSH2 0x116E JUMP JUMPDEST JUMPDEST PUSH0 PUSH2 0x131C DUP6 DUP3 DUP7 ADD PUSH2 0x1195 JUMP JUMPDEST SWAP3 POP POP PUSH1 0x20 DUP4 ADD CALLDATALOAD PUSH8 0xFFFFFFFFFFFFFFFF DUP2 GT ISZERO PUSH2 0x133D JUMPI PUSH2 0x133C PUSH2 0x1172 JUMP JUMPDEST JUMPDEST PUSH2 0x1349 DUP6 DUP3 DUP7 ADD PUSH2 0x12CC JUMP JUMPDEST SWAP2 POP POP SWAP3 POP SWAP3 SWAP1 POP JUMP JUMPDEST PUSH0 PUSH4 0xFFFFFFFF DUP3 AND SWAP1 POP SWAP2 SWAP1 POP JUMP JUMPDEST PUSH2 0x136B DUP2 PUSH2 0x1353 JUMP JUMPDEST DUP3 MSTORE POP POP JUMP JUMPDEST PUSH0 PUSH1 0x20 DUP3 ADD SWAP1 POP PUSH2 0x1384 PUSH0 DUP4 ADD DUP5 PUSH2 0x1362 JUMP JUMPDEST SWAP3 SWAP2 POP POP JUMP JUMPDEST PUSH0 PUSH1 0x20 DUP3 DUP5 SUB SLT ISZERO PUSH2 0x139F JUMPI PUSH2 0x139E PUSH2 0x116E JUMP JUMPDEST JUMPDEST PUSH0 PUSH2 0x13AC DUP5 DUP3 DUP6 ADD PUSH2 0x1195 JUMP JUMPDEST SWAP2 POP POP SWAP3 SWAP2 POP POP JUMP JUMPDEST PUSH0 PUSH20 0xFFFFFFFFFFFFFFFFFFFFFFFFFFFFFFFFFFFFFFFF DUP3 AND SWAP1 POP SWAP2 SWAP1 POP JUMP JUMPDEST PUSH0 PUSH2 0x13DE DUP3 PUSH2 0x13B5 JUMP JUMPDEST SWAP1 POP SWAP2 SWAP1 POP JUMP JUMPDEST PUSH2 0x13EE DUP2 PUSH2 0x13D4 JUMP JUMPDEST DUP3 MSTORE POP POP JUMP JUMPDEST PUSH0 PUSH1 0x20 DUP3 ADD SWAP1 POP PUSH2 0x1407 PUSH0 DUP4 ADD DUP5 PUSH2 0x13E5 JUMP JUMPDEST SWAP3 SWAP2 POP POP JUMP JUMPDEST PUSH2 0x1416 DUP2 PUSH2 0x1176 JUMP JUMPDEST DUP3 MSTORE POP POP JUMP JUMPDEST PUSH0 PUSH1 0x20 DUP3 ADD SWAP1 POP PUSH2 0x142F PUSH0 DUP4 ADD DUP5 PUSH2 0x140D JUMP JUMPDEST SWAP3 SWAP2 POP POP JUMP JUMPDEST PUSH0 PUSH2 0x143F DUP3 PUSH2 0x13B5 JUMP JUMPDEST SWAP1 POP SWAP2 SWAP1 POP JUMP JUMPDEST PUSH2 0x144F DUP2 PUSH2 0x1435 JUMP JUMPDEST DUP3 MSTORE POP POP JUMP JUMPDEST PUSH0 PUSH1 0x20 DUP3 ADD SWAP1 POP PUSH2 0x1468 PUSH0 DUP4 ADD DUP5 PUSH2 0x1446 JUMP JUMPDEST SWAP3 SWAP2 POP POP JUMP JUMPDEST PUSH0 PUSH8 0xFFFFFFFFFFFFFFFF DUP3 AND SWAP1 POP SWAP2 SWAP1 POP JUMP JUMPDEST PUSH2 0x148A DUP2 PUSH2 0x146E JUMP JUMPDEST DUP3 MSTORE POP POP JUMP JUMPDEST PUSH0 PUSH1 0x20 DUP3 ADD SWAP1 POP PUSH2 0x14A3 PUSH0 DUP4 ADD DUP5 PUSH2 0x1481 JUMP JUMPDEST SWAP3 SWAP2 POP POP JUMP JUMPDEST PUSH0 DUP2 ISZERO ISZERO SWAP1 POP SWAP2 SWAP1 POP JUMP JUMPDEST PUSH2 0x14BD DUP2 PUSH2 0x14A9 JUMP JUMPDEST DUP3 MSTORE POP POP JUMP JUMPDEST PUSH0 PUSH1 0x40 DUP3 ADD SWAP1 POP PUSH2 0x14D6 PUSH0 DUP4 ADD DUP6 PUSH2 0x14B4 JUMP JUMPDEST PUSH2 0x14E3 PUSH1 0x20 DUP4 ADD DUP5 PUSH2 0x14B4 JUMP JUMPDEST SWAP4 SWAP3 POP POP POP JUMP JUMPDEST PUSH0 PUSH2 0xFFFF DUP3 AND SWAP1 POP SWAP2 SWAP1 POP JUMP JUMPDEST PUSH2 0x1500 DUP2 PUSH2 0x14EA JUMP JUMPDEST DUP3 MSTORE POP POP JUMP JUMPDEST PUSH0 PUSH1 0x20 DUP3 ADD SWAP1 POP PUSH2 0x1519 PUSH0 DUP4 ADD DUP5 PUSH2 0x14F7 JUMP JUMPDEST SWAP3 SWAP2 POP POP JUMP JUMPDEST PUSH2 0x1528 DUP2 PUSH2 0x1435 JUMP JUMPDEST DUP2 EQ PUSH2 0x1532 JUMPI PUSH0 DUP1 REVERT JUMPDEST POP JUMP JUMPDEST PUSH0 DUP2 CALLDATALOAD SWAP1 POP PUSH2 0x1543 DUP2 PUSH2 0x151F JUMP JUMPDEST SWAP3 SWAP2 POP POP JUMP JUMPDEST PUSH0 PUSH1 0x20 DUP3 DUP5 SUB SLT ISZERO PUSH2 0x155E JUMPI PUSH2 0x155D PUSH2 0x116E JUMP JUMPDEST JUMPDEST PUSH0 PUSH2 0x156B DUP5 DUP3 DUP6 ADD PUSH2 0x1535 JUMP JUMPDEST SWAP2 POP POP SWAP3 SWAP2 POP POP JUMP JUMPDEST PUSH0 PUSH1 0x40 DUP3 ADD SWAP1 POP PUSH2 0x1587 PUSH0 DUP4 ADD DUP6 PUSH2 0x1446 JUMP JUMPDEST PUSH2 0x1594 PUSH1 0x20 DUP4 ADD DUP5 PUSH2 0x1446 JUMP JUMPDEST SWAP4 SWAP3 POP POP POP JUMP JUMPDEST PUSH0 PUSH1 0xA0 DUP3 ADD SWAP1 POP PUSH2 0x15AE PUSH0 DUP4 ADD DUP9 PUSH2 0x113D JUMP JUMPDEST PUSH2 0x15BB PUSH1 0x20 DUP4 ADD DUP8 PUSH2 0x1481 JUMP JUMPDEST PUSH2 0x15C8 PUSH1 0x40 DUP4 ADD DUP7 PUSH2 0x14F7 JUMP JUMPDEST PUSH2 0x15D5 PUSH1 0x60 DUP4 ADD DUP6 PUSH2 0x1362 JUMP JUMPDEST PUSH2 0x15E2 PUSH1 0x80 DUP4 ADD DUP5 PUSH2 0x1362 JUMP JUMPDEST SWAP7 SWAP6 POP POP POP POP POP POP JUMP JUMPDEST PUSH0 DUP2 MLOAD SWAP1 POP PUSH2 0x15FA DUP2 PUSH2 0x117F JUMP JUMPDEST SWAP3 SWAP2 POP POP JUMP JUMPDEST PUSH0 PUSH1 0x20 DUP3 DUP5 SUB SLT ISZERO PUSH2 0x1615 JUMPI PUSH2 0x1614 PUSH2 0x116E JUMP JUMPDEST JUMPDEST PUSH0 PUSH2 0x1622 DUP5 DUP3 DUP6 ADD PUSH2 0x15EC JUMP JUMPDEST SWAP2 POP POP SWAP3 SWAP2 POP POP JUMP JUMPDEST PUSH0 PUSH1 0x40 DUP3 ADD SWAP1 POP PUSH2 0x163E PUSH0 DUP4 ADD DUP6 PUSH2 0x140D JUMP JUMPDEST PUSH2 0x164B PUSH1 0x20 DUP4 ADD DUP5 PUSH2 0x1362 JUMP JUMPDEST SWAP4 SWAP3 POP POP POP JUMP JUMPDEST PUSH32 0x4D7573742062652070726F706F736564206F776E657200000000000000000000 PUSH0 DUP3 ADD MSTORE POP JUMP JUMPDEST PUSH0 PUSH2 0x1686 PUSH1 0x16 DUP4 PUSH2 0x1096 JUMP JUMPDEST SWAP2 POP PUSH2 0x1691 DUP3 PUSH2 0x1652 JUMP JUMPDEST PUSH1 0x20 DUP3 ADD SWAP1 POP SWAP2 SWAP1 POP JUMP JUMPDEST PUSH0 PUSH1 0x20 DUP3 ADD SWAP1 POP DUP2 DUP2 SUB PUSH0 DUP4 ADD MSTORE PUSH2 0x16B3 DUP2 PUSH2 0x167A JUMP JUMPDEST SWAP1 POP SWAP2 SWAP1 POP JUMP JUMPDEST PUSH32 0x72657175657374206E6F7420666F756E64000000000000000000000000000000 PUSH0 DUP3 ADD MSTORE POP JUMP JUMPDEST PUSH0 PUSH2 0x16EE PUSH1 0x11 DUP4 PUSH2 0x1096 JUMP JUMPDEST SWAP2 POP PUSH2 0x16F9 DUP3 PUSH2 0x16BA JUMP JUMPDEST PUSH1 0x20 DUP3 ADD SWAP1 POP SWAP2 SWAP1 POP JUMP JUMPDEST PUSH0 PUSH1 0x20 DUP3 ADD SWAP1 POP DUP2 DUP2 SUB PUSH0 DUP4 ADD MSTORE PUSH2 0x171B DUP2 PUSH2 0x16E2 JUMP JUMPDEST SWAP1 POP SWAP2 SWAP1 POP JUMP JUMPDEST PUSH0 DUP2 MLOAD SWAP1 POP SWAP2 SWAP1 POP JUMP JUMPDEST PUSH0 DUP3 DUP3 MSTORE PUSH1 0x20 DUP3 ADD SWAP1 POP SWAP3 SWAP2 POP POP JUMP JUMPDEST PUSH0 DUP2 SWAP1 POP PUSH1 0x20 DUP3 ADD SWAP1 POP SWAP2 SWAP1 POP JUMP JUMPDEST PUSH2 0x1754 DUP2 PUSH2 0x1176 JUMP JUMPDEST DUP3 MSTORE POP POP JUMP JUMPDEST PUSH0 PUSH2 0x1765 DUP4 DUP4 PUSH2 0x174B JUMP JUMPDEST PUSH1 0x20 DUP4 ADD SWAP1 POP SWAP3 SWAP2 POP POP JUMP JUMPDEST PUSH0 PUSH1 0x20 DUP3 ADD SWAP1 POP SWAP2 SWAP1 POP JUMP JUMPDEST PUSH0 PUSH2 0x1787 DUP3 PUSH2 0x1722 JUMP JUMPDEST PUSH2 0x1791 DUP2 DUP6 PUSH2 0x172C JUMP JUMPDEST SWAP4 POP PUSH2 0x179C DUP4 PUSH2 0x173C JUMP JUMPDEST DUP1 PUSH0 JUMPDEST DUP4 DUP2 LT ISZERO PUSH2 0x17CC JUMPI DUP2 MLOAD PUSH2 0x17B3 DUP9 DUP3 PUSH2 0x175A JUMP JUMPDEST SWAP8 POP PUSH2 0x17BE DUP4 PUSH2 0x1771 JUMP JUMPDEST SWAP3 POP POP PUSH1 0x1 DUP2 ADD SWAP1 POP PUSH2 0x179F JUMP JUMPDEST POP DUP6 SWAP4 POP POP POP POP SWAP3 SWAP2 POP POP JUMP JUMPDEST PUSH0 PUSH1 0x40 DUP3 ADD SWAP1 POP PUSH2 0x17EC PUSH0 DUP4 ADD DUP6 PUSH2 0x140D JUMP JUMPDEST DUP2 DUP2 SUB PUSH1 0x20 DUP4 ADD MSTORE PUSH2 0x17FE DUP2 DUP5 PUSH2 0x177D JUMP JUMPDEST SWAP1 POP SWAP4 SWAP3 POP POP POP JUMP JUMPDEST PUSH32 0x4F6E6C792063616C6C61626C65206279206F776E657200000000000000000000 PUSH0 DUP3 ADD MSTORE POP JUMP JUMPDEST PUSH0 PUSH2 0x183B PUSH1 0x16 DUP4 PUSH2 0x1096 JUMP JUMPDEST SWAP2 POP PUSH2 0x1846 DUP3 PUSH2 0x1807 JUMP JUMPDEST PUSH1 0x20 DUP3 ADD SWAP1 POP SWAP2 SWAP1 POP JUMP JUMPDEST PUSH0 PUSH1 0x20 DUP3 ADD SWAP1 POP DUP2 DUP2 SUB PUSH0 DUP4 ADD MSTORE PUSH2 0x1868 DUP2 PUSH2 0x182F JUMP JUMPDEST SWAP1 POP SWAP2 SWAP1 POP JUMP JUMPDEST PUSH32 0x43616E6E6F74207472616E7366657220746F2073656C66000000000000000000 PUSH0 DUP3 ADD MSTORE POP JUMP JUMPDEST PUSH0 PUSH2 0x18A3 PUSH1 0x17 DUP4 PUSH2 0x1096 JUMP JUMPDEST SWAP2 POP PUSH2 0x18AE DUP3 PUSH2 0x186F JUMP JUMPDEST PUSH1 0x20 DUP3 ADD SWAP1 POP SWAP2 SWAP1 POP JUMP JUMPDEST PUSH0 PUSH1 0x20 DUP3 ADD SWAP1 POP DUP2 DUP2 SUB PUSH0 DUP4 ADD MSTORE PUSH2 0x18D0 DUP2 PUSH2 0x1897 JUMP JUMPDEST SWAP1 POP SWAP2 SWAP1 POP JUMP JUMPDEST PUSH32 0x4E487B7100000000000000000000000000000000000000000000000000000000 PUSH0 MSTORE PUSH1 0x32 PUSH1 0x4 MSTORE PUSH1 0x24 PUSH0 REVERT JUMPDEST PUSH32 0x4E487B7100000000000000000000000000000000000000000000000000000000 PUSH0 MSTORE PUSH1 0x12 PUSH1 0x4 MSTORE PUSH1 0x24 PUSH0 REVERT JUMPDEST PUSH0 PUSH2 0x193B DUP3 PUSH2 0x1176 JUMP JUMPDEST SWAP2 POP PUSH2 0x1946 DUP4 PUSH2 0x1176 JUMP JUMPDEST SWAP3 POP DUP3 PUSH2 0x1956 JUMPI PUSH2 0x1955 PUSH2 0x1904 JUMP JUMPDEST JUMPDEST DUP3 DUP3 MOD SWAP1 POP SWAP3 SWAP2 POP POP JUMP INVALID LOG2 PUSH5 0x6970667358 0x22 SLT KECCAK256 BYTE SHL DUP4 SWAP13 0xDC REVERT 0x22 CALL 0xE8 DUP3 0xE3 0x25 AND 0xEB 0xEB SAR MSIZE LT CALLCODE BASEFEE 0xBF DUP3 0xAE PUSH17 0xB83BA4AC6D650B2864736F6C6343000816 STOP CALLER "
				},
				"gasEstimates": {
					"creation": {
						"codeDepositCost": "1310200",
						"executionCost": "infinite",
						"totalCost": "infinite"
					},
					"external": {
						"acceptOwnership()": "54622",
						"callbackGasLimit()": "2534",
						"getWinner()": "2604",
						"lastRequestId()": "2535",
						"manager()": "2553",
						"numWords()": "2628",
						"owner()": "2582",
						"participants(uint256)": "5034",
						"randomResult()": "2448",
						"rawFulfillRandomWords(uint256,uint256[])": "infinite",
						"requestConfirmations()": "2539",
						"requestIds(uint256)": "infinite",
						"requestRandomWinner()": "infinite",
						"reset()": "infinite",
						"s_requests(uint256)": "infinite",
						"s_subscriptionId()": "2511",
						"transferOwnership(address)": "30733",
						"vrfKeyHash()": "2449",
						"winner()": "2574"
					},
					"internal": {
						"fulfillRandomWords(uint256,uint256[] memory)": "infinite",
						"selectWinner(uint256[] memory)": "infinite"
					}
				},
				"methodIdentifiers": {
					"acceptOwnership()": "79ba5097",
					"callbackGasLimit()": "24f74697",
					"getWinner()": "8e7ea5b2",
					"lastRequestId()": "fc2a88c3",
					"manager()": "481c6a75",
					"numWords()": "7ccfd7fc",
					"owner()": "8da5cb5b",
					"participants(uint256)": "35c1d349",
					"randomResult()": "42619f66",
					"rawFulfillRandomWords(uint256,uint256[])": "1fe543e3",
					"requestConfirmations()": "b0fb162f",
					"requestIds(uint256)": "8796ba8c",
					"requestRandomWinner()": "522a1f0b",
					"reset()": "d826f88f",
					"s_requests(uint256)": "a168fa89",
					"s_subscriptionId()": "8ac00021",
					"transferOwnership(address)": "f2fde38b",
					"vrfKeyHash()": "041d443e",
					"winner()": "dfbf53ae"
				}
			},
			"storageLayout": {
				"storage": [
					{
						"astId": 123,
						"contract": "lottery/Lottery.sol:Lottery",
						"label": "s_owner",
						"offset": 0,
						"slot": "0",
						"type": "t_address"
					},
					{
						"astId": 125,
						"contract": "lottery/Lottery.sol:Lottery",
						"label": "s_pendingOwner",
						"offset": 0,
						"slot": "1",
						"type": "t_address"
					},
					{
						"astId": 362,
						"contract": "lottery/Lottery.sol:Lottery",
						"label": "manager",
						"offset": 0,
						"slot": "2",
						"type": "t_address"
					},
					{
						"astId": 365,
						"contract": "lottery/Lottery.sol:Lottery",
						"label": "participants",
						"offset": 0,
						"slot": "3",
						"type": "t_array(t_address_payable)dyn_storage"
					},
					{
						"astId": 367,
						"contract": "lottery/Lottery.sol:Lottery",
						"label": "winner",
						"offset": 0,
						"slot": "4",
						"type": "t_address_payable"
					},
					{
						"astId": 369,
						"contract": "lottery/Lottery.sol:Lottery",
						"label": "randomResult",
						"offset": 0,
						"slot": "5",
						"type": "t_uint256"
					},
					{
						"astId": 371,
						"contract": "lottery/Lottery.sol:Lottery",
						"label": "keyHash",
						"offset": 0,
						"slot": "6",
						"type": "t_bytes32"
					},
					{
						"astId": 373,
						"contract": "lottery/Lottery.sol:Lottery",
						"label": "fee",
						"offset": 0,
						"slot": "7",
						"type": "t_uint256"
					},
					{
						"astId": 375,
						"contract": "lottery/Lottery.sol:Lottery",
						"label": "s_subscriptionId",
						"offset": 0,
						"slot": "8",
						"type": "t_uint64"
					},
					{
						"astId": 388,
						"contract": "lottery/Lottery.sol:Lottery",
						"label": "s_requests",
						"offset": 0,
						"slot": "9",
						"type": "t_mapping(t_uint256,t_struct(RequestStatus)383_storage)"
					},
					{
						"astId": 391,
						"contract": "lottery/Lottery.sol:Lottery",
						"label": "COORDINATOR",
						"offset": 0,
						"slot": "10",
						"type": "t_contract(VRFCoordinatorV2Interface)95"
					},
					{
						"astId": 394,
						"contract": "lottery/Lottery.sol:Lottery",
						"label": "requestIds",
						"offset": 0,
						"slot": "11",
						"type": "t_array(t_uint256)dyn_storage"
					},
					{
						"astId": 396,
						"contract": "lottery/Lottery.sol:Lottery",
						"label": "lastRequestId",
						"offset": 0,
						"slot": "12",
						"type": "t_uint256"
					},
					{
						"astId": 398,
						"contract": "lottery/Lottery.sol:Lottery",
						"label": "vrfKeyHash",
						"offset": 0,
						"slot": "13",
						"type": "t_bytes32"
					},
					{
						"astId": 401,
						"contract": "lottery/Lottery.sol:Lottery",
						"label": "callbackGasLimit",
						"offset": 0,
						"slot": "14",
						"type": "t_uint32"
					},
					{
						"astId": 404,
						"contract": "lottery/Lottery.sol:Lottery",
						"label": "requestConfirmations",
						"offset": 4,
						"slot": "14",
						"type": "t_uint16"
					},
					{
						"astId": 407,
						"contract": "lottery/Lottery.sol:Lottery",
						"label": "numWords",
						"offset": 6,
						"slot": "14",
						"type": "t_uint32"
					}
				],
				"types": {
					"t_address": {
						"encoding": "inplace",
						"label": "address",
						"numberOfBytes": "20"
					},
					"t_address_payable": {
						"encoding": "inplace",
						"label": "address payable",
						"numberOfBytes": "20"
					},
					"t_array(t_address_payable)dyn_storage": {
						"base": "t_address_payable",
						"encoding": "dynamic_array",
						"label": "address payable[]",
						"numberOfBytes": "32"
					},
					"t_array(t_uint256)dyn_storage": {
						"base": "t_uint256",
						"encoding": "dynamic_array",
						"label": "uint256[]",
						"numberOfBytes": "32"
					},
					"t_bool": {
						"encoding": "inplace",
						"label": "bool",
						"numberOfBytes": "1"
					},
					"t_bytes32": {
						"encoding": "inplace",
						"label": "bytes32",
						"numberOfBytes": "32"
					},
					"t_contract(VRFCoordinatorV2Interface)95": {
						"encoding": "inplace",
						"label": "contract VRFCoordinatorV2Interface",
						"numberOfBytes": "20"
					},
					"t_mapping(t_uint256,t_struct(RequestStatus)383_storage)": {
						"encoding": "mapping",
						"key": "t_uint256",
						"label": "mapping(uint256 => struct Lottery.RequestStatus)",
						"numberOfBytes": "32",
						"value": "t_struct(RequestStatus)383_storage"
					},
					"t_struct(RequestStatus)383_storage": {
						"encoding": "inplace",
						"label": "struct Lottery.RequestStatus",
						"members": [
							{
								"astId": 377,
								"contract": "lottery/Lottery.sol:Lottery",
								"label": "fulfilled",
								"offset": 0,
								"slot": "0",
								"type": "t_bool"
							},
							{
								"astId": 379,
								"contract": "lottery/Lottery.sol:Lottery",
								"label": "exists",
								"offset": 1,
								"slot": "0",
								"type": "t_bool"
							},
							{
								"astId": 382,
								"contract": "lottery/Lottery.sol:Lottery",
								"label": "randomWords",
								"offset": 0,
								"slot": "1",
								"type": "t_array(t_uint256)dyn_storage"
							}
						],
						"numberOfBytes": "64"
					},
					"t_uint16": {
						"encoding": "inplace",
						"label": "uint16",
						"numberOfBytes": "2"
					},
					"t_uint256": {
						"encoding": "inplace",
						"label": "uint256",
						"numberOfBytes": "32"
					},
					"t_uint32": {
						"encoding": "inplace",
						"label": "uint32",
						"numberOfBytes": "4"
					},
					"t_uint64": {
						"encoding": "inplace",
						"label": "uint64",
						"numberOfBytes": "8"
					}
				}
			},
			"userdoc": {
				"kind": "user",
				"methods": {
					"acceptOwnership()": {
						"notice": "Allows an ownership transfer to be completed by the recipient."
					},
					"owner()": {
						"notice": "Get the current owner"
					},
					"transferOwnership(address)": {
						"notice": "Allows an owner to begin transferring ownership to a new address, pending."
					}
				},
				"version": 1
			}
		}
	}
}